{"abi":[{"type":"constructor","inputs":[{"name":"_treasury","type":"address","internalType":"address"},{"name":"subscriptionId","type":"uint256","internalType":"uint256"}],"stateMutability":"nonpayable"},{"type":"function","name":"acceptOwnership","inputs":[],"outputs":[],"stateMutability":"nonpayable"},{"type":"function","name":"allChallengeIds","inputs":[{"name":"","type":"uint256","internalType":"uint256"}],"outputs":[{"name":"","type":"bytes32","internalType":"bytes32"}],"stateMutability":"view"},{"type":"function","name":"allGameIds","inputs":[{"name":"","type":"uint256","internalType":"uint256"}],"outputs":[{"name":"","type":"bytes32","internalType":"bytes32"}],"stateMutability":"view"},{"type":"function","name":"allUserAddresses","inputs":[{"name":"","type":"uint256","internalType":"uint256"}],"outputs":[{"name":"","type":"address","internalType":"address"}],"stateMutability":"view"},{"type":"function","name":"baseDivider","inputs":[],"outputs":[{"name":"","type":"uint256","internalType":"uint256"}],"stateMutability":"view"},{"type":"function","name":"burnAddress","inputs":[],"outputs":[{"name":"","type":"address","internalType":"address"}],"stateMutability":"view"},{"type":"function","name":"callbackGasLimit","inputs":[],"outputs":[{"name":"","type":"uint32","internalType":"uint32"}],"stateMutability":"view"},{"type":"function","name":"cancelChallenge","inputs":[{"name":"_challengeId","type":"bytes32","internalType":"bytes32"}],"outputs":[],"stateMutability":"nonpayable"},{"type":"function","name":"challenges","inputs":[{"name":"","type":"bytes32","internalType":"bytes32"}],"outputs":[{"name":"challengeId","type":"bytes32","internalType":"bytes32"},{"name":"gameId","type":"bytes32","internalType":"bytes32"},{"name":"isActive","type":"bool","internalType":"bool"},{"name":"result","type":"bool","internalType":"bool"},{"name":"xpAmount","type":"uint256","internalType":"uint256"},{"name":"createTime","type":"uint256","internalType":"uint256"},{"name":"drawTime","type":"uint256","internalType":"uint256"},{"name":"creator","type":"tuple","internalType":"struct WaveChallengeFlip.User","components":[{"name":"userAddress","type":"address","internalType":"address"},{"name":"isCreator","type":"bool","internalType":"bool"},{"name":"side","type":"bool","internalType":"bool"},{"name":"challengeId","type":"bytes32","internalType":"bytes32"},{"name":"xpAmount","type":"uint256","internalType":"uint256"},{"name":"betTime","type":"uint256","internalType":"uint256"},{"name":"rewardAmount","type":"uint256","internalType":"uint256"}]},{"name":"challenger","type":"tuple","internalType":"struct WaveChallengeFlip.User","components":[{"name":"userAddress","type":"address","internalType":"address"},{"name":"isCreator","type":"bool","internalType":"bool"},{"name":"side","type":"bool","internalType":"bool"},{"name":"challengeId","type":"bytes32","internalType":"bytes32"},{"name":"xpAmount","type":"uint256","internalType":"uint256"},{"name":"betTime","type":"uint256","internalType":"uint256"},{"name":"rewardAmount","type":"uint256","internalType":"uint256"}]}],"stateMutability":"view"},{"type":"function","name":"claimPayout","inputs":[{"name":"_challengeId","type":"bytes32","internalType":"bytes32"}],"outputs":[],"stateMutability":"nonpayable"},{"type":"function","name":"createChallenge","inputs":[{"name":"_gameId","type":"bytes32","internalType":"bytes32"},{"name":"_xpAmount","type":"uint256","internalType":"uint256"},{"name":"_side","type":"bool","internalType":"bool"}],"outputs":[],"stateMutability":"nonpayable"},{"type":"function","name":"createGame","inputs":[{"name":"_baseToken","type":"address","internalType":"address"},{"name":"_burnFee","type":"uint8","internalType":"uint8"},{"name":"_treasuryFee","type":"uint8","internalType":"uint8"},{"name":"_minTokenAmount","type":"uint256","internalType":"uint256"}],"outputs":[],"stateMutability":"nonpayable"},{"type":"function","name":"enterChallenge","inputs":[{"name":"_challengeId","type":"bytes32","internalType":"bytes32"},{"name":"_xpAmount","type":"uint256","internalType":"uint256"},{"name":"_side","type":"bool","internalType":"bool"}],"outputs":[],"stateMutability":"nonpayable"},{"type":"function","name":"gamePools","inputs":[{"name":"","type":"bytes32","internalType":"bytes32"}],"outputs":[{"name":"baseToken","type":"address","internalType":"address"},{"name":"isActive","type":"bool","internalType":"bool"},{"name":"burnFee","type":"uint8","internalType":"uint8"},{"name":"treasuryFee","type":"uint8","internalType":"uint8"},{"name":"gameId","type":"bytes32","internalType":"bytes32"},{"name":"totalXpAmount","type":"uint256","internalType":"uint256"},{"name":"minTokenAmount","type":"uint256","internalType":"uint256"}],"stateMutability":"view"},{"type":"function","name":"getAllUserAddress","inputs":[],"outputs":[{"name":"len","type":"uint256","internalType":"uint256"},{"name":"addrs","type":"address[]","internalType":"address[]"}],"stateMutability":"view"},{"type":"function","name":"getChallengeIds","inputs":[],"outputs":[{"name":"len","type":"uint256","internalType":"uint256"},{"name":"ids","type":"bytes32[]","internalType":"bytes32[]"}],"stateMutability":"view"},{"type":"function","name":"getChallengeInfo","inputs":[{"name":"_challengeId","type":"bytes32","internalType":"bytes32"}],"outputs":[{"name":"","type":"bytes32","internalType":"bytes32"},{"name":"","type":"tuple","internalType":"struct WaveChallengeFlip.User","components":[{"name":"userAddress","type":"address","internalType":"address"},{"name":"isCreator","type":"bool","internalType":"bool"},{"name":"side","type":"bool","internalType":"bool"},{"name":"challengeId","type":"bytes32","internalType":"bytes32"},{"name":"xpAmount","type":"uint256","internalType":"uint256"},{"name":"betTime","type":"uint256","internalType":"uint256"},{"name":"rewardAmount","type":"uint256","internalType":"uint256"}]},{"name":"","type":"tuple","internalType":"struct WaveChallengeFlip.User","components":[{"name":"userAddress","type":"address","internalType":"address"},{"name":"isCreator","type":"bool","internalType":"bool"},{"name":"side","type":"bool","internalType":"bool"},{"name":"challengeId","type":"bytes32","internalType":"bytes32"},{"name":"xpAmount","type":"uint256","internalType":"uint256"},{"name":"betTime","type":"uint256","internalType":"uint256"},{"name":"rewardAmount","type":"uint256","internalType":"uint256"}]},{"name":"","type":"bool","internalType":"bool"},{"name":"","type":"bool","internalType":"bool"},{"name":"","type":"uint256","internalType":"uint256"},{"name":"","type":"uint256","internalType":"uint256"},{"name":"","type":"uint256","internalType":"uint256"}],"stateMutability":"view"},{"type":"function","name":"getGameIds","inputs":[],"outputs":[{"name":"len","type":"uint256","internalType":"uint256"},{"name":"ids","type":"bytes32[]","internalType":"bytes32[]"}],"stateMutability":"view"},{"type":"function","name":"getGameInfo","inputs":[{"name":"_gameId","type":"bytes32","internalType":"bytes32"}],"outputs":[{"name":"","type":"address","internalType":"address"},{"name":"","type":"uint8","internalType":"uint8"},{"name":"","type":"uint8","internalType":"uint8"},{"name":"","type":"uint256","internalType":"uint256"},{"name":"","type":"bytes32[]","internalType":"bytes32[]"},{"name":"","type":"uint256","internalType":"uint256"},{"name":"","type":"bool","internalType":"bool"}],"stateMutability":"view"},{"type":"function","name":"getUserHistory","inputs":[{"name":"_user","type":"address","internalType":"address"}],"outputs":[{"name":"","type":"bytes32[]","internalType":"bytes32[]"}],"stateMutability":"view"},{"type":"function","name":"isActiveChallengeId","inputs":[{"name":"","type":"bytes32","internalType":"bytes32"}],"outputs":[{"name":"","type":"bool","internalType":"bool"}],"stateMutability":"view"},{"type":"function","name":"isVRF","inputs":[],"outputs":[{"name":"","type":"bool","internalType":"bool"}],"stateMutability":"view"},{"type":"function","name":"keyHash","inputs":[],"outputs":[{"name":"","type":"bytes32","internalType":"bytes32"}],"stateMutability":"view"},{"type":"function","name":"linktoken","inputs":[],"outputs":[{"name":"","type":"address","internalType":"contract IERC20"}],"stateMutability":"view"},{"type":"function","name":"numWords","inputs":[],"outputs":[{"name":"","type":"uint32","internalType":"uint32"}],"stateMutability":"view"},{"type":"function","name":"owner","inputs":[],"outputs":[{"name":"","type":"address","internalType":"address"}],"stateMutability":"view"},{"type":"function","name":"pause","inputs":[],"outputs":[],"stateMutability":"nonpayable"},{"type":"function","name":"paused","inputs":[],"outputs":[{"name":"","type":"bool","internalType":"bool"}],"stateMutability":"view"},{"type":"function","name":"payouts","inputs":[{"name":"","type":"bytes32","internalType":"bytes32"}],"outputs":[{"name":"token","type":"address","internalType":"address"},{"name":"winner","type":"address","internalType":"address"},{"name":"claimed","type":"bool","internalType":"bool"},{"name":"winnerAmount","type":"uint256","internalType":"uint256"},{"name":"burnAmount","type":"uint256","internalType":"uint256"},{"name":"treasuryAmount","type":"uint256","internalType":"uint256"}],"stateMutability":"view"},{"type":"function","name":"rawFulfillRandomWords","inputs":[{"name":"requestId","type":"uint256","internalType":"uint256"},{"name":"randomWords","type":"uint256[]","internalType":"uint256[]"}],"outputs":[],"stateMutability":"nonpayable"},{"type":"function","name":"requestConfirmations","inputs":[],"outputs":[{"name":"","type":"uint16","internalType":"uint16"}],"stateMutability":"view"},{"type":"function","name":"s_subscriptionId","inputs":[],"outputs":[{"name":"","type":"uint256","internalType":"uint256"}],"stateMutability":"view"},{"type":"function","name":"s_vrfCoordinator","inputs":[],"outputs":[{"name":"","type":"address","internalType":"contract IVRFCoordinatorV2Plus"}],"stateMutability":"view"},{"type":"function","name":"setCoordinator","inputs":[{"name":"_vrfCoordinator","type":"address","internalType":"address"}],"outputs":[],"stateMutability":"nonpayable"},{"type":"function","name":"setGameData","inputs":[{"name":"_gameId","type":"bytes32","internalType":"bytes32"},{"name":"_burnFee","type":"uint8","internalType":"uint8"},{"name":"_treasuryFee","type":"uint8","internalType":"uint8"},{"name":"_minTokenAmount","type":"uint256","internalType":"uint256"}],"outputs":[],"stateMutability":"nonpayable"},{"type":"function","name":"setTreasury","inputs":[{"name":"_treasury","type":"address","internalType":"address"}],"outputs":[],"stateMutability":"nonpayable"},{"type":"function","name":"setVRF","inputs":[],"outputs":[],"stateMutability":"nonpayable"},{"type":"function","name":"transferOwnership","inputs":[{"name":"to","type":"address","internalType":"address"}],"outputs":[],"stateMutability":"nonpayable"},{"type":"function","name":"treasury","inputs":[],"outputs":[{"name":"","type":"address","internalType":"address"}],"stateMutability":"view"},{"type":"function","name":"unpause","inputs":[],"outputs":[],"stateMutability":"nonpayable"},{"type":"function","name":"unsetVRF","inputs":[],"outputs":[],"stateMutability":"nonpayable"},{"type":"function","name":"userHistory","inputs":[{"name":"","type":"address","internalType":"address"},{"name":"","type":"uint256","internalType":"uint256"}],"outputs":[{"name":"","type":"bytes32","internalType":"bytes32"}],"stateMutability":"view"},{"type":"function","name":"withdraw","inputs":[{"name":"_token","type":"address","internalType":"address"},{"name":"amount","type":"uint256","internalType":"uint256"}],"outputs":[],"stateMutability":"nonpayable"},{"type":"event","name":"ChallengeCancelled","inputs":[{"name":"challengeId","type":"bytes32","indexed":true,"internalType":"bytes32"},{"name":"creator","type":"address","indexed":true,"internalType":"address"}],"anonymous":false},{"type":"event","name":"ChallengeCreated","inputs":[{"name":"challengeId","type":"bytes32","indexed":true,"internalType":"bytes32"},{"name":"creator","type":"address","indexed":true,"internalType":"address"},{"name":"xpAmount","type":"uint256","indexed":false,"internalType":"uint256"}],"anonymous":false},{"type":"event","name":"ChallengeDrawRequested","inputs":[{"name":"requestId","type":"uint256","indexed":true,"internalType":"uint256"},{"name":"challengeId","type":"bytes32","indexed":true,"internalType":"bytes32"}],"anonymous":false},{"type":"event","name":"CoordinatorSet","inputs":[{"name":"vrfCoordinator","type":"address","indexed":false,"internalType":"address"}],"anonymous":false},{"type":"event","name":"EnteredChallenge","inputs":[{"name":"challengeId","type":"bytes32","indexed":true,"internalType":"bytes32"},{"name":"user","type":"address","indexed":true,"internalType":"address"},{"name":"xpAmount","type":"uint256","indexed":false,"internalType":"uint256"}],"anonymous":false},{"type":"event","name":"FallbackRandomUsed","inputs":[{"name":"challengeId","type":"bytes32","indexed":true,"internalType":"bytes32"}],"anonymous":false},{"type":"event","name":"GameCreated","inputs":[{"name":"gameId","type":"bytes32","indexed":true,"internalType":"bytes32"},{"name":"baseToken","type":"address","indexed":true,"internalType":"address"},{"name":"minTokenAmount","type":"uint256","indexed":false,"internalType":"uint256"}],"anonymous":false},{"type":"event","name":"GameDataUpdated","inputs":[{"name":"gameId","type":"bytes32","indexed":true,"internalType":"bytes32"},{"name":"burnFee","type":"uint8","indexed":false,"internalType":"uint8"},{"name":"treasuryFee","type":"uint8","indexed":false,"internalType":"uint8"},{"name":"minTokenAmount","type":"uint256","indexed":false,"internalType":"uint256"}],"anonymous":false},{"type":"event","name":"OwnershipTransferRequested","inputs":[{"name":"from","type":"address","indexed":true,"internalType":"address"},{"name":"to","type":"address","indexed":true,"internalType":"address"}],"anonymous":false},{"type":"event","name":"OwnershipTransferred","inputs":[{"name":"from","type":"address","indexed":true,"internalType":"address"},{"name":"to","type":"address","indexed":true,"internalType":"address"}],"anonymous":false},{"type":"event","name":"Paused","inputs":[{"name":"account","type":"address","indexed":false,"internalType":"address"}],"anonymous":false},{"type":"event","name":"PayoutClaimed","inputs":[{"name":"challengeId","type":"bytes32","indexed":true,"internalType":"bytes32"},{"name":"winner","type":"address","indexed":true,"internalType":"address"},{"name":"winnerAmount","type":"uint256","indexed":false,"internalType":"uint256"},{"name":"burnAmount","type":"uint256","indexed":false,"internalType":"uint256"},{"name":"treasuryAmount","type":"uint256","indexed":false,"internalType":"uint256"}],"anonymous":false},{"type":"event","name":"PayoutReady","inputs":[{"name":"challengeId","type":"bytes32","indexed":true,"internalType":"bytes32"},{"name":"winner","type":"address","indexed":true,"internalType":"address"},{"name":"token","type":"address","indexed":false,"internalType":"address"},{"name":"winnerAmount","type":"uint256","indexed":false,"internalType":"uint256"},{"name":"burnAmount","type":"uint256","indexed":false,"internalType":"uint256"},{"name":"treasuryAmount","type":"uint256","indexed":false,"internalType":"uint256"}],"anonymous":false},{"type":"event","name":"PoolEnded","inputs":[{"name":"gameId","type":"bytes32","indexed":true,"internalType":"bytes32"}],"anonymous":false},{"type":"event","name":"RequestFulfilled","inputs":[{"name":"requestId","type":"uint256","indexed":true,"internalType":"uint256"},{"name":"randomWords","type":"uint256[]","indexed":false,"internalType":"uint256[]"}],"anonymous":false},{"type":"event","name":"RequestSent","inputs":[{"name":"requestId","type":"uint256","indexed":true,"internalType":"uint256"},{"name":"numWords","type":"uint32","indexed":false,"internalType":"uint32"}],"anonymous":false},{"type":"event","name":"TreasuryUpdated","inputs":[{"name":"newTreasury","type":"address","indexed":false,"internalType":"address"}],"anonymous":false},{"type":"event","name":"Unpaused","inputs":[{"name":"account","type":"address","indexed":false,"internalType":"address"}],"anonymous":false},{"type":"event","name":"WinnerDrawn","inputs":[{"name":"player1","type":"address","indexed":false,"internalType":"address"},{"name":"playeer2","type":"address","indexed":false,"internalType":"address"},{"name":"wager","type":"uint256","indexed":false,"internalType":"uint256"},{"name":"result","type":"bool","indexed":false,"internalType":"bool"},{"name":"winner","type":"address","indexed":false,"internalType":"address"},{"name":"time","type":"uint256","indexed":false,"internalType":"uint256"},{"name":"reward","type":"uint256","indexed":false,"internalType":"uint256"}],"anonymous":false},{"type":"error","name":"AlreadyClaimed","inputs":[]},{"type":"error","name":"AlreadyUsed","inputs":[]},{"type":"error","name":"AmountMismatch","inputs":[]},{"type":"error","name":"AmountTooLow","inputs":[]},{"type":"error","name":"ChallengeEnded","inputs":[]},{"type":"error","name":"ChallengeInactive","inputs":[]},{"type":"error","name":"EnforcedPause","inputs":[]},{"type":"error","name":"ExpectedPause","inputs":[]},{"type":"error","name":"GameInactive","inputs":[]},{"type":"error","name":"InvalidFeeConfig","inputs":[]},{"type":"error","name":"InvalidTreasury","inputs":[]},{"type":"error","name":"NotCreator","inputs":[]},{"type":"error","name":"NotWinner","inputs":[]},{"type":"error","name":"OnlyCoordinatorCanFulfill","inputs":[{"name":"have","type":"address","internalType":"address"},{"name":"want","type":"address","internalType":"address"}]},{"type":"error","name":"OnlyOwnerOrCoordinator","inputs":[{"name":"have","type":"address","internalType":"address"},{"name":"owner","type":"address","internalType":"address"},{"name":"coordinator","type":"address","internalType":"address"}]},{"type":"error","name":"PayoutNotReady","inputs":[]},{"type":"error","name":"ReentrancyGuardReentrantCall","inputs":[]},{"type":"error","name":"RequestNotFound","inputs":[]},{"type":"error","name":"SafeERC20FailedOperation","inputs":[{"name":"token","type":"address","internalType":"address"}]},{"type":"error","name":"SameSideSelected","inputs":[]},{"type":"error","name":"SelfChallenge","inputs":[]},{"type":"error","name":"ZeroAddress","inputs":[]}],"bytecode":{"object":"0x60c06040526001600f60146101000a81548160ff02191690831515021790555034801561002a575f5ffd5b50604051615753380380615753833981810160405281019061004c91906104c0565b739ddfaca8183c41ad55329bdeed9f6a8d53168b1b33805f600180819055505f73ffffffffffffffffffffffffffffffffffffffff168273ffffffffffffffffffffffffffffffffffffffff16036100d9576040517f08c379a00000000000000000000000000000000000000000000000000000000081526004016100d090610558565b60405180910390fd5b8160025f6101000a81548173ffffffffffffffffffffffffffffffffffffffff021916908373ffffffffffffffffffffffffffffffffffffffff1602179055505f73ffffffffffffffffffffffffffffffffffffffff168173ffffffffffffffffffffffffffffffffffffffff161461015c5761015b8161030360201b60201c565b5b5050505f73ffffffffffffffffffffffffffffffffffffffff168173ffffffffffffffffffffffffffffffffffffffff16036101c4576040517fd92e233d00000000000000000000000000000000000000000000000000000000815260040160405180910390fd5b8060045f6101000a81548173ffffffffffffffffffffffffffffffffffffffff021916908373ffffffffffffffffffffffffffffffffffffffff1602179055505061dead73ffffffffffffffffffffffffffffffffffffffff168273ffffffffffffffffffffffffffffffffffffffff160361026c576040517f14bcf5c800000000000000000000000000000000000000000000000000000000815260040160405180910390fd5b81600f5f6101000a81548173ffffffffffffffffffffffffffffffffffffffff021916908373ffffffffffffffffffffffffffffffffffffffff160217905550806080818152505073779877a7b0d9e8603169ddbd7836e478b462478973ffffffffffffffffffffffffffffffffffffffff1660a08173ffffffffffffffffffffffffffffffffffffffff168152505050506105de565b3373ffffffffffffffffffffffffffffffffffffffff168173ffffffffffffffffffffffffffffffffffffffff1603610371576040517f08c379a0000000000000000000000000000000000000000000000000000000008152600401610368906105c0565b60405180910390fd5b8060035f6101000a81548173ffffffffffffffffffffffffffffffffffffffff021916908373ffffffffffffffffffffffffffffffffffffffff1602179055508073ffffffffffffffffffffffffffffffffffffffff1660025f9054906101000a900473ffffffffffffffffffffffffffffffffffffffff1673ffffffffffffffffffffffffffffffffffffffff167fed8889f560326eb138920d842192f0eb3dd22b4f139c87a2c57538e05bae127860405160405180910390a350565b5f5ffd5b5f73ffffffffffffffffffffffffffffffffffffffff82169050919050565b5f61045c82610433565b9050919050565b61046c81610452565b8114610476575f5ffd5b50565b5f8151905061048781610463565b92915050565b5f819050919050565b61049f8161048d565b81146104a9575f5ffd5b50565b5f815190506104ba81610496565b92915050565b5f5f604083850312156104d6576104d561042f565b5b5f6104e385828601610479565b92505060206104f4858286016104ac565b9150509250929050565b5f82825260208201905092915050565b7f43616e6e6f7420736574206f776e657220746f207a65726f00000000000000005f82015250565b5f6105426018836104fe565b915061054d8261050e565b602082019050919050565b5f6020820190508181035f83015261056f81610536565b9050919050565b7f43616e6e6f74207472616e7366657220746f2073656c660000000000000000005f82015250565b5f6105aa6017836104fe565b91506105b582610576565b602082019050919050565b5f6020820190508181035f8301526105d78161059e565b9050919050565b60805160a05161514d6106065f395f61108201525f818161199601526137d6015261514d5ff3fe608060405234801561000f575f5ffd5b5060043610610266575f3560e01c80637a5147751161014f578063b0fb162f116100c1578063e1b4db7111610085578063e1b4db7114610723578063ec018d6e14610741578063f0f4426014610771578063f2fde38b1461078d578063f3fef3a3146107a9578063fba2f442146107c557610266565b8063b0fb162f1461065f578063b2c553b21461067d578063b4c63471146106b3578063c1e69b66146106cf578063d526bb801461070757610266565b80638da5cb5b116101135780638da5cb5b146105a95780638ea98117146105c75780639eccacf6146105e35780639f668bba14610601578063ad6829cf14610620578063aeddb9051461062a57610266565b80637a514775146105105780637ccfd7fc146105475780637f205caa146105655780638456cb59146105815780638ac000211461058b57610266565b80633f4ba83a116101e85780635a5cfc1c116101ac5780635a5cfc1c1461045e5780635c975abb1461048e57806361728f39146104ac57806361d027b3146104ca57806370d5ae05146104e857806379ba50971461050657610266565b80633f4ba83a1461039f57806348696151146103a95780634fb3d3b1146103c85780635127953b146103f8578063520b35a21461042857610266565b8063149440d91161022f578063149440d9146102f85780631fe543e31461031757806322e8b9901461033357806324f74697146103635780632ae7543f1461038157610266565b80620476ba1461026a578063064436a11461028657806306559cf7146102a25780630f23a3c1146102ac57806312f8a6ab146102c8575b5f5ffd5b610284600480360381019061027f9190613e16565b6107e3565b005b6102a0600480360381019061029b9190613e9c565b610b8a565b005b6102aa610c7b565b005b6102c660048036038101906102c19190613f5a565b610c9f565b005b6102e260048036038101906102dd9190613fbe565b610e53565b6040516102ef9190613ff8565b60405180910390f35b610300610e8e565b60405161030e9291906140d7565b60405180910390f35b610331600480360381019061032c9190614166565b610f8a565b005b61034d600480360381019061034891906141c3565b61104e565b60405161035a9190614210565b60405180910390f35b61036b611079565b6040516103789190614247565b60405180910390f35b610389611080565b60405161039691906142bb565b60405180910390f35b6103a76110a4565b005b6103b16110b6565b6040516103bf92919061438b565b60405180910390f35b6103e260048036038101906103dd91906143b9565b611165565b6040516103ef91906143e4565b60405180910390f35b610412600480360381019061040d9190613fbe565b6111f8565b60405161041f9190614210565b60405180910390f35b610442600480360381019061043d9190614404565b611218565b604051610455979695949392919061444d565b60405180910390f35b61047860048036038101906104739190613fbe565b611299565b6040516104859190614210565b60405180910390f35b6104966112b9565b6040516104a391906144ba565b60405180910390f35b6104b46112cd565b6040516104c19190614210565b60405180910390f35b6104d26112f3565b6040516104df9190613ff8565b60405180910390f35b6104f0611318565b6040516104fd9190613ff8565b60405180910390f35b61050e61131e565b005b61052a60048036038101906105259190614404565b6114af565b60405161053e98979695949392919061457d565b60405180910390f35b61054f6116b0565b60405161055c9190614247565b60405180910390f35b61057f600480360381019061057a9190614404565b6116b5565b005b610589611982565b005b610593611994565b6040516105a091906145ff565b60405180910390f35b6105b16119b8565b6040516105be9190613ff8565b60405180910390f35b6105e160048036038101906105dc91906143b9565b6119e0565b005b6105eb611bbd565b6040516105f89190614638565b60405180910390f35b610609611be2565b60405161061792919061438b565b60405180910390f35b610628611c91565b005b610644600480360381019061063f9190614404565b611cb6565b60405161065696959493929190614651565b60405180910390f35b610667611d39565b60405161067491906146cc565b60405180910390f35b61069760048036038101906106929190614404565b611d3e565b6040516106aa97969594939291906146e5565b60405180910390f35b6106cd60048036038101906106c89190614404565b611e28565b005b6106e960048036038101906106e49190614404565b612656565b6040516106fe99989796959493929190614759565b60405180910390f35b610721600480360381019061071c9190613e16565b61282d565b005b61072b612c85565b60405161073891906145ff565b60405180910390f35b61075b60048036038101906107569190614404565b612c8a565b60405161076891906144ba565b60405180910390f35b61078b600480360381019061078691906143b9565b612ca7565b005b6107a760048036038101906107a291906143b9565b612d98565b005b6107c360048036038101906107be91906141c3565b612dac565b005b6107cd612deb565b6040516107da91906144ba565b60405180910390f35b6107eb612dfe565b6107f3612e3f565b5f60085f8581526020019081526020015f209050805f0160149054906101000a900460ff1661084e576040517fe76abfdd00000000000000000000000000000000000000000000000000000000815260040160405180910390fd5b806003015483101561088c576040517f1fbaba3500000000000000000000000000000000000000000000000000000000815260040160405180910390fd5b5f33426040516020016108a092919061489d565b6040516020818303038152906040528051906020012090508060095f8381526020019081526020015f205f01819055508460095f8381526020019081526020015f2060010181905550600160095f8381526020019081526020015f206002015f6101000a81548160ff0219169083151502179055508360095f8381526020019081526020015f20600301819055504260095f8381526020019081526020015f20600401819055506040518060e001604052803373ffffffffffffffffffffffffffffffffffffffff16815260200160011515815260200184151581526020018281526020018581526020014281526020015f81525060095f8381526020019081526020015f206006015f820151815f015f6101000a81548173ffffffffffffffffffffffffffffffffffffffff021916908373ffffffffffffffffffffffffffffffffffffffff1602179055506020820151815f0160146101000a81548160ff0219169083151502179055506040820151815f0160156101000a81548160ff021916908315150217905550606082015181600101556080820151816002015560a0820151816003015560c082015181600401559050506001600b5f8381526020019081526020015f205f6101000a81548160ff021916908315150217905550600d81908060018154018082558091505060019003905f5260205f20015f909190919091505560085f8681526020019081526020015f2060040181908060018154018082558091505060019003905f5260205f20015f9091909190915055610b2c333086855f015f9054906101000a900473ffffffffffffffffffffffffffffffffffffffff1673ffffffffffffffffffffffffffffffffffffffff16612e85909392919063ffffffff16565b3373ffffffffffffffffffffffffffffffffffffffff16817fd26ab04488ec637d788718439a7fb88013e8272c2ab9d9014cb0865365b054b386604051610b7391906145ff565b60405180910390a35050610b85612f07565b505050565b610b92612f10565b610b9a612dfe565b60648284610ba89190614900565b60ff161115610be3576040517f5601467a00000000000000000000000000000000000000000000000000000000815260040160405180910390fd5b5f60085f8681526020019081526020015f20905083815f0160156101000a81548160ff021916908360ff16021790555082815f0160166101000a81548160ff021916908360ff160217905550818160030181905550847f2a101b7c888978a6e4c9ae65e40383f0b87c7b8ca2b87dde880c5076abe7d5e1858585604051610c6c93929190614934565b60405180910390a25050505050565b610c83612f10565b5f600f60146101000a81548160ff021916908315150217905550565b610ca7612f10565b60648284610cb59190614900565b60ff161115610cf0576040517f5601467a00000000000000000000000000000000000000000000000000000000815260040160405180910390fd5b5f3342604051602001610d049291906149b3565b6040516020818303038152906040528051906020012090505f60085f8381526020019081526020015f20905085815f015f6101000a81548173ffffffffffffffffffffffffffffffffffffffff021916908373ffffffffffffffffffffffffffffffffffffffff16021790555081816001018190555084815f0160156101000a81548160ff021916908360ff16021790555083815f0160166101000a81548160ff021916908360ff1602179055508281600301819055506001815f0160146101000a81548160ff021916908315150217905550600c82908060018154018082558091505060019003905f5260205f20015f90919091909150558573ffffffffffffffffffffffffffffffffffffffff16827e06379582cf33f082958411b512c6d1b9888095de98bc1f9532e3f16533615285604051610e4391906145ff565b60405180910390a3505050505050565b600e8181548110610e62575f80fd5b905f5260205f20015f915054906101000a900473ffffffffffffffffffffffffffffffffffffffff1681565b5f6060600e8054905091508167ffffffffffffffff811115610eb357610eb26149e9565b5b604051908082528060200260200182016040528015610ee15781602001602082028036833780820191505090505b5090505f5f90505b82811015610f8557600e8181548110610f0557610f04614a16565b5b905f5260205f20015f9054906101000a900473ffffffffffffffffffffffffffffffffffffffff16828281518110610f4057610f3f614a16565b5b602002602001019073ffffffffffffffffffffffffffffffffffffffff16908173ffffffffffffffffffffffffffffffffffffffff1681525050806001019050610ee9565b509091565b60045f9054906101000a900473ffffffffffffffffffffffffffffffffffffffff1673ffffffffffffffffffffffffffffffffffffffff163373ffffffffffffffffffffffffffffffffffffffff161461103e573360045f9054906101000a900473ffffffffffffffffffffffffffffffffffffffff166040517f1cf993f4000000000000000000000000000000000000000000000000000000008152600401611035929190614a43565b60405180910390fd5b611049838383612fa1565b505050565b600a602052815f5260405f208181548110611067575f80fd5b905f5260205f20015f91509150505481565b620493e081565b7f000000000000000000000000000000000000000000000000000000000000000081565b6110ac612f10565b6110b461314f565b565b5f6060600d8054905091508167ffffffffffffffff8111156110db576110da6149e9565b5b6040519080825280602002602001820160405280156111095781602001602082028036833780820191505090505b5090505f5f90505b8281101561116057600d818154811061112d5761112c614a16565b5b905f5260205f20015482828151811061114957611148614a16565b5b602002602001018181525050806001019050611111565b509091565b6060600a5f8373ffffffffffffffffffffffffffffffffffffffff1673ffffffffffffffffffffffffffffffffffffffff1681526020019081526020015f208054806020026020016040519081016040528092919081815260200182805480156111ec57602002820191905f5260205f20905b8154815260200190600101908083116111d8575b50505050509050919050565b600d8181548110611207575f80fd5b905f5260205f20015f915090505481565b6008602052805f5260405f205f91509050805f015f9054906101000a900473ffffffffffffffffffffffffffffffffffffffff1690805f0160149054906101000a900460ff1690805f0160159054906101000a900460ff1690805f0160169054906101000a900460ff16908060010154908060020154908060030154905087565b600c81815481106112a8575f80fd5b905f5260205f20015f915090505481565b5f5f5f9054906101000a900460ff16905090565b7f787d74caea10b2b357790d5b5247c2f63d1d91572a9846f780606e4d953677ae5f1b81565b600f5f9054906101000a900473ffffffffffffffffffffffffffffffffffffffff1681565b61dead81565b60035f9054906101000a900473ffffffffffffffffffffffffffffffffffffffff1673ffffffffffffffffffffffffffffffffffffffff163373ffffffffffffffffffffffffffffffffffffffff16146113ad576040517f08c379a00000000000000000000000000000000000000000000000000000000081526004016113a490614ac4565b60405180910390fd5b5f60025f9054906101000a900473ffffffffffffffffffffffffffffffffffffffff1690503360025f6101000a81548173ffffffffffffffffffffffffffffffffffffffff021916908373ffffffffffffffffffffffffffffffffffffffff1602179055505f60035f6101000a81548173ffffffffffffffffffffffffffffffffffffffff021916908373ffffffffffffffffffffffffffffffffffffffff1602179055503373ffffffffffffffffffffffffffffffffffffffff168173ffffffffffffffffffffffffffffffffffffffff167f8be0079c531659141344cd1fd0a4f28419497f9722a3daafe3b4186f6b6457e060405160405180910390a350565b5f6114b8613c54565b6114c0613c54565b5f5f5f5f5f5f60095f8b81526020019081526020015f20905080600101548160060182600b01836002015f9054906101000a900460ff168460020160019054906101000a900460ff16856004015486600501548760030154866040518060e00160405290815f82015f9054906101000a900473ffffffffffffffffffffffffffffffffffffffff1673ffffffffffffffffffffffffffffffffffffffff1673ffffffffffffffffffffffffffffffffffffffff1681526020015f820160149054906101000a900460ff161515151581526020015f820160159054906101000a900460ff161515151581526020016001820154815260200160028201548152602001600382015481526020016004820154815250509650856040518060e00160405290815f82015f9054906101000a900473ffffffffffffffffffffffffffffffffffffffff1673ffffffffffffffffffffffffffffffffffffffff1673ffffffffffffffffffffffffffffffffffffffff1681526020015f820160149054906101000a900460ff161515151581526020015f820160159054906101000a900460ff1615151515815260200160018201548152602001600282015481526020016003820154815260200160048201548152505095509850985098509850985098509850985050919395975091939597565b600181565b6116bd612e3f565b6116c5612dfe565b5f60095f8381526020019081526020015f209050806002015f9054906101000a900460ff16611720576040517fab291b7e00000000000000000000000000000000000000000000000000000000815260040160405180910390fd5b3373ffffffffffffffffffffffffffffffffffffffff16816006015f015f9054906101000a900473ffffffffffffffffffffffffffffffffffffffff1673ffffffffffffffffffffffffffffffffffffffff16146117aa576040517f93687c0b00000000000000000000000000000000000000000000000000000000815260040160405180910390fd5b5f73ffffffffffffffffffffffffffffffffffffffff1681600b015f015f9054906101000a900473ffffffffffffffffffffffffffffffffffffffff1673ffffffffffffffffffffffffffffffffffffffff1614611834576040517f7b8c821000000000000000000000000000000000000000000000000000000000815260040160405180910390fd5b5f60085f836001015481526020019081526020015f2090506118c2826006015f015f9054906101000a900473ffffffffffffffffffffffffffffffffffffffff168360030154835f015f9054906101000a900473ffffffffffffffffffffffffffffffffffffffff1673ffffffffffffffffffffffffffffffffffffffff166131af9092919063ffffffff16565b5f826002015f6101000a81548160ff0219169083151502179055505f600b5f8581526020019081526020015f205f6101000a81548160ff021916908315150217905550611910600d8461322e565b61193160085f846001015481526020019081526020015f206004018461322e565b3373ffffffffffffffffffffffffffffffffffffffff16837f1090a8c99117fe8b8df73409cd9d66aa12ca68d21bc581873e30586c199713f860405160405180910390a3505061197f612f07565b50565b61198a612f10565b6119926132e8565b565b7f000000000000000000000000000000000000000000000000000000000000000081565b5f60025f9054906101000a900473ffffffffffffffffffffffffffffffffffffffff16905090565b6119e86119b8565b73ffffffffffffffffffffffffffffffffffffffff163373ffffffffffffffffffffffffffffffffffffffff1614158015611a70575060045f9054906101000a900473ffffffffffffffffffffffffffffffffffffffff1673ffffffffffffffffffffffffffffffffffffffff163373ffffffffffffffffffffffffffffffffffffffff1614155b15611ade5733611a7e6119b8565b60045f9054906101000a900473ffffffffffffffffffffffffffffffffffffffff166040517f061db9c1000000000000000000000000000000000000000000000000000000008152600401611ad593929190614ae2565b60405180910390fd5b5f73ffffffffffffffffffffffffffffffffffffffff168173ffffffffffffffffffffffffffffffffffffffff1603611b43576040517fd92e233d00000000000000000000000000000000000000000000000000000000815260040160405180910390fd5b8060045f6101000a81548173ffffffffffffffffffffffffffffffffffffffff021916908373ffffffffffffffffffffffffffffffffffffffff1602179055507fd1a6a14209a385a964d036e404cb5cfb71f4000cdb03c9366292430787261be681604051611bb29190613ff8565b60405180910390a150565b60045f9054906101000a900473ffffffffffffffffffffffffffffffffffffffff1681565b5f6060600c8054905091508167ffffffffffffffff811115611c0757611c066149e9565b5b604051908082528060200260200182016040528015611c355781602001602082028036833780820191505090505b5090505f5f90505b82811015611c8c57600c8181548110611c5957611c58614a16565b5b905f5260205f200154828281518110611c7557611c74614a16565b5b602002602001018181525050806001019050611c3d565b509091565b611c99612f10565b6001600f60146101000a81548160ff021916908315150217905550565b6005602052805f5260405f205f91509050805f015f9054906101000a900473ffffffffffffffffffffffffffffffffffffffff1690806001015f9054906101000a900473ffffffffffffffffffffffffffffffffffffffff16908060010160149054906101000a900460ff16908060020154908060030154908060040154905086565b600381565b5f5f5f5f60605f5f5f60085f8a81526020019081526020015f209050805f015f9054906101000a900473ffffffffffffffffffffffffffffffffffffffff16815f0160159054906101000a900460ff16825f0160169054906101000a900460ff168360020154846004018560030154865f0160149054906101000a900460ff1682805480602002602001604051908101604052809291908181526020018280548015611e0757602002820191905f5260205f20905b815481526020019060010190808311611df3575b50505050509250975097509750975097509750975050919395979092949650565b611e30612e3f565b611e38612dfe565b5f60095f8381526020019081526020015f2090505f60055f8481526020019081526020015f209050816002015f9054906101000a900460ff1615611ea8576040517fab291b7e00000000000000000000000000000000000000000000000000000000815260040160405180910390fd5b5f73ffffffffffffffffffffffffffffffffffffffff16816001015f9054906101000a900473ffffffffffffffffffffffffffffffffffffffff1673ffffffffffffffffffffffffffffffffffffffff1603611f30576040517f8662cc3600000000000000000000000000000000000000000000000000000000815260040160405180910390fd5b8060010160149054906101000a900460ff1615611f79576040517f646cf55800000000000000000000000000000000000000000000000000000000815260040160405180910390fd5b806001015f9054906101000a900473ffffffffffffffffffffffffffffffffffffffff1673ffffffffffffffffffffffffffffffffffffffff163373ffffffffffffffffffffffffffffffffffffffff1614612001576040517f618c724200000000000000000000000000000000000000000000000000000000815260040160405180910390fd5b5f815f015f9054906101000a900473ffffffffffffffffffffffffffffffffffffffff16905061205861dead83600301548373ffffffffffffffffffffffffffffffffffffffff166131af9092919063ffffffff16565b6120a8600f5f9054906101000a900473ffffffffffffffffffffffffffffffffffffffff1683600401548373ffffffffffffffffffffffffffffffffffffffff166131af9092919063ffffffff16565b6120fa826001015f9054906101000a900473ffffffffffffffffffffffffffffffffffffffff1683600201548373ffffffffffffffffffffffffffffffffffffffff166131af9092919063ffffffff16565b60018260010160146101000a81548160ff021916908315150217905550826003015460085f856001015481526020019081526020015f206002015f8282546121429190614b17565b925050819055505f600a5f856006015f015f9054906101000a900473ffffffffffffffffffffffffffffffffffffffff1673ffffffffffffffffffffffffffffffffffffffff1673ffffffffffffffffffffffffffffffffffffffff1681526020019081526020015f20805490500361223b57600e836006015f015f9054906101000a900473ffffffffffffffffffffffffffffffffffffffff16908060018154018082558091505060019003905f5260205f20015f9091909190916101000a81548173ffffffffffffffffffffffffffffffffffffffff021916908373ffffffffffffffffffffffffffffffffffffffff1602179055505b5f600a5f85600b015f015f9054906101000a900473ffffffffffffffffffffffffffffffffffffffff1673ffffffffffffffffffffffffffffffffffffffff1673ffffffffffffffffffffffffffffffffffffffff1681526020019081526020015f20805490500361232d57600e83600b015f015f9054906101000a900473ffffffffffffffffffffffffffffffffffffffff16908060018154018082558091505060019003905f5260205f20015f9091909190916101000a81548173ffffffffffffffffffffffffffffffffffffffff021916908373ffffffffffffffffffffffffffffffffffffffff1602179055505b600a5f836001015f9054906101000a900473ffffffffffffffffffffffffffffffffffffffff1673ffffffffffffffffffffffffffffffffffffffff1673ffffffffffffffffffffffffffffffffffffffff1681526020019081526020015f2084908060018154018082558091505060019003905f5260205f20015f90919091909150556123bc600d8561322e565b6123dd60085f856001015481526020019081526020015f206004018561322e565b5f600b5f8681526020019081526020015f205f6101000a81548160ff02191690831515021790555060095f8581526020019081526020015f205f5f82015f9055600182015f9055600282015f6101000a81549060ff02191690556002820160016101000a81549060ff0219169055600382015f9055600482015f9055600582015f9055600682015f5f82015f6101000a81549073ffffffffffffffffffffffffffffffffffffffff02191690555f820160146101000a81549060ff02191690555f820160156101000a81549060ff0219169055600182015f9055600282015f9055600382015f9055600482015f90555050600b82015f5f82015f6101000a81549073ffffffffffffffffffffffffffffffffffffffff02191690555f820160146101000a81549060ff02191690555f820160156101000a81549060ff0219169055600182015f9055600282015f9055600382015f9055600482015f90555050505060055f8581526020019081526020015f205f5f82015f6101000a81549073ffffffffffffffffffffffffffffffffffffffff0219169055600182015f6101000a81549073ffffffffffffffffffffffffffffffffffffffff02191690556001820160146101000a81549060ff0219169055600282015f9055600382015f9055600482015f90555050816001015f9054906101000a900473ffffffffffffffffffffffffffffffffffffffff1673ffffffffffffffffffffffffffffffffffffffff16847f8b532e8544aaba4081e6679ce58881ffd75103cdb593e8478f0fb9126ea5794484600201548560030154866004015460405161264093929190614b4a565b60405180910390a3505050612653612f07565b50565b6009602052805f5260405f205f91509050805f015490806001015490806002015f9054906101000a900460ff16908060020160019054906101000a900460ff1690806003015490806004015490806005015490806006016040518060e00160405290815f82015f9054906101000a900473ffffffffffffffffffffffffffffffffffffffff1673ffffffffffffffffffffffffffffffffffffffff1673ffffffffffffffffffffffffffffffffffffffff1681526020015f820160149054906101000a900460ff161515151581526020015f820160159054906101000a900460ff161515151581526020016001820154815260200160028201548152602001600382015481526020016004820154815250509080600b016040518060e00160405290815f82015f9054906101000a900473ffffffffffffffffffffffffffffffffffffffff1673ffffffffffffffffffffffffffffffffffffffff1673ffffffffffffffffffffffffffffffffffffffff1681526020015f820160149054906101000a900460ff161515151581526020015f820160159054906101000a900460ff16151515158152602001600182015481526020016002820154815260200160038201548152602001600482015481525050905089565b612835612dfe565b61283d612e3f565b5f60095f8581526020019081526020015f209050806002015f9054906101000a900460ff16612898576040517fab291b7e00000000000000000000000000000000000000000000000000000000815260040160405180910390fd5b3373ffffffffffffffffffffffffffffffffffffffff16816006015f015f9054906101000a900473ffffffffffffffffffffffffffffffffffffffff1673ffffffffffffffffffffffffffffffffffffffff1603612922576040517f706cd38100000000000000000000000000000000000000000000000000000000815260040160405180910390fd5b8060030154831461295f576040517f55e97b0d00000000000000000000000000000000000000000000000000000000815260040160405180910390fd5b806006015f0160159054906101000a900460ff161515821515036129af576040517fb91b3f1e00000000000000000000000000000000000000000000000000000000815260040160405180910390fd5b5f60085f836001015481526020019081526020015f2090506040518060e001604052803373ffffffffffffffffffffffffffffffffffffffff1681526020015f1515815260200184151581526020018681526020018581526020014281526020015f81525082600b015f820151815f015f6101000a81548173ffffffffffffffffffffffffffffffffffffffff021916908373ffffffffffffffffffffffffffffffffffffffff1602179055506020820151815f0160146101000a81548160ff0219169083151502179055506040820151815f0160156101000a81548160ff021916908315150217905550606082015181600101556080820151816002015560a0820151816003015560c082015181600401559050505f600b5f8781526020019081526020015f205f6101000a81548160ff021916908315150217905550612b3c333086845f015f9054906101000a900473ffffffffffffffffffffffffffffffffffffffff1673ffffffffffffffffffffffffffffffffffffffff16612e85909392919063ffffffff16565b5f1515600f60149054906101000a900460ff16151503612bd5575f600143612b649190614b7f565b4044423033604051602001612b7d959493929190614bd2565b604051602081830303815290604052805190602001205f1c9050857f98323e33bc986e61ec701a67f46e1071fcf7f175d531d954b28f705869cf69f660405160405180910390a2612bcf868286613349565b50612c27565b5f612bdf5f613763565b90508560075f8381526020019081526020015f208190555085817fa5cfcd9975444edc9ad8e9e293b6531c6f61c39d1d7a87d60e90e361ce2f8b4660405160405180910390a3505b3373ffffffffffffffffffffffffffffffffffffffff16857fa19ca1a746ff10803168821ae3f7035a09457badacd538b792bb1969db69b44486604051612c6e91906145ff565b60405180910390a35050612c80612f07565b505050565b606481565b600b602052805f5260405f205f915054906101000a900460ff1681565b612caf612f10565b612cb7612dfe565b61dead73ffffffffffffffffffffffffffffffffffffffff168173ffffffffffffffffffffffffffffffffffffffff1603612d1e576040517f14bcf5c800000000000000000000000000000000000000000000000000000000815260040160405180910390fd5b80600f5f6101000a81548173ffffffffffffffffffffffffffffffffffffffff021916908373ffffffffffffffffffffffffffffffffffffffff1602179055507f7dae230f18360d76a040c81f050aa14eb9d6dc7901b20fc5d855e2a20fe814d181604051612d8d9190613ff8565b60405180910390a150565b612da0612f10565b612da9816139ae565b50565b612db4612f10565b612dbc612dfe565b612de733828473ffffffffffffffffffffffffffffffffffffffff166131af9092919063ffffffff16565b5050565b600f60149054906101000a900460ff1681565b612e066112b9565b15612e3d576040517fd93c066500000000000000000000000000000000000000000000000000000000815260040160405180910390fd5b565b600260015403612e7b576040517f3ee5aeb500000000000000000000000000000000000000000000000000000000815260040160405180910390fd5b6002600181905550565b612f01848573ffffffffffffffffffffffffffffffffffffffff166323b872dd868686604051602401612eba93929190614c30565b604051602081830303815290604052915060e01b6020820180517bffffffffffffffffffffffffffffffffffffffffffffffffffffffff8381831617835250505050613ada565b50505050565b60018081905550565b60025f9054906101000a900473ffffffffffffffffffffffffffffffffffffffff1673ffffffffffffffffffffffffffffffffffffffff163373ffffffffffffffffffffffffffffffffffffffff1614612f9f576040517f08c379a0000000000000000000000000000000000000000000000000000000008152600401612f9690614caf565b60405180910390fd5b565b612fa9612e3f565b60065f8481526020019081526020015f205f0160019054906101000a900460ff16613000576040517f4b13b31e00000000000000000000000000000000000000000000000000000000815260040160405180910390fd5b600160065f8581526020019081526020015f205f015f6101000a81548160ff021916908315150217905550818160065f8681526020019081526020015f20600101919061304e929190613ca4565b50827ffe2e2d779dba245964d4e3ef9b994be63856fd568bf7d3ca9e224755cb1bd54d8383604051613081929190614d45565b60405180910390a25f60075f8581526020019081526020015f205490506130e58184845f8181106130b5576130b4614a16565b5b9050602002013560095f8581526020019081526020015f20600b015f0160159054906101000a900460ff16613349565b60075f8581526020019081526020015f205f905560065f8581526020019081526020015f205f5f82015f6101000a81549060ff02191690555f820160016101000a81549060ff0219169055600182015f61313f9190613cef565b50505061314a612f07565b505050565b613157613b75565b5f5f5f6101000a81548160ff0219169083151502179055507f5db9ee0a495bf2e6ff9c91a7834c1ba4fdd244a5e8aa4e537bd38aeae4b073aa613198613bb5565b6040516131a59190613ff8565b60405180910390a1565b613229838473ffffffffffffffffffffffffffffffffffffffff1663a9059cbb85856040516024016131e2929190614d67565b604051602081830303815290604052915060e01b6020820180517bffffffffffffffffffffffffffffffffffffffffffffffffffffffff8381831617835250505050613ada565b505050565b5f828054905090505f5f90505b818110156132e2578284828154811061325757613256614a16565b5b905f5260205f200154036132d557836001836132739190614b7f565b8154811061328457613283614a16565b5b905f5260205f2001548482815481106132a05761329f614a16565b5b905f5260205f200181905550838054806132bd576132bc614d8e565b5b600190038181905f5260205f20015f905590556132e2565b808060010191505061323b565b50505050565b6132f0612dfe565b60015f5f6101000a81548160ff0219169083151502179055507f62e78cea01bee320cd4e420270b5ea74000d11b0c9f74754ebdbfc544b05a258613332613bb5565b60405161333f9190613ff8565b60405180910390a1565b5f60095f8581526020019081526020015f209050806002015f9054906101000a900460ff166133a4576040517fc596169500000000000000000000000000000000000000000000000000000000815260040160405180910390fd5b5f816002015f6101000a81548160ff0219169083151502179055505f60085f836001015481526020019081526020015f2090505f826003015490505f6064835f0160159054906101000a900460ff1660ff16836134019190614dbb565b61340b9190614e29565b90505f6064845f0160169054906101000a900460ff1660ff168461342f9190614dbb565b6134399190614e29565b90505f818360028661344b9190614dbb565b6134559190614b7f565b61345f9190614b7f565b90505f6001808a161490505f8815158215151490505f816134a557886006015f015f9054906101000a900473ffffffffffffffffffffffffffffffffffffffff166134cc565b88600b015f015f9054906101000a900473ffffffffffffffffffffffffffffffffffffffff165b905081158960020160016101000a81548160ff0219169083151502179055504289600501819055506040518060c00160405280895f015f9054906101000a900473ffffffffffffffffffffffffffffffffffffffff1673ffffffffffffffffffffffffffffffffffffffff1681526020018273ffffffffffffffffffffffffffffffffffffffff1681526020015f151581526020018581526020018781526020018681525060055f8e81526020019081526020015f205f820151815f015f6101000a81548173ffffffffffffffffffffffffffffffffffffffff021916908373ffffffffffffffffffffffffffffffffffffffff1602179055506020820151816001015f6101000a81548173ffffffffffffffffffffffffffffffffffffffff021916908373ffffffffffffffffffffffffffffffffffffffff16021790555060408201518160010160146101000a81548160ff021916908315150217905550606082015181600201556080820151816003015560a082015181600401559050507f6ef12b55183948c602c4661fe105817dc7be5320f005d5548b36e508f18fef59896006015f015f9054906101000a900473ffffffffffffffffffffffffffffffffffffffff168a600b015f015f9054906101000a900473ffffffffffffffffffffffffffffffffffffffff168986858e600501548a6040516136d69796959493929190614e59565b60405180910390a18073ffffffffffffffffffffffffffffffffffffffff168c7f28ddb2bffd215d5a00b246944c24df51947bdb3b2c278060cc525fc79c42dfa88a5f015f9054906101000a900473ffffffffffffffffffffffffffffffffffffffff16878a8a60405161374d9493929190614ec6565b60405180910390a3505050505050505050505050565b5f60045f9054906101000a900473ffffffffffffffffffffffffffffffffffffffff1673ffffffffffffffffffffffffffffffffffffffff16639b1c385e6040518060c001604052807f787d74caea10b2b357790d5b5247c2f63d1d91572a9846f780606e4d953677ae5f1b81526020017f00000000000000000000000000000000000000000000000000000000000000008152602001600361ffff168152602001620493e063ffffffff168152602001600163ffffffff16815260200161383a6040518060200160405280881515815250613bbc565b8152506040518263ffffffff1660e01b8152600401613859919061501d565b6020604051808303815f875af1158015613875573d5f5f3e3d5ffd5b505050506040513d601f19601f820116820180604052508101906138999190615051565b905060405180606001604052805f151581526020016001151581526020015f67ffffffffffffffff8111156138d1576138d06149e9565b5b6040519080825280602002602001820160405280156138ff5781602001602082028036833780820191505090505b5081525060065f8381526020019081526020015f205f820151815f015f6101000a81548160ff0219169083151502179055506020820151815f0160016101000a81548160ff021916908315150217905550604082015181600101908051906020019061396c929190613d0d565b50905050807fcc58b13ad3eab50626c6a6300b1d139cd6ebb1688a7cced9461c2f7e762665ee60016040516139a19190614247565b60405180910390a2919050565b3373ffffffffffffffffffffffffffffffffffffffff168173ffffffffffffffffffffffffffffffffffffffff1603613a1c576040517f08c379a0000000000000000000000000000000000000000000000000000000008152600401613a13906150c6565b60405180910390fd5b8060035f6101000a81548173ffffffffffffffffffffffffffffffffffffffff021916908373ffffffffffffffffffffffffffffffffffffffff1602179055508073ffffffffffffffffffffffffffffffffffffffff1660025f9054906101000a900473ffffffffffffffffffffffffffffffffffffffff1673ffffffffffffffffffffffffffffffffffffffff167fed8889f560326eb138920d842192f0eb3dd22b4f139c87a2c57538e05bae127860405160405180910390a350565b5f5f60205f8451602086015f885af180613af9576040513d5f823e3d81fd5b3d92505f519150505f8214613b12576001811415613b2d565b5f8473ffffffffffffffffffffffffffffffffffffffff163b145b15613b6f57836040517f5274afe7000000000000000000000000000000000000000000000000000000008152600401613b669190613ff8565b60405180910390fd5b50505050565b613b7d6112b9565b613bb3576040517f8dfc202b00000000000000000000000000000000000000000000000000000000815260040160405180910390fd5b565b5f33905090565b60607f92fd13387c7fe7befbc38d303d6468778fb9731bc4583f17d92989c6fcfdeaaa82604051602401613bf091906150fe565b604051602081830303815290604052907bffffffffffffffffffffffffffffffffffffffffffffffffffffffff19166020820180517bffffffffffffffffffffffffffffffffffffffffffffffffffffffff83818316178352505050509050919050565b6040518060e001604052805f73ffffffffffffffffffffffffffffffffffffffff1681526020015f151581526020015f151581526020015f81526020015f81526020015f81526020015f81525090565b828054828255905f5260205f20908101928215613cde579160200282015b82811115613cdd578235825591602001919060010190613cc2565b5b509050613ceb9190613d58565b5090565b5080545f8255905f5260205f2090810190613d0a9190613d58565b50565b828054828255905f5260205f20908101928215613d47579160200282015b82811115613d46578251825591602001919060010190613d2b565b5b509050613d549190613d58565b5090565b5b80821115613d6f575f815f905550600101613d59565b5090565b5f5ffd5b5f5ffd5b5f819050919050565b613d8d81613d7b565b8114613d97575f5ffd5b50565b5f81359050613da881613d84565b92915050565b5f819050919050565b613dc081613dae565b8114613dca575f5ffd5b50565b5f81359050613ddb81613db7565b92915050565b5f8115159050919050565b613df581613de1565b8114613dff575f5ffd5b50565b5f81359050613e1081613dec565b92915050565b5f5f5f60608486031215613e2d57613e2c613d73565b5b5f613e3a86828701613d9a565b9350506020613e4b86828701613dcd565b9250506040613e5c86828701613e02565b9150509250925092565b5f60ff82169050919050565b613e7b81613e66565b8114613e85575f5ffd5b50565b5f81359050613e9681613e72565b92915050565b5f5f5f5f60808587031215613eb457613eb3613d73565b5b5f613ec187828801613d9a565b9450506020613ed287828801613e88565b9350506040613ee387828801613e88565b9250506060613ef487828801613dcd565b91505092959194509250565b5f73ffffffffffffffffffffffffffffffffffffffff82169050919050565b5f613f2982613f00565b9050919050565b613f3981613f1f565b8114613f43575f5ffd5b50565b5f81359050613f5481613f30565b92915050565b5f5f5f5f60808587031215613f7257613f71613d73565b5b5f613f7f87828801613f46565b9450506020613f9087828801613e88565b9350506040613fa187828801613e88565b9250506060613fb287828801613dcd565b91505092959194509250565b5f60208284031215613fd357613fd2613d73565b5b5f613fe084828501613dcd565b91505092915050565b613ff281613f1f565b82525050565b5f60208201905061400b5f830184613fe9565b92915050565b61401a81613dae565b82525050565b5f81519050919050565b5f82825260208201905092915050565b5f819050602082019050919050565b61405281613f1f565b82525050565b5f6140638383614049565b60208301905092915050565b5f602082019050919050565b5f61408582614020565b61408f818561402a565b935061409a8361403a565b805f5b838110156140ca5781516140b18882614058565b97506140bc8361406f565b92505060018101905061409d565b5085935050505092915050565b5f6040820190506140ea5f830185614011565b81810360208301526140fc818461407b565b90509392505050565b5f5ffd5b5f5ffd5b5f5ffd5b5f5f83601f84011261412657614125614105565b5b8235905067ffffffffffffffff81111561414357614142614109565b5b60208301915083602082028301111561415f5761415e61410d565b5b9250929050565b5f5f5f6040848603121561417d5761417c613d73565b5b5f61418a86828701613dcd565b935050602084013567ffffffffffffffff8111156141ab576141aa613d77565b5b6141b786828701614111565b92509250509250925092565b5f5f604083850312156141d9576141d8613d73565b5b5f6141e685828601613f46565b92505060206141f785828601613dcd565b9150509250929050565b61420a81613d7b565b82525050565b5f6020820190506142235f830184614201565b92915050565b5f63ffffffff82169050919050565b61424181614229565b82525050565b5f60208201905061425a5f830184614238565b92915050565b5f819050919050565b5f61428361427e61427984613f00565b614260565b613f00565b9050919050565b5f61429482614269565b9050919050565b5f6142a58261428a565b9050919050565b6142b58161429b565b82525050565b5f6020820190506142ce5f8301846142ac565b92915050565b5f81519050919050565b5f82825260208201905092915050565b5f819050602082019050919050565b61430681613d7b565b82525050565b5f61431783836142fd565b60208301905092915050565b5f602082019050919050565b5f614339826142d4565b61434381856142de565b935061434e836142ee565b805f5b8381101561437e578151614365888261430c565b975061437083614323565b925050600181019050614351565b5085935050505092915050565b5f60408201905061439e5f830185614011565b81810360208301526143b0818461432f565b90509392505050565b5f602082840312156143ce576143cd613d73565b5b5f6143db84828501613f46565b91505092915050565b5f6020820190508181035f8301526143fc818461432f565b905092915050565b5f6020828403121561441957614418613d73565b5b5f61442684828501613d9a565b91505092915050565b61443881613de1565b82525050565b61444781613e66565b82525050565b5f60e0820190506144605f83018a613fe9565b61446d602083018961442f565b61447a604083018861443e565b614487606083018761443e565b6144946080830186614201565b6144a160a0830185614011565b6144ae60c0830184614011565b98975050505050505050565b5f6020820190506144cd5f83018461442f565b92915050565b6144dc81613de1565b82525050565b6144eb81613dae565b82525050565b60e082015f8201516145055f850182614049565b50602082015161451860208501826144d3565b50604082015161452b60408501826144d3565b50606082015161453e60608501826142fd565b50608082015161455160808501826144e2565b5060a082015161456460a08501826144e2565b5060c082015161457760c08501826144e2565b50505050565b5f610280820190506145915f83018b614201565b61459e602083018a6144f1565b6145ac6101008301896144f1565b6145ba6101e083018861442f565b6145c861020083018761442f565b6145d6610220830186614011565b6145e4610240830185614011565b6145f2610260830184614011565b9998505050505050505050565b5f6020820190506146125f830184614011565b92915050565b5f6146228261428a565b9050919050565b61463281614618565b82525050565b5f60208201905061464b5f830184614629565b92915050565b5f60c0820190506146645f830189613fe9565b6146716020830188613fe9565b61467e604083018761442f565b61468b6060830186614011565b6146986080830185614011565b6146a560a0830184614011565b979650505050505050565b5f61ffff82169050919050565b6146c6816146b0565b82525050565b5f6020820190506146df5f8301846146bd565b92915050565b5f60e0820190506146f85f83018a613fe9565b614705602083018961443e565b614712604083018861443e565b61471f6060830187614011565b8181036080830152614731818661432f565b905061474060a0830185614011565b61474d60c083018461442f565b98975050505050505050565b5f6102a08201905061476d5f83018c614201565b61477a602083018b614201565b614787604083018a61442f565b614794606083018961442f565b6147a16080830188614011565b6147ae60a0830187614011565b6147bb60c0830186614011565b6147c860e08301856144f1565b6147d66101c08301846144f1565b9a9950505050505050505050565b5f81905092915050565b7f4368616c6c656e676500000000000000000000000000000000000000000000005f82015250565b5f6148226009836147e4565b915061482d826147ee565b600982019050919050565b5f8160601b9050919050565b5f61484e82614838565b9050919050565b5f61485f82614844565b9050919050565b61487761487282613f1f565b614855565b82525050565b5f819050919050565b61489761489282613dae565b61487d565b82525050565b5f6148a782614816565b91506148b38285614866565b6014820191506148c38284614886565b6020820191508190509392505050565b7f4e487b71000000000000000000000000000000000000000000000000000000005f52601160045260245ffd5b5f61490a82613e66565b915061491583613e66565b9250828201905060ff81111561492e5761492d6148d3565b5b92915050565b5f6060820190506149475f83018661443e565b614954602083018561443e565b6149616040830184614011565b949350505050565b7f47616d65506f6f6c0000000000000000000000000000000000000000000000005f82015250565b5f61499d6008836147e4565b91506149a882614969565b600882019050919050565b5f6149bd82614991565b91506149c98285614866565b6014820191506149d98284614886565b6020820191508190509392505050565b7f4e487b71000000000000000000000000000000000000000000000000000000005f52604160045260245ffd5b7f4e487b71000000000000000000000000000000000000000000000000000000005f52603260045260245ffd5b5f604082019050614a565f830185613fe9565b614a636020830184613fe9565b9392505050565b5f82825260208201905092915050565b7f4d7573742062652070726f706f736564206f776e6572000000000000000000005f82015250565b5f614aae601683614a6a565b9150614ab982614a7a565b602082019050919050565b5f6020820190508181035f830152614adb81614aa2565b9050919050565b5f606082019050614af55f830186613fe9565b614b026020830185613fe9565b614b0f6040830184613fe9565b949350505050565b5f614b2182613dae565b9150614b2c83613dae565b9250828201905080821115614b4457614b436148d3565b5b92915050565b5f606082019050614b5d5f830186614011565b614b6a6020830185614011565b614b776040830184614011565b949350505050565b5f614b8982613dae565b9150614b9483613dae565b9250828203905081811115614bac57614bab6148d3565b5b92915050565b5f819050919050565b614bcc614bc782613d7b565b614bb2565b82525050565b5f614bdd8288614bbb565b602082019150614bed8287614886565b602082019150614bfd8286614886565b602082019150614c0d8285614866565b601482019150614c1d8284614866565b6014820191508190509695505050505050565b5f606082019050614c435f830186613fe9565b614c506020830185613fe9565b614c5d6040830184614011565b949350505050565b7f4f6e6c792063616c6c61626c65206279206f776e6572000000000000000000005f82015250565b5f614c99601683614a6a565b9150614ca482614c65565b602082019050919050565b5f6020820190508181035f830152614cc681614c8d565b9050919050565b5f82825260208201905092915050565b5f5ffd5b82818337505050565b5f614cf58385614ccd565b93507f07ffffffffffffffffffffffffffffffffffffffffffffffffffffffffffffff831115614d2857614d27614cdd565b5b602083029250614d39838584614ce1565b82840190509392505050565b5f6020820190508181035f830152614d5e818486614cea565b90509392505050565b5f604082019050614d7a5f830185613fe9565b614d876020830184614011565b9392505050565b7f4e487b71000000000000000000000000000000000000000000000000000000005f52603160045260245ffd5b5f614dc582613dae565b9150614dd083613dae565b9250828202614dde81613dae565b91508282048414831517614df557614df46148d3565b5b5092915050565b7f4e487b71000000000000000000000000000000000000000000000000000000005f52601260045260245ffd5b5f614e3382613dae565b9150614e3e83613dae565b925082614e4e57614e4d614dfc565b5b828204905092915050565b5f60e082019050614e6c5f83018a613fe9565b614e796020830189613fe9565b614e866040830188614011565b614e93606083018761442f565b614ea06080830186613fe9565b614ead60a0830185614011565b614eba60c0830184614011565b98975050505050505050565b5f608082019050614ed95f830187613fe9565b614ee66020830186614011565b614ef36040830185614011565b614f006060830184614011565b95945050505050565b614f12816146b0565b82525050565b614f2181614229565b82525050565b5f81519050919050565b5f82825260208201905092915050565b8281835e5f83830152505050565b5f601f19601f8301169050919050565b5f614f6982614f27565b614f738185614f31565b9350614f83818560208601614f41565b614f8c81614f4f565b840191505092915050565b5f60c083015f830151614fac5f8601826142fd565b506020830151614fbf60208601826144e2565b506040830151614fd26040860182614f09565b506060830151614fe56060860182614f18565b506080830151614ff86080860182614f18565b5060a083015184820360a08601526150108282614f5f565b9150508091505092915050565b5f6020820190508181035f8301526150358184614f97565b905092915050565b5f8151905061504b81613db7565b92915050565b5f6020828403121561506657615065613d73565b5b5f6150738482850161503d565b91505092915050565b7f43616e6e6f74207472616e7366657220746f2073656c660000000000000000005f82015250565b5f6150b0601783614a6a565b91506150bb8261507c565b602082019050919050565b5f6020820190508181035f8301526150dd816150a4565b9050919050565b602082015f8201516150f85f8501826144d3565b50505050565b5f6020820190506151115f8301846150e4565b9291505056fea2646970667358221220539980ba806d675ad83cbda35803c20d5ad11b5d7da9679b52d5ace0df418d5164736f6c634300081e0033","linkReferences":{}},"methodIdentifiers":{"acceptOwnership()":"79ba5097","allChallengeIds(uint256)":"5127953b","allGameIds(uint256)":"5a5cfc1c","allUserAddresses(uint256)":"12f8a6ab","baseDivider()":"e1b4db71","burnAddress()":"70d5ae05","callbackGasLimit()":"24f74697","cancelChallenge(bytes32)":"7f205caa","challenges(bytes32)":"c1e69b66","claimPayout(bytes32)":"b4c63471","createChallenge(bytes32,uint256,bool)":"000476ba","createGame(address,uint8,uint8,uint256)":"0f23a3c1","enterChallenge(bytes32,uint256,bool)":"d526bb80","gamePools(bytes32)":"520b35a2","getAllUserAddress()":"149440d9","getChallengeIds()":"48696151","getChallengeInfo(bytes32)":"7a514775","getGameIds()":"9f668bba","getGameInfo(bytes32)":"b2c553b2","getUserHistory(address)":"4fb3d3b1","isActiveChallengeId(bytes32)":"ec018d6e","isVRF()":"fba2f442","keyHash()":"61728f39","linktoken()":"2ae7543f","numWords()":"7ccfd7fc","owner()":"8da5cb5b","pause()":"8456cb59","paused()":"5c975abb","payouts(bytes32)":"aeddb905","rawFulfillRandomWords(uint256,uint256[])":"1fe543e3","requestConfirmations()":"b0fb162f","s_subscriptionId()":"8ac00021","s_vrfCoordinator()":"9eccacf6","setCoordinator(address)":"8ea98117","setGameData(bytes32,uint8,uint8,uint256)":"064436a1","setTreasury(address)":"f0f44260","setVRF()":"ad6829cf","transferOwnership(address)":"f2fde38b","treasury()":"61d027b3","unpause()":"3f4ba83a","unsetVRF()":"06559cf7","userHistory(address,uint256)":"22e8b990","withdraw(address,uint256)":"f3fef3a3"},"id":39}