{"abi":[{"type":"constructor","inputs":[{"name":"_treasury","type":"address","internalType":"address"},{"name":"subscriptionId","type":"uint256","internalType":"uint256"}],"stateMutability":"nonpayable"},{"type":"function","name":"acceptOwnership","inputs":[],"outputs":[],"stateMutability":"nonpayable"},{"type":"function","name":"allChallengeIds","inputs":[{"name":"","type":"uint256","internalType":"uint256"}],"outputs":[{"name":"","type":"bytes32","internalType":"bytes32"}],"stateMutability":"view"},{"type":"function","name":"allGameIds","inputs":[{"name":"","type":"uint256","internalType":"uint256"}],"outputs":[{"name":"","type":"bytes32","internalType":"bytes32"}],"stateMutability":"view"},{"type":"function","name":"allUserAddresses","inputs":[{"name":"","type":"uint256","internalType":"uint256"}],"outputs":[{"name":"","type":"address","internalType":"address"}],"stateMutability":"view"},{"type":"function","name":"baseDivider","inputs":[],"outputs":[{"name":"","type":"uint256","internalType":"uint256"}],"stateMutability":"view"},{"type":"function","name":"burnAddress","inputs":[],"outputs":[{"name":"","type":"address","internalType":"address"}],"stateMutability":"view"},{"type":"function","name":"callbackGasLimit","inputs":[],"outputs":[{"name":"","type":"uint32","internalType":"uint32"}],"stateMutability":"view"},{"type":"function","name":"cancelChallenge","inputs":[{"name":"_challengeId","type":"bytes32","internalType":"bytes32"}],"outputs":[],"stateMutability":"nonpayable"},{"type":"function","name":"challenges","inputs":[{"name":"","type":"bytes32","internalType":"bytes32"}],"outputs":[{"name":"challengeId","type":"bytes32","internalType":"bytes32"},{"name":"gameId","type":"bytes32","internalType":"bytes32"},{"name":"isActive","type":"bool","internalType":"bool"},{"name":"result","type":"bool","internalType":"bool"},{"name":"xpAmount","type":"uint256","internalType":"uint256"},{"name":"createTime","type":"uint256","internalType":"uint256"},{"name":"drawTime","type":"uint256","internalType":"uint256"},{"name":"creator","type":"tuple","internalType":"struct WaveChallengeFlip.User","components":[{"name":"userAddress","type":"address","internalType":"address"},{"name":"isCreator","type":"bool","internalType":"bool"},{"name":"side","type":"bool","internalType":"bool"},{"name":"challengeId","type":"bytes32","internalType":"bytes32"},{"name":"xpAmount","type":"uint256","internalType":"uint256"},{"name":"betTime","type":"uint256","internalType":"uint256"},{"name":"rewardAmount","type":"uint256","internalType":"uint256"}]},{"name":"challenger","type":"tuple","internalType":"struct WaveChallengeFlip.User","components":[{"name":"userAddress","type":"address","internalType":"address"},{"name":"isCreator","type":"bool","internalType":"bool"},{"name":"side","type":"bool","internalType":"bool"},{"name":"challengeId","type":"bytes32","internalType":"bytes32"},{"name":"xpAmount","type":"uint256","internalType":"uint256"},{"name":"betTime","type":"uint256","internalType":"uint256"},{"name":"rewardAmount","type":"uint256","internalType":"uint256"}]}],"stateMutability":"view"},{"type":"function","name":"createChallenge","inputs":[{"name":"_gameId","type":"bytes32","internalType":"bytes32"},{"name":"_xpAmount","type":"uint256","internalType":"uint256"},{"name":"_side","type":"bool","internalType":"bool"}],"outputs":[],"stateMutability":"nonpayable"},{"type":"function","name":"createGame","inputs":[{"name":"_baseToken","type":"address","internalType":"address"},{"name":"_burnFee","type":"uint8","internalType":"uint8"},{"name":"_treasuryFee","type":"uint8","internalType":"uint8"},{"name":"_minTokenAmount","type":"uint256","internalType":"uint256"}],"outputs":[],"stateMutability":"nonpayable"},{"type":"function","name":"enterChallenge","inputs":[{"name":"_challengeId","type":"bytes32","internalType":"bytes32"},{"name":"_xpAmount","type":"uint256","internalType":"uint256"},{"name":"_side","type":"bool","internalType":"bool"}],"outputs":[],"stateMutability":"nonpayable"},{"type":"function","name":"gamePools","inputs":[{"name":"","type":"bytes32","internalType":"bytes32"}],"outputs":[{"name":"baseToken","type":"address","internalType":"address"},{"name":"isActive","type":"bool","internalType":"bool"},{"name":"burnFee","type":"uint8","internalType":"uint8"},{"name":"treasuryFee","type":"uint8","internalType":"uint8"},{"name":"gameId","type":"bytes32","internalType":"bytes32"},{"name":"totalXpAmount","type":"uint256","internalType":"uint256"},{"name":"minTokenAmount","type":"uint256","internalType":"uint256"}],"stateMutability":"view"},{"type":"function","name":"getAllUserAddress","inputs":[],"outputs":[{"name":"len","type":"uint256","internalType":"uint256"},{"name":"addrs","type":"address[]","internalType":"address[]"}],"stateMutability":"view"},{"type":"function","name":"getChallengeIds","inputs":[],"outputs":[{"name":"len","type":"uint256","internalType":"uint256"},{"name":"ids","type":"bytes32[]","internalType":"bytes32[]"}],"stateMutability":"view"},{"type":"function","name":"getChallengeInfo","inputs":[{"name":"_challengeId","type":"bytes32","internalType":"bytes32"}],"outputs":[{"name":"","type":"bytes32","internalType":"bytes32"},{"name":"","type":"tuple","internalType":"struct WaveChallengeFlip.User","components":[{"name":"userAddress","type":"address","internalType":"address"},{"name":"isCreator","type":"bool","internalType":"bool"},{"name":"side","type":"bool","internalType":"bool"},{"name":"challengeId","type":"bytes32","internalType":"bytes32"},{"name":"xpAmount","type":"uint256","internalType":"uint256"},{"name":"betTime","type":"uint256","internalType":"uint256"},{"name":"rewardAmount","type":"uint256","internalType":"uint256"}]},{"name":"","type":"tuple","internalType":"struct WaveChallengeFlip.User","components":[{"name":"userAddress","type":"address","internalType":"address"},{"name":"isCreator","type":"bool","internalType":"bool"},{"name":"side","type":"bool","internalType":"bool"},{"name":"challengeId","type":"bytes32","internalType":"bytes32"},{"name":"xpAmount","type":"uint256","internalType":"uint256"},{"name":"betTime","type":"uint256","internalType":"uint256"},{"name":"rewardAmount","type":"uint256","internalType":"uint256"}]},{"name":"","type":"bool","internalType":"bool"},{"name":"","type":"bool","internalType":"bool"},{"name":"","type":"uint256","internalType":"uint256"},{"name":"","type":"uint256","internalType":"uint256"},{"name":"","type":"uint256","internalType":"uint256"}],"stateMutability":"view"},{"type":"function","name":"getGameIds","inputs":[],"outputs":[{"name":"len","type":"uint256","internalType":"uint256"},{"name":"ids","type":"bytes32[]","internalType":"bytes32[]"}],"stateMutability":"view"},{"type":"function","name":"getGameInfo","inputs":[{"name":"_gameId","type":"bytes32","internalType":"bytes32"}],"outputs":[{"name":"","type":"address","internalType":"address"},{"name":"","type":"uint8","internalType":"uint8"},{"name":"","type":"uint8","internalType":"uint8"},{"name":"","type":"uint256","internalType":"uint256"},{"name":"","type":"bytes32[]","internalType":"bytes32[]"},{"name":"","type":"uint256","internalType":"uint256"},{"name":"","type":"bool","internalType":"bool"}],"stateMutability":"view"},{"type":"function","name":"getUserHistory","inputs":[{"name":"_user","type":"address","internalType":"address"}],"outputs":[{"name":"","type":"bytes32[]","internalType":"bytes32[]"}],"stateMutability":"view"},{"type":"function","name":"isActiveChallengeId","inputs":[{"name":"","type":"bytes32","internalType":"bytes32"}],"outputs":[{"name":"","type":"bool","internalType":"bool"}],"stateMutability":"view"},{"type":"function","name":"keyHash","inputs":[],"outputs":[{"name":"","type":"bytes32","internalType":"bytes32"}],"stateMutability":"view"},{"type":"function","name":"linktoken","inputs":[],"outputs":[{"name":"","type":"address","internalType":"contract IERC20"}],"stateMutability":"view"},{"type":"function","name":"numWords","inputs":[],"outputs":[{"name":"","type":"uint32","internalType":"uint32"}],"stateMutability":"view"},{"type":"function","name":"owner","inputs":[],"outputs":[{"name":"","type":"address","internalType":"address"}],"stateMutability":"view"},{"type":"function","name":"pause","inputs":[],"outputs":[],"stateMutability":"nonpayable"},{"type":"function","name":"paused","inputs":[],"outputs":[{"name":"","type":"bool","internalType":"bool"}],"stateMutability":"view"},{"type":"function","name":"rawFulfillRandomWords","inputs":[{"name":"requestId","type":"uint256","internalType":"uint256"},{"name":"randomWords","type":"uint256[]","internalType":"uint256[]"}],"outputs":[],"stateMutability":"nonpayable"},{"type":"function","name":"requestConfirmations","inputs":[],"outputs":[{"name":"","type":"uint16","internalType":"uint16"}],"stateMutability":"view"},{"type":"function","name":"s_subscriptionId","inputs":[],"outputs":[{"name":"","type":"uint256","internalType":"uint256"}],"stateMutability":"view"},{"type":"function","name":"s_vrfCoordinator","inputs":[],"outputs":[{"name":"","type":"address","internalType":"contract IVRFCoordinatorV2Plus"}],"stateMutability":"view"},{"type":"function","name":"setCoordinator","inputs":[{"name":"_vrfCoordinator","type":"address","internalType":"address"}],"outputs":[],"stateMutability":"nonpayable"},{"type":"function","name":"setGameData","inputs":[{"name":"_gameId","type":"bytes32","internalType":"bytes32"},{"name":"_burnFee","type":"uint8","internalType":"uint8"},{"name":"_treasuryFee","type":"uint8","internalType":"uint8"},{"name":"_minTokenAmount","type":"uint256","internalType":"uint256"}],"outputs":[],"stateMutability":"nonpayable"},{"type":"function","name":"setTreasury","inputs":[{"name":"_treasury","type":"address","internalType":"address"}],"outputs":[],"stateMutability":"nonpayable"},{"type":"function","name":"transferOwnership","inputs":[{"name":"to","type":"address","internalType":"address"}],"outputs":[],"stateMutability":"nonpayable"},{"type":"function","name":"treasury","inputs":[],"outputs":[{"name":"","type":"address","internalType":"address"}],"stateMutability":"view"},{"type":"function","name":"unpause","inputs":[],"outputs":[],"stateMutability":"nonpayable"},{"type":"function","name":"userHistory","inputs":[{"name":"","type":"address","internalType":"address"},{"name":"","type":"uint256","internalType":"uint256"}],"outputs":[{"name":"","type":"bytes32","internalType":"bytes32"}],"stateMutability":"view"},{"type":"function","name":"withdraw","inputs":[{"name":"_token","type":"address","internalType":"address"},{"name":"amount","type":"uint256","internalType":"uint256"}],"outputs":[],"stateMutability":"nonpayable"},{"type":"event","name":"ChallengeCancelled","inputs":[{"name":"challengeId","type":"bytes32","indexed":true,"internalType":"bytes32"},{"name":"creator","type":"address","indexed":true,"internalType":"address"}],"anonymous":false},{"type":"event","name":"ChallengeCreated","inputs":[{"name":"challengeId","type":"bytes32","indexed":true,"internalType":"bytes32"},{"name":"creator","type":"address","indexed":true,"internalType":"address"},{"name":"xpAmount","type":"uint256","indexed":false,"internalType":"uint256"}],"anonymous":false},{"type":"event","name":"ChallengeDrawRequested","inputs":[{"name":"requestId","type":"uint256","indexed":true,"internalType":"uint256"},{"name":"challengeId","type":"bytes32","indexed":true,"internalType":"bytes32"}],"anonymous":false},{"type":"event","name":"CoordinatorSet","inputs":[{"name":"vrfCoordinator","type":"address","indexed":false,"internalType":"address"}],"anonymous":false},{"type":"event","name":"EnteredChallenge","inputs":[{"name":"challengeId","type":"bytes32","indexed":true,"internalType":"bytes32"},{"name":"user","type":"address","indexed":true,"internalType":"address"},{"name":"xpAmount","type":"uint256","indexed":false,"internalType":"uint256"}],"anonymous":false},{"type":"event","name":"FallbackRandomUsed","inputs":[{"name":"challengeId","type":"bytes32","indexed":true,"internalType":"bytes32"}],"anonymous":false},{"type":"event","name":"GameCreated","inputs":[{"name":"gameId","type":"bytes32","indexed":true,"internalType":"bytes32"},{"name":"baseToken","type":"address","indexed":true,"internalType":"address"},{"name":"minTokenAmount","type":"uint256","indexed":false,"internalType":"uint256"}],"anonymous":false},{"type":"event","name":"GameDataUpdated","inputs":[{"name":"gameId","type":"bytes32","indexed":true,"internalType":"bytes32"},{"name":"burnFee","type":"uint8","indexed":false,"internalType":"uint8"},{"name":"treasuryFee","type":"uint8","indexed":false,"internalType":"uint8"},{"name":"minTokenAmount","type":"uint256","indexed":false,"internalType":"uint256"}],"anonymous":false},{"type":"event","name":"OwnershipTransferRequested","inputs":[{"name":"from","type":"address","indexed":true,"internalType":"address"},{"name":"to","type":"address","indexed":true,"internalType":"address"}],"anonymous":false},{"type":"event","name":"OwnershipTransferred","inputs":[{"name":"from","type":"address","indexed":true,"internalType":"address"},{"name":"to","type":"address","indexed":true,"internalType":"address"}],"anonymous":false},{"type":"event","name":"Paused","inputs":[{"name":"account","type":"address","indexed":false,"internalType":"address"}],"anonymous":false},{"type":"event","name":"PoolEnded","inputs":[{"name":"gameId","type":"bytes32","indexed":true,"internalType":"bytes32"}],"anonymous":false},{"type":"event","name":"RequestFulfilled","inputs":[{"name":"requestId","type":"uint256","indexed":true,"internalType":"uint256"},{"name":"randomWords","type":"uint256[]","indexed":false,"internalType":"uint256[]"}],"anonymous":false},{"type":"event","name":"RequestSent","inputs":[{"name":"requestId","type":"uint256","indexed":true,"internalType":"uint256"},{"name":"numWords","type":"uint32","indexed":false,"internalType":"uint32"}],"anonymous":false},{"type":"event","name":"TreasuryUpdated","inputs":[{"name":"newTreasury","type":"address","indexed":false,"internalType":"address"}],"anonymous":false},{"type":"event","name":"Unpaused","inputs":[{"name":"account","type":"address","indexed":false,"internalType":"address"}],"anonymous":false},{"type":"event","name":"WinnerDrawn","inputs":[{"name":"challengeId","type":"bytes32","indexed":true,"internalType":"bytes32"},{"name":"player1","type":"address","indexed":false,"internalType":"address"},{"name":"playeer2","type":"address","indexed":false,"internalType":"address"},{"name":"wager","type":"uint256","indexed":false,"internalType":"uint256"},{"name":"result","type":"bool","indexed":false,"internalType":"bool"},{"name":"winner","type":"address","indexed":false,"internalType":"address"},{"name":"time","type":"uint256","indexed":false,"internalType":"uint256"},{"name":"reward","type":"uint256","indexed":false,"internalType":"uint256"}],"anonymous":false},{"type":"error","name":"AlreadyUsed","inputs":[]},{"type":"error","name":"AmountMismatch","inputs":[]},{"type":"error","name":"AmountTooLow","inputs":[]},{"type":"error","name":"ChallengeEnded","inputs":[]},{"type":"error","name":"ChallengeInactive","inputs":[]},{"type":"error","name":"EnforcedPause","inputs":[]},{"type":"error","name":"ExpectedPause","inputs":[]},{"type":"error","name":"GameInactive","inputs":[]},{"type":"error","name":"InvalidFeeConfig","inputs":[]},{"type":"error","name":"InvalidTreasury","inputs":[]},{"type":"error","name":"NotCreator","inputs":[]},{"type":"error","name":"OnlyCoordinatorCanFulfill","inputs":[{"name":"have","type":"address","internalType":"address"},{"name":"want","type":"address","internalType":"address"}]},{"type":"error","name":"OnlyOwnerOrCoordinator","inputs":[{"name":"have","type":"address","internalType":"address"},{"name":"owner","type":"address","internalType":"address"},{"name":"coordinator","type":"address","internalType":"address"}]},{"type":"error","name":"ReentrancyGuardReentrantCall","inputs":[]},{"type":"error","name":"RequestNotFound","inputs":[]},{"type":"error","name":"SafeERC20FailedOperation","inputs":[{"name":"token","type":"address","internalType":"address"}]},{"type":"error","name":"SameSideSelected","inputs":[]},{"type":"error","name":"SelfChallenge","inputs":[]},{"type":"error","name":"ZeroAddress","inputs":[]}],"bytecode":{"object":"0x60c060405234801561000f575f5ffd5b50604051615041380380615041833981810160405281019061003191906104a5565b739ddfaca8183c41ad55329bdeed9f6a8d53168b1b33805f600180819055505f73ffffffffffffffffffffffffffffffffffffffff168273ffffffffffffffffffffffffffffffffffffffff16036100be576040517f08c379a00000000000000000000000000000000000000000000000000000000081526004016100b59061053d565b60405180910390fd5b8160025f6101000a81548173ffffffffffffffffffffffffffffffffffffffff021916908373ffffffffffffffffffffffffffffffffffffffff1602179055505f73ffffffffffffffffffffffffffffffffffffffff168173ffffffffffffffffffffffffffffffffffffffff161461014157610140816102e860201b60201c565b5b5050505f73ffffffffffffffffffffffffffffffffffffffff168173ffffffffffffffffffffffffffffffffffffffff16036101a9576040517fd92e233d00000000000000000000000000000000000000000000000000000000815260040160405180910390fd5b8060045f6101000a81548173ffffffffffffffffffffffffffffffffffffffff021916908373ffffffffffffffffffffffffffffffffffffffff1602179055505061dead73ffffffffffffffffffffffffffffffffffffffff168273ffffffffffffffffffffffffffffffffffffffff1603610251576040517f14bcf5c800000000000000000000000000000000000000000000000000000000815260040160405180910390fd5b81600e5f6101000a81548173ffffffffffffffffffffffffffffffffffffffff021916908373ffffffffffffffffffffffffffffffffffffffff160217905550806080818152505073779877a7b0d9e8603169ddbd7836e478b462478973ffffffffffffffffffffffffffffffffffffffff1660a08173ffffffffffffffffffffffffffffffffffffffff168152505050506105c3565b3373ffffffffffffffffffffffffffffffffffffffff168173ffffffffffffffffffffffffffffffffffffffff1603610356576040517f08c379a000000000000000000000000000000000000000000000000000000000815260040161034d906105a5565b60405180910390fd5b8060035f6101000a81548173ffffffffffffffffffffffffffffffffffffffff021916908373ffffffffffffffffffffffffffffffffffffffff1602179055508073ffffffffffffffffffffffffffffffffffffffff1660025f9054906101000a900473ffffffffffffffffffffffffffffffffffffffff1673ffffffffffffffffffffffffffffffffffffffff167fed8889f560326eb138920d842192f0eb3dd22b4f139c87a2c57538e05bae127860405160405180910390a350565b5f5ffd5b5f73ffffffffffffffffffffffffffffffffffffffff82169050919050565b5f61044182610418565b9050919050565b61045181610437565b811461045b575f5ffd5b50565b5f8151905061046c81610448565b92915050565b5f819050919050565b61048481610472565b811461048e575f5ffd5b50565b5f8151905061049f8161047b565b92915050565b5f5f604083850312156104bb576104ba610414565b5b5f6104c88582860161045e565b92505060206104d985828601610491565b9150509250929050565b5f82825260208201905092915050565b7f43616e6e6f7420736574206f776e657220746f207a65726f00000000000000005f82015250565b5f6105276018836104e3565b9150610532826104f3565b602082019050919050565b5f6020820190508181035f8301526105548161051b565b9050919050565b7f43616e6e6f74207472616e7366657220746f2073656c660000000000000000005f82015250565b5f61058f6017836104e3565b915061059a8261055b565b602082019050919050565b5f6020820190508181035f8301526105bc81610583565b9050919050565b60805160a051614a4f6105f25f395f8181610fa4015261218b01525f81816118b801526131af0152614a4f5ff3fe608060405234801561000f575f5ffd5b506004361061022f575f3560e01c806379ba50971161012e5780639f668bba116100b6578063e1b4db711161007a578063e1b4db7114610687578063ec018d6e146106a5578063f0f44260146106d5578063f2fde38b146106f1578063f3fef3a31461070d5761022f565b80639f668bba146105c0578063b0fb162f146105df578063b2c553b2146105fd578063c1e69b6614610633578063d526bb801461066b5761022f565b80638456cb59116100fd5780638456cb59146105405780638ac000211461054a5780638da5cb5b146105685780638ea98117146105865780639eccacf6146105a25761022f565b806379ba5097146104c55780637a514775146104cf5780637ccfd7fc146105065780637f205caa146105245761022f565b80633f4ba83a116101bc5780635a5cfc1c116101805780635a5cfc1c1461041d5780635c975abb1461044d57806361728f391461046b57806361d027b31461048957806370d5ae05146104a75761022f565b80633f4ba83a1461035e57806348696151146103685780634fb3d3b1146103875780635127953b146103b7578063520b35a2146103e75761022f565b8063149440d911610203578063149440d9146102b75780631fe543e3146102d657806322e8b990146102f257806324f74697146103225780632ae7543f146103405761022f565b80620476ba14610233578063064436a11461024f5780630f23a3c11461026b57806312f8a6ab14610287575b5f5ffd5b61024d600480360381019061024891906137ef565b610729565b005b61026960048036038101906102649190613875565b610ad0565b005b61028560048036038101906102809190613933565b610bc1565b005b6102a1600480360381019061029c9190613997565b610d75565b6040516102ae91906139d1565b60405180910390f35b6102bf610db0565b6040516102cd929190613ab0565b60405180910390f35b6102f060048036038101906102eb9190613b3f565b610eac565b005b61030c60048036038101906103079190613b9c565b610f70565b6040516103199190613be9565b60405180910390f35b61032a610f9b565b6040516103379190613c20565b60405180910390f35b610348610fa2565b6040516103559190613c94565b60405180910390f35b610366610fc6565b005b610370610fd8565b60405161037e929190613d64565b60405180910390f35b6103a1600480360381019061039c9190613d92565b611087565b6040516103ae9190613dbd565b60405180910390f35b6103d160048036038101906103cc9190613997565b61111a565b6040516103de9190613be9565b60405180910390f35b61040160048036038101906103fc9190613ddd565b61113a565b6040516104149796959493929190613e26565b60405180910390f35b61043760048036038101906104329190613997565b6111bb565b6040516104449190613be9565b60405180910390f35b6104556111db565b6040516104629190613e93565b60405180910390f35b6104736111ef565b6040516104809190613be9565b60405180910390f35b610491611215565b60405161049e91906139d1565b60405180910390f35b6104af61123a565b6040516104bc91906139d1565b60405180910390f35b6104cd611240565b005b6104e960048036038101906104e49190613ddd565b6113d1565b6040516104fd989796959493929190613f56565b60405180910390f35b61050e6115d2565b60405161051b9190613c20565b60405180910390f35b61053e60048036038101906105399190613ddd565b6115d7565b005b6105486118a4565b005b6105526118b6565b60405161055f9190613fd8565b60405180910390f35b6105706118da565b60405161057d91906139d1565b60405180910390f35b6105a0600480360381019061059b9190613d92565b611902565b005b6105aa611adf565b6040516105b79190614011565b60405180910390f35b6105c8611b04565b6040516105d6929190613d64565b60405180910390f35b6105e7611bb3565b6040516105f49190614046565b60405180910390f35b61061760048036038101906106129190613ddd565b611bb8565b60405161062a979695949392919061405f565b60405180910390f35b61064d60048036038101906106489190613ddd565b611ca2565b604051610662999897969594939291906140d3565b60405180910390f35b610685600480360381019061068091906137ef565b611e79565b005b61068f61235a565b60405161069c9190613fd8565b60405180910390f35b6106bf60048036038101906106ba9190613ddd565b61235f565b6040516106cc9190613e93565b60405180910390f35b6106ef60048036038101906106ea9190613d92565b61237c565b005b61070b60048036038101906107069190613d92565b61246d565b005b61072760048036038101906107229190613b9c565b612481565b005b6107316124c0565b610739612501565b5f60075f8581526020019081526020015f209050805f0160149054906101000a900460ff16610794576040517fe76abfdd00000000000000000000000000000000000000000000000000000000815260040160405180910390fd5b80600301548310156107d2576040517f1fbaba3500000000000000000000000000000000000000000000000000000000815260040160405180910390fd5b5f33426040516020016107e6929190614217565b6040516020818303038152906040528051906020012090508060085f8381526020019081526020015f205f01819055508460085f8381526020019081526020015f2060010181905550600160085f8381526020019081526020015f206002015f6101000a81548160ff0219169083151502179055508360085f8381526020019081526020015f20600301819055504260085f8381526020019081526020015f20600401819055506040518060e001604052803373ffffffffffffffffffffffffffffffffffffffff16815260200160011515815260200184151581526020018281526020018581526020014281526020015f81525060085f8381526020019081526020015f206006015f820151815f015f6101000a81548173ffffffffffffffffffffffffffffffffffffffff021916908373ffffffffffffffffffffffffffffffffffffffff1602179055506020820151815f0160146101000a81548160ff0219169083151502179055506040820151815f0160156101000a81548160ff021916908315150217905550606082015181600101556080820151816002015560a0820151816003015560c082015181600401559050506001600a5f8381526020019081526020015f205f6101000a81548160ff021916908315150217905550600c81908060018154018082558091505060019003905f5260205f20015f909190919091505560075f8681526020019081526020015f2060040181908060018154018082558091505060019003905f5260205f20015f9091909190915055610a72333086855f015f9054906101000a900473ffffffffffffffffffffffffffffffffffffffff1673ffffffffffffffffffffffffffffffffffffffff16612547909392919063ffffffff16565b3373ffffffffffffffffffffffffffffffffffffffff16817fd26ab04488ec637d788718439a7fb88013e8272c2ab9d9014cb0865365b054b386604051610ab99190613fd8565b60405180910390a35050610acb6125c9565b505050565b610ad86125d2565b610ae06124c0565b60648284610aee919061427a565b60ff161115610b29576040517f5601467a00000000000000000000000000000000000000000000000000000000815260040160405180910390fd5b5f60075f8681526020019081526020015f20905083815f0160156101000a81548160ff021916908360ff16021790555082815f0160166101000a81548160ff021916908360ff160217905550818160030181905550847f2a101b7c888978a6e4c9ae65e40383f0b87c7b8ca2b87dde880c5076abe7d5e1858585604051610bb2939291906142ae565b60405180910390a25050505050565b610bc96125d2565b60648284610bd7919061427a565b60ff161115610c12576040517f5601467a00000000000000000000000000000000000000000000000000000000815260040160405180910390fd5b5f3342604051602001610c2692919061432d565b6040516020818303038152906040528051906020012090505f60075f8381526020019081526020015f20905085815f015f6101000a81548173ffffffffffffffffffffffffffffffffffffffff021916908373ffffffffffffffffffffffffffffffffffffffff16021790555081816001018190555084815f0160156101000a81548160ff021916908360ff16021790555083815f0160166101000a81548160ff021916908360ff1602179055508281600301819055506001815f0160146101000a81548160ff021916908315150217905550600b82908060018154018082558091505060019003905f5260205f20015f90919091909150558573ffffffffffffffffffffffffffffffffffffffff16827e06379582cf33f082958411b512c6d1b9888095de98bc1f9532e3f16533615285604051610d659190613fd8565b60405180910390a3505050505050565b600d8181548110610d84575f80fd5b905f5260205f20015f915054906101000a900473ffffffffffffffffffffffffffffffffffffffff1681565b5f6060600d8054905091508167ffffffffffffffff811115610dd557610dd4614363565b5b604051908082528060200260200182016040528015610e035781602001602082028036833780820191505090505b5090505f5f90505b82811015610ea757600d8181548110610e2757610e26614390565b5b905f5260205f20015f9054906101000a900473ffffffffffffffffffffffffffffffffffffffff16828281518110610e6257610e61614390565b5b602002602001019073ffffffffffffffffffffffffffffffffffffffff16908173ffffffffffffffffffffffffffffffffffffffff1681525050806001019050610e0b565b509091565b60045f9054906101000a900473ffffffffffffffffffffffffffffffffffffffff1673ffffffffffffffffffffffffffffffffffffffff163373ffffffffffffffffffffffffffffffffffffffff1614610f60573360045f9054906101000a900473ffffffffffffffffffffffffffffffffffffffff166040517f1cf993f4000000000000000000000000000000000000000000000000000000008152600401610f579291906143bd565b60405180910390fd5b610f6b838383612663565b505050565b6009602052815f5260405f208181548110610f89575f80fd5b905f5260205f20015f91509150505481565b620493e081565b7f000000000000000000000000000000000000000000000000000000000000000081565b610fce6125d2565b610fd6612811565b565b5f6060600c8054905091508167ffffffffffffffff811115610ffd57610ffc614363565b5b60405190808252806020026020018201604052801561102b5781602001602082028036833780820191505090505b5090505f5f90505b8281101561108257600c818154811061104f5761104e614390565b5b905f5260205f20015482828151811061106b5761106a614390565b5b602002602001018181525050806001019050611033565b509091565b606060095f8373ffffffffffffffffffffffffffffffffffffffff1673ffffffffffffffffffffffffffffffffffffffff1681526020019081526020015f2080548060200260200160405190810160405280929190818152602001828054801561110e57602002820191905f5260205f20905b8154815260200190600101908083116110fa575b50505050509050919050565b600c8181548110611129575f80fd5b905f5260205f20015f915090505481565b6007602052805f5260405f205f91509050805f015f9054906101000a900473ffffffffffffffffffffffffffffffffffffffff1690805f0160149054906101000a900460ff1690805f0160159054906101000a900460ff1690805f0160169054906101000a900460ff16908060010154908060020154908060030154905087565b600b81815481106111ca575f80fd5b905f5260205f20015f915090505481565b5f5f5f9054906101000a900460ff16905090565b7f787d74caea10b2b357790d5b5247c2f63d1d91572a9846f780606e4d953677ae5f1b81565b600e5f9054906101000a900473ffffffffffffffffffffffffffffffffffffffff1681565b61dead81565b60035f9054906101000a900473ffffffffffffffffffffffffffffffffffffffff1673ffffffffffffffffffffffffffffffffffffffff163373ffffffffffffffffffffffffffffffffffffffff16146112cf576040517f08c379a00000000000000000000000000000000000000000000000000000000081526004016112c69061443e565b60405180910390fd5b5f60025f9054906101000a900473ffffffffffffffffffffffffffffffffffffffff1690503360025f6101000a81548173ffffffffffffffffffffffffffffffffffffffff021916908373ffffffffffffffffffffffffffffffffffffffff1602179055505f60035f6101000a81548173ffffffffffffffffffffffffffffffffffffffff021916908373ffffffffffffffffffffffffffffffffffffffff1602179055503373ffffffffffffffffffffffffffffffffffffffff168173ffffffffffffffffffffffffffffffffffffffff167f8be0079c531659141344cd1fd0a4f28419497f9722a3daafe3b4186f6b6457e060405160405180910390a350565b5f6113da61362d565b6113e261362d565b5f5f5f5f5f5f60085f8b81526020019081526020015f20905080600101548160060182600b01836002015f9054906101000a900460ff168460020160019054906101000a900460ff16856004015486600501548760030154866040518060e00160405290815f82015f9054906101000a900473ffffffffffffffffffffffffffffffffffffffff1673ffffffffffffffffffffffffffffffffffffffff1673ffffffffffffffffffffffffffffffffffffffff1681526020015f820160149054906101000a900460ff161515151581526020015f820160159054906101000a900460ff161515151581526020016001820154815260200160028201548152602001600382015481526020016004820154815250509650856040518060e00160405290815f82015f9054906101000a900473ffffffffffffffffffffffffffffffffffffffff1673ffffffffffffffffffffffffffffffffffffffff1673ffffffffffffffffffffffffffffffffffffffff1681526020015f820160149054906101000a900460ff161515151581526020015f820160159054906101000a900460ff1615151515815260200160018201548152602001600282015481526020016003820154815260200160048201548152505095509850985098509850985098509850985050919395975091939597565b600181565b6115df612501565b6115e76124c0565b5f60085f8381526020019081526020015f209050806002015f9054906101000a900460ff16611642576040517fab291b7e00000000000000000000000000000000000000000000000000000000815260040160405180910390fd5b3373ffffffffffffffffffffffffffffffffffffffff16816006015f015f9054906101000a900473ffffffffffffffffffffffffffffffffffffffff1673ffffffffffffffffffffffffffffffffffffffff16146116cc576040517f93687c0b00000000000000000000000000000000000000000000000000000000815260040160405180910390fd5b5f73ffffffffffffffffffffffffffffffffffffffff1681600b015f015f9054906101000a900473ffffffffffffffffffffffffffffffffffffffff1673ffffffffffffffffffffffffffffffffffffffff1614611756576040517f7b8c821000000000000000000000000000000000000000000000000000000000815260040160405180910390fd5b5f60075f836001015481526020019081526020015f2090506117e4826006015f015f9054906101000a900473ffffffffffffffffffffffffffffffffffffffff168360030154835f015f9054906101000a900473ffffffffffffffffffffffffffffffffffffffff1673ffffffffffffffffffffffffffffffffffffffff166128719092919063ffffffff16565b5f826002015f6101000a81548160ff0219169083151502179055505f600a5f8581526020019081526020015f205f6101000a81548160ff021916908315150217905550611832600c846128f0565b61185360075f846001015481526020019081526020015f20600401846128f0565b3373ffffffffffffffffffffffffffffffffffffffff16837f1090a8c99117fe8b8df73409cd9d66aa12ca68d21bc581873e30586c199713f860405160405180910390a350506118a16125c9565b50565b6118ac6125d2565b6118b46129aa565b565b7f000000000000000000000000000000000000000000000000000000000000000081565b5f60025f9054906101000a900473ffffffffffffffffffffffffffffffffffffffff16905090565b61190a6118da565b73ffffffffffffffffffffffffffffffffffffffff163373ffffffffffffffffffffffffffffffffffffffff1614158015611992575060045f9054906101000a900473ffffffffffffffffffffffffffffffffffffffff1673ffffffffffffffffffffffffffffffffffffffff163373ffffffffffffffffffffffffffffffffffffffff1614155b15611a0057336119a06118da565b60045f9054906101000a900473ffffffffffffffffffffffffffffffffffffffff166040517f061db9c10000000000000000000000000000000000000000000000000000000081526004016119f79392919061445c565b60405180910390fd5b5f73ffffffffffffffffffffffffffffffffffffffff168173ffffffffffffffffffffffffffffffffffffffff1603611a65576040517fd92e233d00000000000000000000000000000000000000000000000000000000815260040160405180910390fd5b8060045f6101000a81548173ffffffffffffffffffffffffffffffffffffffff021916908373ffffffffffffffffffffffffffffffffffffffff1602179055507fd1a6a14209a385a964d036e404cb5cfb71f4000cdb03c9366292430787261be681604051611ad491906139d1565b60405180910390a150565b60045f9054906101000a900473ffffffffffffffffffffffffffffffffffffffff1681565b5f6060600b8054905091508167ffffffffffffffff811115611b2957611b28614363565b5b604051908082528060200260200182016040528015611b575781602001602082028036833780820191505090505b5090505f5f90505b82811015611bae57600b8181548110611b7b57611b7a614390565b5b905f5260205f200154828281518110611b9757611b96614390565b5b602002602001018181525050806001019050611b5f565b509091565b600381565b5f5f5f5f60605f5f5f60075f8a81526020019081526020015f209050805f015f9054906101000a900473ffffffffffffffffffffffffffffffffffffffff16815f0160159054906101000a900460ff16825f0160169054906101000a900460ff168360020154846004018560030154865f0160149054906101000a900460ff1682805480602002602001604051908101604052809291908181526020018280548015611c8157602002820191905f5260205f20905b815481526020019060010190808311611c6d575b50505050509250975097509750975097509750975050919395979092949650565b6008602052805f5260405f205f91509050805f015490806001015490806002015f9054906101000a900460ff16908060020160019054906101000a900460ff1690806003015490806004015490806005015490806006016040518060e00160405290815f82015f9054906101000a900473ffffffffffffffffffffffffffffffffffffffff1673ffffffffffffffffffffffffffffffffffffffff1673ffffffffffffffffffffffffffffffffffffffff1681526020015f820160149054906101000a900460ff161515151581526020015f820160159054906101000a900460ff161515151581526020016001820154815260200160028201548152602001600382015481526020016004820154815250509080600b016040518060e00160405290815f82015f9054906101000a900473ffffffffffffffffffffffffffffffffffffffff1673ffffffffffffffffffffffffffffffffffffffff1673ffffffffffffffffffffffffffffffffffffffff1681526020015f820160149054906101000a900460ff161515151581526020015f820160159054906101000a900460ff16151515158152602001600182015481526020016002820154815260200160038201548152602001600482015481525050905089565b611e816124c0565b611e89612501565b5f60085f8581526020019081526020015f209050806002015f9054906101000a900460ff16611ee4576040517fab291b7e00000000000000000000000000000000000000000000000000000000815260040160405180910390fd5b3373ffffffffffffffffffffffffffffffffffffffff16816006015f015f9054906101000a900473ffffffffffffffffffffffffffffffffffffffff1673ffffffffffffffffffffffffffffffffffffffff1603611f6e576040517f706cd38100000000000000000000000000000000000000000000000000000000815260040160405180910390fd5b80600301548314611fab576040517f55e97b0d00000000000000000000000000000000000000000000000000000000815260040160405180910390fd5b806006015f0160159054906101000a900460ff16151582151503611ffb576040517fb91b3f1e00000000000000000000000000000000000000000000000000000000815260040160405180910390fd5b5f60075f836001015481526020019081526020015f2090506040518060e001604052803373ffffffffffffffffffffffffffffffffffffffff1681526020015f1515815260200184151581526020018681526020018581526020014281526020015f81525082600b015f820151815f015f6101000a81548173ffffffffffffffffffffffffffffffffffffffff021916908373ffffffffffffffffffffffffffffffffffffffff1602179055506020820151815f0160146101000a81548160ff0219169083151502179055506040820151815f0160156101000a81548160ff021916908315150217905550606082015181600101556080820151816002015560a0820151816003015560c082015181600401559050505f600a5f8781526020019081526020015f205f6101000a81548160ff021916908315150217905550612188333086845f015f9054906101000a900473ffffffffffffffffffffffffffffffffffffffff1673ffffffffffffffffffffffffffffffffffffffff16612547909392919063ffffffff16565b5f7f000000000000000000000000000000000000000000000000000000000000000073ffffffffffffffffffffffffffffffffffffffff166370a08231306040518263ffffffff1660e01b81526004016121e291906139d1565b602060405180830381865afa1580156121fd573d5f5f3e3d5ffd5b505050506040513d601f19601f8201168201806040525081019061222191906144a5565b90505f81036122a9575f60014361223891906144d0565b4044423033604051602001612251959493929190614523565b604051602081830303815290604052805190602001205f1c9050867f98323e33bc986e61ec701a67f46e1071fcf7f175d531d954b28f705869cf69f660405160405180910390a26122a3878287612a0b565b506122fb565b5f6122b35f61313c565b90508660065f8381526020019081526020015f208190555086817fa5cfcd9975444edc9ad8e9e293b6531c6f61c39d1d7a87d60e90e361ce2f8b4660405160405180910390a3505b3373ffffffffffffffffffffffffffffffffffffffff16867fa19ca1a746ff10803168821ae3f7035a09457badacd538b792bb1969db69b444876040516123429190613fd8565b60405180910390a35050506123556125c9565b505050565b606481565b600a602052805f5260405f205f915054906101000a900460ff1681565b6123846125d2565b61238c6124c0565b61dead73ffffffffffffffffffffffffffffffffffffffff168173ffffffffffffffffffffffffffffffffffffffff16036123f3576040517f14bcf5c800000000000000000000000000000000000000000000000000000000815260040160405180910390fd5b80600e5f6101000a81548173ffffffffffffffffffffffffffffffffffffffff021916908373ffffffffffffffffffffffffffffffffffffffff1602179055507f7dae230f18360d76a040c81f050aa14eb9d6dc7901b20fc5d855e2a20fe814d18160405161246291906139d1565b60405180910390a150565b6124756125d2565b61247e81613387565b50565b6124896125d2565b6124916124c0565b6124bc33828473ffffffffffffffffffffffffffffffffffffffff166128719092919063ffffffff16565b5050565b6124c86111db565b156124ff576040517fd93c066500000000000000000000000000000000000000000000000000000000815260040160405180910390fd5b565b60026001540361253d576040517f3ee5aeb500000000000000000000000000000000000000000000000000000000815260040160405180910390fd5b6002600181905550565b6125c3848573ffffffffffffffffffffffffffffffffffffffff166323b872dd86868660405160240161257c93929190614581565b604051602081830303815290604052915060e01b6020820180517bffffffffffffffffffffffffffffffffffffffffffffffffffffffff83818316178352505050506134b3565b50505050565b60018081905550565b60025f9054906101000a900473ffffffffffffffffffffffffffffffffffffffff1673ffffffffffffffffffffffffffffffffffffffff163373ffffffffffffffffffffffffffffffffffffffff1614612661576040517f08c379a000000000000000000000000000000000000000000000000000000000815260040161265890614600565b60405180910390fd5b565b61266b612501565b60055f8481526020019081526020015f205f0160019054906101000a900460ff166126c2576040517f4b13b31e00000000000000000000000000000000000000000000000000000000815260040160405180910390fd5b600160055f8581526020019081526020015f205f015f6101000a81548160ff021916908315150217905550818160055f8681526020019081526020015f20600101919061271092919061367d565b50827ffe2e2d779dba245964d4e3ef9b994be63856fd568bf7d3ca9e224755cb1bd54d8383604051612743929190614696565b60405180910390a25f60065f8581526020019081526020015f205490506127a78184845f81811061277757612776614390565b5b9050602002013560085f8581526020019081526020015f20600b015f0160159054906101000a900460ff16612a0b565b60065f8581526020019081526020015f205f905560055f8581526020019081526020015f205f5f82015f6101000a81549060ff02191690555f820160016101000a81549060ff0219169055600182015f61280191906136c8565b50505061280c6125c9565b505050565b61281961354e565b5f5f5f6101000a81548160ff0219169083151502179055507f5db9ee0a495bf2e6ff9c91a7834c1ba4fdd244a5e8aa4e537bd38aeae4b073aa61285a61358e565b60405161286791906139d1565b60405180910390a1565b6128eb838473ffffffffffffffffffffffffffffffffffffffff1663a9059cbb85856040516024016128a49291906146b8565b604051602081830303815290604052915060e01b6020820180517bffffffffffffffffffffffffffffffffffffffffffffffffffffffff83818316178352505050506134b3565b505050565b5f828054905090505f5f90505b818110156129a4578284828154811061291957612918614390565b5b905f5260205f20015403612997578360018361293591906144d0565b8154811061294657612945614390565b5b905f5260205f20015484828154811061296257612961614390565b5b905f5260205f2001819055508380548061297f5761297e6146df565b5b600190038181905f5260205f20015f905590556129a4565b80806001019150506128fd565b50505050565b6129b26124c0565b60015f5f6101000a81548160ff0219169083151502179055507f62e78cea01bee320cd4e420270b5ea74000d11b0c9f74754ebdbfc544b05a2586129f461358e565b604051612a0191906139d1565b60405180910390a1565b5f60085f8581526020019081526020015f209050806002015f9054906101000a900460ff16612a66576040517fc596169500000000000000000000000000000000000000000000000000000000815260040160405180910390fd5b5f816002015f6101000a81548160ff0219169083151502179055505f816003015490505f60075f846001015481526020019081526020015f2090505f6064825f0160159054906101000a900460ff1660ff1684612ac3919061470c565b612acd919061477a565b90505f6064835f0160169054906101000a900460ff1660ff1685612af1919061470c565b612afb919061477a565b90505f8183600287612b0d919061470c565b612b1791906144d0565b612b2191906144d0565b9050612b7261dead84865f015f9054906101000a900473ffffffffffffffffffffffffffffffffffffffff1673ffffffffffffffffffffffffffffffffffffffff166128719092919063ffffffff16565b612be0600e5f9054906101000a900473ffffffffffffffffffffffffffffffffffffffff1683865f015f9054906101000a900473ffffffffffffffffffffffffffffffffffffffff1673ffffffffffffffffffffffffffffffffffffffff166128719092919063ffffffff16565b5f60095f88600b015f015f9054906101000a900473ffffffffffffffffffffffffffffffffffffffff1673ffffffffffffffffffffffffffffffffffffffff1673ffffffffffffffffffffffffffffffffffffffff1681526020019081526020015f208054905003612cd257600d86600b015f015f9054906101000a900473ffffffffffffffffffffffffffffffffffffffff16908060018154018082558091505060019003905f5260205f20015f9091909190916101000a81548173ffffffffffffffffffffffffffffffffffffffff021916908373ffffffffffffffffffffffffffffffffffffffff1602179055505b5f60095f886006015f015f9054906101000a900473ffffffffffffffffffffffffffffffffffffffff1673ffffffffffffffffffffffffffffffffffffffff1673ffffffffffffffffffffffffffffffffffffffff1681526020019081526020015f208054905003612dc457600d866006015f015f9054906101000a900473ffffffffffffffffffffffffffffffffffffffff16908060018154018082558091505060019003905f5260205f20015f9091909190916101000a81548173ffffffffffffffffffffffffffffffffffffffff021916908373ffffffffffffffffffffffffffffffffffffffff1602179055505b5f6001808a161490505f8815158215151490505f8115612f2b578389600b01600401819055505f8960020160016101000a81548160ff021916908315150217905550612e7889600b015f015f9054906101000a900473ffffffffffffffffffffffffffffffffffffffff1685895f015f9054906101000a900473ffffffffffffffffffffffffffffffffffffffff1673ffffffffffffffffffffffffffffffffffffffff166128719092919063ffffffff16565b60095f8a600b015f015f9054906101000a900473ffffffffffffffffffffffffffffffffffffffff1673ffffffffffffffffffffffffffffffffffffffff1673ffffffffffffffffffffffffffffffffffffffff1681526020019081526020015f208c908060018154018082558091505060019003905f5260205f20015f909190919091505588600b015f015f9054906101000a900473ffffffffffffffffffffffffffffffffffffffff169050613075565b83896006016004018190555060018960020160016101000a81548160ff021916908315150217905550612fc6896006015f015f9054906101000a900473ffffffffffffffffffffffffffffffffffffffff1685895f015f9054906101000a900473ffffffffffffffffffffffffffffffffffffffff1673ffffffffffffffffffffffffffffffffffffffff166128719092919063ffffffff16565b60095f8a6006015f015f9054906101000a900473ffffffffffffffffffffffffffffffffffffffff1673ffffffffffffffffffffffffffffffffffffffff1673ffffffffffffffffffffffffffffffffffffffff1681526020019081526020015f208c908060018154018082558091505060019003905f5260205f20015f9091909190915055886006015f015f9054906101000a900473ffffffffffffffffffffffffffffffffffffffff1690505b42896005018190555087876002015f82825461309191906147aa565b925050819055508b7fb85ce83b27ea93209b6283265b3aa834eab6e5505c7d867654f1e089baf424ec8a6006015f015f9054906101000a900473ffffffffffffffffffffffffffffffffffffffff168b600b015f015f9054906101000a900473ffffffffffffffffffffffffffffffffffffffff168c6003015487868f600501548b60405161312697969594939291906147dd565b60405180910390a2505050505050505050505050565b5f60045f9054906101000a900473ffffffffffffffffffffffffffffffffffffffff1673ffffffffffffffffffffffffffffffffffffffff16639b1c385e6040518060c001604052807f787d74caea10b2b357790d5b5247c2f63d1d91572a9846f780606e4d953677ae5f1b81526020017f00000000000000000000000000000000000000000000000000000000000000008152602001600361ffff168152602001620493e063ffffffff168152602001600163ffffffff1681526020016132136040518060200160405280881515815250613595565b8152506040518263ffffffff1660e01b8152600401613232919061495e565b6020604051808303815f875af115801561324e573d5f5f3e3d5ffd5b505050506040513d601f19601f8201168201806040525081019061327291906144a5565b905060405180606001604052805f151581526020016001151581526020015f67ffffffffffffffff8111156132aa576132a9614363565b5b6040519080825280602002602001820160405280156132d85781602001602082028036833780820191505090505b5081525060055f8381526020019081526020015f205f820151815f015f6101000a81548160ff0219169083151502179055506020820151815f0160016101000a81548160ff02191690831515021790555060408201518160010190805190602001906133459291906136e6565b50905050807fcc58b13ad3eab50626c6a6300b1d139cd6ebb1688a7cced9461c2f7e762665ee600160405161337a9190613c20565b60405180910390a2919050565b3373ffffffffffffffffffffffffffffffffffffffff168173ffffffffffffffffffffffffffffffffffffffff16036133f5576040517f08c379a00000000000000000000000000000000000000000000000000000000081526004016133ec906149c8565b60405180910390fd5b8060035f6101000a81548173ffffffffffffffffffffffffffffffffffffffff021916908373ffffffffffffffffffffffffffffffffffffffff1602179055508073ffffffffffffffffffffffffffffffffffffffff1660025f9054906101000a900473ffffffffffffffffffffffffffffffffffffffff1673ffffffffffffffffffffffffffffffffffffffff167fed8889f560326eb138920d842192f0eb3dd22b4f139c87a2c57538e05bae127860405160405180910390a350565b5f5f60205f8451602086015f885af1806134d2576040513d5f823e3d81fd5b3d92505f519150505f82146134eb576001811415613506565b5f8473ffffffffffffffffffffffffffffffffffffffff163b145b1561354857836040517f5274afe700000000000000000000000000000000000000000000000000000000815260040161353f91906139d1565b60405180910390fd5b50505050565b6135566111db565b61358c576040517f8dfc202b00000000000000000000000000000000000000000000000000000000815260040160405180910390fd5b565b5f33905090565b60607f92fd13387c7fe7befbc38d303d6468778fb9731bc4583f17d92989c6fcfdeaaa826040516024016135c99190614a00565b604051602081830303815290604052907bffffffffffffffffffffffffffffffffffffffffffffffffffffffff19166020820180517bffffffffffffffffffffffffffffffffffffffffffffffffffffffff83818316178352505050509050919050565b6040518060e001604052805f73ffffffffffffffffffffffffffffffffffffffff1681526020015f151581526020015f151581526020015f81526020015f81526020015f81526020015f81525090565b828054828255905f5260205f209081019282156136b7579160200282015b828111156136b657823582559160200191906001019061369b565b5b5090506136c49190613731565b5090565b5080545f8255905f5260205f20908101906136e39190613731565b50565b828054828255905f5260205f20908101928215613720579160200282015b8281111561371f578251825591602001919060010190613704565b5b50905061372d9190613731565b5090565b5b80821115613748575f815f905550600101613732565b5090565b5f5ffd5b5f5ffd5b5f819050919050565b61376681613754565b8114613770575f5ffd5b50565b5f813590506137818161375d565b92915050565b5f819050919050565b61379981613787565b81146137a3575f5ffd5b50565b5f813590506137b481613790565b92915050565b5f8115159050919050565b6137ce816137ba565b81146137d8575f5ffd5b50565b5f813590506137e9816137c5565b92915050565b5f5f5f606084860312156138065761380561374c565b5b5f61381386828701613773565b9350506020613824868287016137a6565b9250506040613835868287016137db565b9150509250925092565b5f60ff82169050919050565b6138548161383f565b811461385e575f5ffd5b50565b5f8135905061386f8161384b565b92915050565b5f5f5f5f6080858703121561388d5761388c61374c565b5b5f61389a87828801613773565b94505060206138ab87828801613861565b93505060406138bc87828801613861565b92505060606138cd878288016137a6565b91505092959194509250565b5f73ffffffffffffffffffffffffffffffffffffffff82169050919050565b5f613902826138d9565b9050919050565b613912816138f8565b811461391c575f5ffd5b50565b5f8135905061392d81613909565b92915050565b5f5f5f5f6080858703121561394b5761394a61374c565b5b5f6139588782880161391f565b945050602061396987828801613861565b935050604061397a87828801613861565b925050606061398b878288016137a6565b91505092959194509250565b5f602082840312156139ac576139ab61374c565b5b5f6139b9848285016137a6565b91505092915050565b6139cb816138f8565b82525050565b5f6020820190506139e45f8301846139c2565b92915050565b6139f381613787565b82525050565b5f81519050919050565b5f82825260208201905092915050565b5f819050602082019050919050565b613a2b816138f8565b82525050565b5f613a3c8383613a22565b60208301905092915050565b5f602082019050919050565b5f613a5e826139f9565b613a688185613a03565b9350613a7383613a13565b805f5b83811015613aa3578151613a8a8882613a31565b9750613a9583613a48565b925050600181019050613a76565b5085935050505092915050565b5f604082019050613ac35f8301856139ea565b8181036020830152613ad58184613a54565b90509392505050565b5f5ffd5b5f5ffd5b5f5ffd5b5f5f83601f840112613aff57613afe613ade565b5b8235905067ffffffffffffffff811115613b1c57613b1b613ae2565b5b602083019150836020820283011115613b3857613b37613ae6565b5b9250929050565b5f5f5f60408486031215613b5657613b5561374c565b5b5f613b63868287016137a6565b935050602084013567ffffffffffffffff811115613b8457613b83613750565b5b613b9086828701613aea565b92509250509250925092565b5f5f60408385031215613bb257613bb161374c565b5b5f613bbf8582860161391f565b9250506020613bd0858286016137a6565b9150509250929050565b613be381613754565b82525050565b5f602082019050613bfc5f830184613bda565b92915050565b5f63ffffffff82169050919050565b613c1a81613c02565b82525050565b5f602082019050613c335f830184613c11565b92915050565b5f819050919050565b5f613c5c613c57613c52846138d9565b613c39565b6138d9565b9050919050565b5f613c6d82613c42565b9050919050565b5f613c7e82613c63565b9050919050565b613c8e81613c74565b82525050565b5f602082019050613ca75f830184613c85565b92915050565b5f81519050919050565b5f82825260208201905092915050565b5f819050602082019050919050565b613cdf81613754565b82525050565b5f613cf08383613cd6565b60208301905092915050565b5f602082019050919050565b5f613d1282613cad565b613d1c8185613cb7565b9350613d2783613cc7565b805f5b83811015613d57578151613d3e8882613ce5565b9750613d4983613cfc565b925050600181019050613d2a565b5085935050505092915050565b5f604082019050613d775f8301856139ea565b8181036020830152613d898184613d08565b90509392505050565b5f60208284031215613da757613da661374c565b5b5f613db48482850161391f565b91505092915050565b5f6020820190508181035f830152613dd58184613d08565b905092915050565b5f60208284031215613df257613df161374c565b5b5f613dff84828501613773565b91505092915050565b613e11816137ba565b82525050565b613e208161383f565b82525050565b5f60e082019050613e395f83018a6139c2565b613e466020830189613e08565b613e536040830188613e17565b613e606060830187613e17565b613e6d6080830186613bda565b613e7a60a08301856139ea565b613e8760c08301846139ea565b98975050505050505050565b5f602082019050613ea65f830184613e08565b92915050565b613eb5816137ba565b82525050565b613ec481613787565b82525050565b60e082015f820151613ede5f850182613a22565b506020820151613ef16020850182613eac565b506040820151613f046040850182613eac565b506060820151613f176060850182613cd6565b506080820151613f2a6080850182613ebb565b5060a0820151613f3d60a0850182613ebb565b5060c0820151613f5060c0850182613ebb565b50505050565b5f61028082019050613f6a5f83018b613bda565b613f77602083018a613eca565b613f85610100830189613eca565b613f936101e0830188613e08565b613fa1610200830187613e08565b613faf6102208301866139ea565b613fbd6102408301856139ea565b613fcb6102608301846139ea565b9998505050505050505050565b5f602082019050613feb5f8301846139ea565b92915050565b5f613ffb82613c63565b9050919050565b61400b81613ff1565b82525050565b5f6020820190506140245f830184614002565b92915050565b5f61ffff82169050919050565b6140408161402a565b82525050565b5f6020820190506140595f830184614037565b92915050565b5f60e0820190506140725f83018a6139c2565b61407f6020830189613e17565b61408c6040830188613e17565b61409960608301876139ea565b81810360808301526140ab8186613d08565b90506140ba60a08301856139ea565b6140c760c0830184613e08565b98975050505050505050565b5f6102a0820190506140e75f83018c613bda565b6140f4602083018b613bda565b614101604083018a613e08565b61410e6060830189613e08565b61411b60808301886139ea565b61412860a08301876139ea565b61413560c08301866139ea565b61414260e0830185613eca565b6141506101c0830184613eca565b9a9950505050505050505050565b5f81905092915050565b7f4368616c6c656e676500000000000000000000000000000000000000000000005f82015250565b5f61419c60098361415e565b91506141a782614168565b600982019050919050565b5f8160601b9050919050565b5f6141c8826141b2565b9050919050565b5f6141d9826141be565b9050919050565b6141f16141ec826138f8565b6141cf565b82525050565b5f819050919050565b61421161420c82613787565b6141f7565b82525050565b5f61422182614190565b915061422d82856141e0565b60148201915061423d8284614200565b6020820191508190509392505050565b7f4e487b71000000000000000000000000000000000000000000000000000000005f52601160045260245ffd5b5f6142848261383f565b915061428f8361383f565b9250828201905060ff8111156142a8576142a761424d565b5b92915050565b5f6060820190506142c15f830186613e17565b6142ce6020830185613e17565b6142db60408301846139ea565b949350505050565b7f47616d65506f6f6c0000000000000000000000000000000000000000000000005f82015250565b5f61431760088361415e565b9150614322826142e3565b600882019050919050565b5f6143378261430b565b915061434382856141e0565b6014820191506143538284614200565b6020820191508190509392505050565b7f4e487b71000000000000000000000000000000000000000000000000000000005f52604160045260245ffd5b7f4e487b71000000000000000000000000000000000000000000000000000000005f52603260045260245ffd5b5f6040820190506143d05f8301856139c2565b6143dd60208301846139c2565b9392505050565b5f82825260208201905092915050565b7f4d7573742062652070726f706f736564206f776e6572000000000000000000005f82015250565b5f6144286016836143e4565b9150614433826143f4565b602082019050919050565b5f6020820190508181035f8301526144558161441c565b9050919050565b5f60608201905061446f5f8301866139c2565b61447c60208301856139c2565b61448960408301846139c2565b949350505050565b5f8151905061449f81613790565b92915050565b5f602082840312156144ba576144b961374c565b5b5f6144c784828501614491565b91505092915050565b5f6144da82613787565b91506144e583613787565b92508282039050818111156144fd576144fc61424d565b5b92915050565b5f819050919050565b61451d61451882613754565b614503565b82525050565b5f61452e828861450c565b60208201915061453e8287614200565b60208201915061454e8286614200565b60208201915061455e82856141e0565b60148201915061456e82846141e0565b6014820191508190509695505050505050565b5f6060820190506145945f8301866139c2565b6145a160208301856139c2565b6145ae60408301846139ea565b949350505050565b7f4f6e6c792063616c6c61626c65206279206f776e6572000000000000000000005f82015250565b5f6145ea6016836143e4565b91506145f5826145b6565b602082019050919050565b5f6020820190508181035f830152614617816145de565b9050919050565b5f82825260208201905092915050565b5f5ffd5b82818337505050565b5f614646838561461e565b93507f07ffffffffffffffffffffffffffffffffffffffffffffffffffffffffffffff8311156146795761467861462e565b5b60208302925061468a838584614632565b82840190509392505050565b5f6020820190508181035f8301526146af81848661463b565b90509392505050565b5f6040820190506146cb5f8301856139c2565b6146d860208301846139ea565b9392505050565b7f4e487b71000000000000000000000000000000000000000000000000000000005f52603160045260245ffd5b5f61471682613787565b915061472183613787565b925082820261472f81613787565b915082820484148315176147465761474561424d565b5b5092915050565b7f4e487b71000000000000000000000000000000000000000000000000000000005f52601260045260245ffd5b5f61478482613787565b915061478f83613787565b92508261479f5761479e61474d565b5b828204905092915050565b5f6147b482613787565b91506147bf83613787565b92508282019050808211156147d7576147d661424d565b5b92915050565b5f60e0820190506147f05f83018a6139c2565b6147fd60208301896139c2565b61480a60408301886139ea565b6148176060830187613e08565b61482460808301866139c2565b61483160a08301856139ea565b61483e60c08301846139ea565b98975050505050505050565b6148538161402a565b82525050565b61486281613c02565b82525050565b5f81519050919050565b5f82825260208201905092915050565b8281835e5f83830152505050565b5f601f19601f8301169050919050565b5f6148aa82614868565b6148b48185614872565b93506148c4818560208601614882565b6148cd81614890565b840191505092915050565b5f60c083015f8301516148ed5f860182613cd6565b5060208301516149006020860182613ebb565b506040830151614913604086018261484a565b5060608301516149266060860182614859565b5060808301516149396080860182614859565b5060a083015184820360a086015261495182826148a0565b9150508091505092915050565b5f6020820190508181035f83015261497681846148d8565b905092915050565b7f43616e6e6f74207472616e7366657220746f2073656c660000000000000000005f82015250565b5f6149b26017836143e4565b91506149bd8261497e565b602082019050919050565b5f6020820190508181035f8301526149df816149a6565b9050919050565b602082015f8201516149fa5f850182613eac565b50505050565b5f602082019050614a135f8301846149e6565b9291505056fea264697066735822122089daf286f1b664cd654ed1845f3bef9d3f3b600f8a3765d9fd3b9bd9bf8b493f64736f6c634300081e0033","linkReferences":{}},"methodIdentifiers":{"acceptOwnership()":"79ba5097","allChallengeIds(uint256)":"5127953b","allGameIds(uint256)":"5a5cfc1c","allUserAddresses(uint256)":"12f8a6ab","baseDivider()":"e1b4db71","burnAddress()":"70d5ae05","callbackGasLimit()":"24f74697","cancelChallenge(bytes32)":"7f205caa","challenges(bytes32)":"c1e69b66","createChallenge(bytes32,uint256,bool)":"000476ba","createGame(address,uint8,uint8,uint256)":"0f23a3c1","enterChallenge(bytes32,uint256,bool)":"d526bb80","gamePools(bytes32)":"520b35a2","getAllUserAddress()":"149440d9","getChallengeIds()":"48696151","getChallengeInfo(bytes32)":"7a514775","getGameIds()":"9f668bba","getGameInfo(bytes32)":"b2c553b2","getUserHistory(address)":"4fb3d3b1","isActiveChallengeId(bytes32)":"ec018d6e","keyHash()":"61728f39","linktoken()":"2ae7543f","numWords()":"7ccfd7fc","owner()":"8da5cb5b","pause()":"8456cb59","paused()":"5c975abb","rawFulfillRandomWords(uint256,uint256[])":"1fe543e3","requestConfirmations()":"b0fb162f","s_subscriptionId()":"8ac00021","s_vrfCoordinator()":"9eccacf6","setCoordinator(address)":"8ea98117","setGameData(bytes32,uint8,uint8,uint256)":"064436a1","setTreasury(address)":"f0f44260","transferOwnership(address)":"f2fde38b","treasury()":"61d027b3","unpause()":"3f4ba83a","userHistory(address,uint256)":"22e8b990","withdraw(address,uint256)":"f3fef3a3"},"id":34}