{"abi":[{"type":"constructor","inputs":[{"name":"_treasury","type":"address","internalType":"address"},{"name":"subscriptionId","type":"uint256","internalType":"uint256"}],"stateMutability":"nonpayable"},{"type":"function","name":"acceptOwnership","inputs":[],"outputs":[],"stateMutability":"nonpayable"},{"type":"function","name":"burnAddress","inputs":[],"outputs":[{"name":"","type":"address","internalType":"address"}],"stateMutability":"view"},{"type":"function","name":"callbackGasLimit","inputs":[],"outputs":[{"name":"","type":"uint32","internalType":"uint32"}],"stateMutability":"view"},{"type":"function","name":"createPool","inputs":[{"name":"_baseToken","type":"address","internalType":"address"},{"name":"_burnFee","type":"uint8","internalType":"uint8"},{"name":"_treasuryFee","type":"uint8","internalType":"uint8"},{"name":"_limitAmount","type":"uint256","internalType":"uint256"},{"name":"_limitTime","type":"uint256","internalType":"uint256"},{"name":"_ticketPrice","type":"uint256","internalType":"uint256"}],"outputs":[],"stateMutability":"nonpayable"},{"type":"function","name":"enterPool","inputs":[{"name":"_poolId","type":"uint40","internalType":"uint40"},{"name":"_xpAmount","type":"uint256","internalType":"uint256"}],"outputs":[],"stateMutability":"nonpayable"},{"type":"function","name":"getPoolInfo","inputs":[{"name":"_poolId","type":"uint256","internalType":"uint256"}],"outputs":[{"name":"baseToken","type":"address","internalType":"address"},{"name":"burnFee","type":"uint8","internalType":"uint8"},{"name":"treasuryFee","type":"uint8","internalType":"uint8"},{"name":"totalXpAmount","type":"uint256","internalType":"uint256"},{"name":"winner","type":"tuple","internalType":"struct WavePrizePool.User","components":[{"name":"user","type":"address","internalType":"address"},{"name":"xpAmount","type":"uint256","internalType":"uint256"},{"name":"betTime","type":"uint256","internalType":"uint256"},{"name":"rewardAmount","type":"uint256","internalType":"uint256"},{"name":"poolId","type":"uint40","internalType":"uint40"}]},{"name":"users","type":"tuple[]","internalType":"struct WavePrizePool.User[]","components":[{"name":"user","type":"address","internalType":"address"},{"name":"xpAmount","type":"uint256","internalType":"uint256"},{"name":"betTime","type":"uint256","internalType":"uint256"},{"name":"rewardAmount","type":"uint256","internalType":"uint256"},{"name":"poolId","type":"uint40","internalType":"uint40"}]},{"name":"limitAmount","type":"uint256","internalType":"uint256"},{"name":"limitTime","type":"uint256","internalType":"uint256"},{"name":"ticketPrice","type":"uint256","internalType":"uint256"},{"name":"startTime","type":"uint256","internalType":"uint256"},{"name":"isActive","type":"bool","internalType":"bool"}],"stateMutability":"view"},{"type":"function","name":"getRequestStatus","inputs":[{"name":"_requestId","type":"uint256","internalType":"uint256"}],"outputs":[{"name":"fulfilled","type":"bool","internalType":"bool"},{"name":"randomWords","type":"uint256[]","internalType":"uint256[]"}],"stateMutability":"view"},{"type":"function","name":"getUserHistory","inputs":[{"name":"_user","type":"address","internalType":"address"}],"outputs":[{"name":"history","type":"tuple[]","internalType":"struct WavePrizePool.User[]","components":[{"name":"user","type":"address","internalType":"address"},{"name":"xpAmount","type":"uint256","internalType":"uint256"},{"name":"betTime","type":"uint256","internalType":"uint256"},{"name":"rewardAmount","type":"uint256","internalType":"uint256"},{"name":"poolId","type":"uint40","internalType":"uint40"}]}],"stateMutability":"view"},{"type":"function","name":"keyHash","inputs":[],"outputs":[{"name":"","type":"bytes32","internalType":"bytes32"}],"stateMutability":"view"},{"type":"function","name":"lastDrawnNumber","inputs":[],"outputs":[{"name":"","type":"uint256","internalType":"uint256"}],"stateMutability":"view"},{"type":"function","name":"lastRequestId","inputs":[],"outputs":[{"name":"","type":"uint256","internalType":"uint256"}],"stateMutability":"view"},{"type":"function","name":"numWords","inputs":[],"outputs":[{"name":"","type":"uint32","internalType":"uint32"}],"stateMutability":"view"},{"type":"function","name":"owner","inputs":[],"outputs":[{"name":"","type":"address","internalType":"address"}],"stateMutability":"view"},{"type":"function","name":"paused","inputs":[],"outputs":[{"name":"","type":"bool","internalType":"bool"}],"stateMutability":"view"},{"type":"function","name":"rawFulfillRandomWords","inputs":[{"name":"requestId","type":"uint256","internalType":"uint256"},{"name":"randomWords","type":"uint256[]","internalType":"uint256[]"}],"outputs":[],"stateMutability":"nonpayable"},{"type":"function","name":"requestConfirmations","inputs":[],"outputs":[{"name":"","type":"uint16","internalType":"uint16"}],"stateMutability":"view"},{"type":"function","name":"requestIdToPoolId","inputs":[{"name":"","type":"uint256","internalType":"uint256"}],"outputs":[{"name":"","type":"uint256","internalType":"uint256"}],"stateMutability":"view"},{"type":"function","name":"requestIds","inputs":[{"name":"","type":"uint256","internalType":"uint256"}],"outputs":[{"name":"","type":"uint256","internalType":"uint256"}],"stateMutability":"view"},{"type":"function","name":"s_requests","inputs":[{"name":"","type":"uint256","internalType":"uint256"}],"outputs":[{"name":"fulfilled","type":"bool","internalType":"bool"},{"name":"exists","type":"bool","internalType":"bool"}],"stateMutability":"view"},{"type":"function","name":"s_subscriptionId","inputs":[],"outputs":[{"name":"","type":"uint256","internalType":"uint256"}],"stateMutability":"view"},{"type":"function","name":"s_vrfCoordinator","inputs":[],"outputs":[{"name":"","type":"address","internalType":"contract IVRFCoordinatorV2Plus"}],"stateMutability":"view"},{"type":"function","name":"setCallbackGasLimit","inputs":[{"name":"_limit","type":"uint32","internalType":"uint32"}],"outputs":[],"stateMutability":"nonpayable"},{"type":"function","name":"setCoordinator","inputs":[{"name":"_vrfCoordinator","type":"address","internalType":"address"}],"outputs":[],"stateMutability":"nonpayable"},{"type":"function","name":"setPoolData","inputs":[{"name":"_poolId","type":"uint256","internalType":"uint256"},{"name":"_burnFee","type":"uint8","internalType":"uint8"},{"name":"_treasuryFee","type":"uint8","internalType":"uint8"},{"name":"_limitAmount","type":"uint256","internalType":"uint256"},{"name":"_limitTime","type":"uint256","internalType":"uint256"},{"name":"_ticketPrice","type":"uint256","internalType":"uint256"}],"outputs":[],"stateMutability":"nonpayable"},{"type":"function","name":"setTreasury","inputs":[{"name":"_treasury","type":"address","internalType":"address"}],"outputs":[],"stateMutability":"nonpayable"},{"type":"function","name":"transferOwnership","inputs":[{"name":"to","type":"address","internalType":"address"}],"outputs":[],"stateMutability":"nonpayable"},{"type":"function","name":"treasury","inputs":[],"outputs":[{"name":"","type":"address","internalType":"address"}],"stateMutability":"view"},{"type":"function","name":"userHistory","inputs":[{"name":"","type":"address","internalType":"address"},{"name":"","type":"uint256","internalType":"uint256"}],"outputs":[{"name":"user","type":"address","internalType":"address"},{"name":"xpAmount","type":"uint256","internalType":"uint256"},{"name":"betTime","type":"uint256","internalType":"uint256"},{"name":"rewardAmount","type":"uint256","internalType":"uint256"},{"name":"poolId","type":"uint40","internalType":"uint40"}],"stateMutability":"view"},{"type":"event","name":"CoordinatorSet","inputs":[{"name":"vrfCoordinator","type":"address","indexed":false,"internalType":"address"}],"anonymous":false},{"type":"event","name":"EnteredPool","inputs":[{"name":"poolId","type":"uint256","indexed":false,"internalType":"uint256"},{"name":"user","type":"address","indexed":false,"internalType":"address"},{"name":"xpAmount","type":"uint256","indexed":false,"internalType":"uint256"}],"anonymous":false},{"type":"event","name":"OwnershipTransferRequested","inputs":[{"name":"from","type":"address","indexed":true,"internalType":"address"},{"name":"to","type":"address","indexed":true,"internalType":"address"}],"anonymous":false},{"type":"event","name":"OwnershipTransferred","inputs":[{"name":"from","type":"address","indexed":true,"internalType":"address"},{"name":"to","type":"address","indexed":true,"internalType":"address"}],"anonymous":false},{"type":"event","name":"Paused","inputs":[{"name":"account","type":"address","indexed":false,"internalType":"address"}],"anonymous":false},{"type":"event","name":"PoolCreated","inputs":[{"name":"poolId","type":"uint256","indexed":false,"internalType":"uint256"},{"name":"baseToken","type":"address","indexed":false,"internalType":"address"},{"name":"limitAmount","type":"uint256","indexed":false,"internalType":"uint256"},{"name":"ticketPrice","type":"uint256","indexed":false,"internalType":"uint256"}],"anonymous":false},{"type":"event","name":"PoolDataUpdated","inputs":[{"name":"poolId","type":"uint256","indexed":false,"internalType":"uint256"},{"name":"burnFee","type":"uint8","indexed":false,"internalType":"uint8"},{"name":"treasuryFee","type":"uint8","indexed":false,"internalType":"uint8"},{"name":"limitAmount","type":"uint256","indexed":false,"internalType":"uint256"},{"name":"ticketPrice","type":"uint256","indexed":false,"internalType":"uint256"}],"anonymous":false},{"type":"event","name":"PoolDrawRequested","inputs":[{"name":"requestId","type":"uint256","indexed":false,"internalType":"uint256"},{"name":"poolId","type":"uint256","indexed":false,"internalType":"uint256"}],"anonymous":false},{"type":"event","name":"PoolEnded","inputs":[{"name":"poolId","type":"uint256","indexed":false,"internalType":"uint256"}],"anonymous":false},{"type":"event","name":"RandomNumberConsumerUpdated","inputs":[{"name":"newReferee","type":"address","indexed":false,"internalType":"address"}],"anonymous":false},{"type":"event","name":"RequestFulfilled","inputs":[{"name":"requestId","type":"uint256","indexed":false,"internalType":"uint256"},{"name":"randomWords","type":"uint256[]","indexed":false,"internalType":"uint256[]"}],"anonymous":false},{"type":"event","name":"RequestSent","inputs":[{"name":"requestId","type":"uint256","indexed":false,"internalType":"uint256"},{"name":"numWords","type":"uint32","indexed":false,"internalType":"uint32"}],"anonymous":false},{"type":"event","name":"TreasuryUpdated","inputs":[{"name":"newTreasury","type":"address","indexed":false,"internalType":"address"}],"anonymous":false},{"type":"event","name":"Unpaused","inputs":[{"name":"account","type":"address","indexed":false,"internalType":"address"}],"anonymous":false},{"type":"event","name":"WinnerDrawn","inputs":[{"name":"poolId","type":"uint256","indexed":false,"internalType":"uint256"},{"name":"winner","type":"address","indexed":false,"internalType":"address"},{"name":"rewardAmount","type":"uint256","indexed":false,"internalType":"uint256"}],"anonymous":false},{"type":"error","name":"EnforcedPause","inputs":[]},{"type":"error","name":"ExpectedPause","inputs":[]},{"type":"error","name":"OnlyCoordinatorCanFulfill","inputs":[{"name":"have","type":"address","internalType":"address"},{"name":"want","type":"address","internalType":"address"}]},{"type":"error","name":"OnlyOwnerOrCoordinator","inputs":[{"name":"have","type":"address","internalType":"address"},{"name":"owner","type":"address","internalType":"address"},{"name":"coordinator","type":"address","internalType":"address"}]},{"type":"error","name":"ZeroAddress","inputs":[]}],"bytecode":{"object":"0x60806040527f8596b430971ac45bdf6088665b9ad8e8630c9d5049ab54b14dff711bee7c0e265f1b6008556201117060095f6101000a81548163ffffffff021916908363ffffffff1602179055506003600960046101000a81548161ffff021916908361ffff1602179055506001600960066101000a81548163ffffffff021916908363ffffffff1602179055506103e8600c5534801561009e575f5ffd5b506040516141e63803806141e683398181016040528101906100c09190610484565b73da3b641d438362c440ac5458c57e00a712b6670033805f60015f819055505f73ffffffffffffffffffffffffffffffffffffffff168273ffffffffffffffffffffffffffffffffffffffff160361014d576040517f08c379a00000000000000000000000000000000000000000000000000000000081526004016101449061051c565b60405180910390fd5b8160015f6101000a81548173ffffffffffffffffffffffffffffffffffffffff021916908373ffffffffffffffffffffffffffffffffffffffff1602179055505f73ffffffffffffffffffffffffffffffffffffffff168173ffffffffffffffffffffffffffffffffffffffff16146101d0576101cf816102c760201b60201c565b5b5050505f73ffffffffffffffffffffffffffffffffffffffff168173ffffffffffffffffffffffffffffffffffffffff1603610238576040517fd92e233d00000000000000000000000000000000000000000000000000000000815260040160405180910390fd5b8060035f6101000a81548173ffffffffffffffffffffffffffffffffffffffff021916908373ffffffffffffffffffffffffffffffffffffffff1602179055505081600b5f6101000a81548173ffffffffffffffffffffffffffffffffffffffff021916908373ffffffffffffffffffffffffffffffffffffffff1602179055508060058190555050506105a2565b3373ffffffffffffffffffffffffffffffffffffffff168173ffffffffffffffffffffffffffffffffffffffff1603610335576040517f08c379a000000000000000000000000000000000000000000000000000000000815260040161032c90610584565b60405180910390fd5b8060025f6101000a81548173ffffffffffffffffffffffffffffffffffffffff021916908373ffffffffffffffffffffffffffffffffffffffff1602179055508073ffffffffffffffffffffffffffffffffffffffff1660015f9054906101000a900473ffffffffffffffffffffffffffffffffffffffff1673ffffffffffffffffffffffffffffffffffffffff167fed8889f560326eb138920d842192f0eb3dd22b4f139c87a2c57538e05bae127860405160405180910390a350565b5f5ffd5b5f73ffffffffffffffffffffffffffffffffffffffff82169050919050565b5f610420826103f7565b9050919050565b61043081610416565b811461043a575f5ffd5b50565b5f8151905061044b81610427565b92915050565b5f819050919050565b61046381610451565b811461046d575f5ffd5b50565b5f8151905061047e8161045a565b92915050565b5f5f6040838503121561049a576104996103f3565b5b5f6104a78582860161043d565b92505060206104b885828601610470565b9150509250929050565b5f82825260208201905092915050565b7f43616e6e6f7420736574206f776e657220746f207a65726f00000000000000005f82015250565b5f6105066018836104c2565b9150610511826104d2565b602082019050919050565b5f6020820190508181035f830152610533816104fa565b9050919050565b7f43616e6e6f74207472616e7366657220746f2073656c660000000000000000005f82015250565b5f61056e6017836104c2565b91506105798261053a565b602082019050919050565b5f6020820190508181035f83015261059b81610562565b9050919050565b613c37806105af5f395ff3fe608060405234801561000f575f5ffd5b50600436106101c2575f3560e01c80638ac00021116100f7578063d8a4676f11610095578063f2fde38b1161006f578063f2fde38b14610506578063f3486e6814610522578063fc2a88c31461053e578063fcff09891461055c576101c2565b8063d8a4676f14610489578063e74617a2146104ba578063f0f44260146104ea576101c2565b80639eccacf6116100d15780639eccacf614610400578063a168fa891461041e578063a4eb718c1461044f578063b0fb162f1461046b576101c2565b80638ac00021146103a85780638da5cb5b146103c65780638ea98117146103e4576101c2565b80635c975abb1161016457806370d5ae051161013e57806370d5ae051461033257806379ba5097146103505780637ccfd7fc1461035a5780638796ba8c14610378576101c2565b80635c975abb146102d857806361728f39146102f657806361d027b314610314576101c2565b806324f74697116101a057806324f74697146102345780632f380b351461025257806348c193e51461028c5780634fb3d3b1146102a8576101c2565b806311f12f83146101c65780631fe543e3146101e457806322e8b99014610200575b5f5ffd5b6101ce610578565b6040516101db9190612693565b60405180910390f35b6101fe60048036038101906101f9919061273f565b61057e565b005b61021a600480360381019061021591906127f6565b610642565b60405161022b959493929190612862565b60405180910390f35b61023c6106bd565b60405161024991906128d1565b60405180910390f35b61026c600480360381019061026791906128ea565b6106d2565b6040516102839b9a99989796959493929190612aeb565b60405180910390f35b6102a660048036038101906102a19190612bc8565b61093d565b005b6102c260048036038101906102bd9190612c51565b610a9d565b6040516102cf9190612c7c565b60405180910390f35b6102e0610bd0565b6040516102ed9190612c9c565b60405180910390f35b6102fe610be6565b60405161030b9190612ccd565b60405180910390f35b61031c610bec565b6040516103299190612ce6565b60405180910390f35b61033a610c11565b6040516103479190612ce6565b60405180910390f35b610358610c17565b005b610362610da8565b60405161036f91906128d1565b60405180910390f35b610392600480360381019061038d91906128ea565b610dbe565b60405161039f9190612693565b60405180910390f35b6103b0610dde565b6040516103bd9190612693565b60405180910390f35b6103ce610de4565b6040516103db9190612ce6565b60405180910390f35b6103fe60048036038101906103f99190612c51565b610e0c565b005b610408610fe9565b6040516104159190612d5a565b60405180910390f35b610438600480360381019061043391906128ea565b61100e565b604051610446929190612d73565b60405180910390f35b61046960048036038101906104649190612dc4565b611046565b005b610473611071565b6040516104809190612e0b565b60405180910390f35b6104a3600480360381019061049e91906128ea565b611085565b6040516104b1929190612ecc565b60405180910390f35b6104d460048036038101906104cf91906128ea565b6111a3565b6040516104e19190612693565b60405180910390f35b61050460048036038101906104ff9190612c51565b6111b8565b005b610520600480360381019061051b9190612c51565b611273565b005b61053c60048036038101906105379190612efa565b611287565b005b6105466114be565b6040516105539190612693565b60405180910390f35b61057660048036038101906105719190612fad565b6114c4565b005b600a5481565b60035f9054906101000a900473ffffffffffffffffffffffffffffffffffffffff1673ffffffffffffffffffffffffffffffffffffffff163373ffffffffffffffffffffffffffffffffffffffff1614610632573360035f9054906101000a900473ffffffffffffffffffffffffffffffffffffffff166040517f1cf993f4000000000000000000000000000000000000000000000000000000008152600401610629929190612feb565b60405180910390fd5b61063d8383836119e4565b505050565b600f602052815f5260405f20818154811061065b575f80fd5b905f5260205f2090600502015f9150915050805f015f9054906101000a900473ffffffffffffffffffffffffffffffffffffffff1690806001015490806002015490806003015490806004015f9054906101000a900464ffffffffff16905085565b60095f9054906101000a900463ffffffff1681565b5f5f5f5f6106de612583565b60605f5f5f5f5f5f600d8d815481106106fa576106f9613012565b5b905f5260205f2090600d02019050805f015f9054906101000a900473ffffffffffffffffffffffffffffffffffffffff16815f0160199054906101000a900460ff16825f01601a9054906101000a900460ff1683600101548460020185600701866008015487600a0154886009015489600b01548a600c015f9054906101000a900460ff16866040518060a00160405290815f82015f9054906101000a900473ffffffffffffffffffffffffffffffffffffffff1673ffffffffffffffffffffffffffffffffffffffff1673ffffffffffffffffffffffffffffffffffffffff168152602001600182015481526020016002820154815260200160038201548152602001600482015f9054906101000a900464ffffffffff1664ffffffffff1664ffffffffff1681525050965085805480602002602001604051908101604052809291908181526020015f905b82821015610911578382905f5260205f2090600502016040518060a00160405290815f82015f9054906101000a900473ffffffffffffffffffffffffffffffffffffffff1673ffffffffffffffffffffffffffffffffffffffff1673ffffffffffffffffffffffffffffffffffffffff168152602001600182015481526020016002820154815260200160038201548152602001600482015f9054906101000a900464ffffffffff1664ffffffffff1664ffffffffff168152505081526020019060010190610847565b5050505095509b509b509b509b509b509b509b509b509b509b509b505091939597999b90929496989a50565b610945611b12565b600d80549050861061098c576040517f08c379a000000000000000000000000000000000000000000000000000000000815260040161098390613099565b60405180910390fd5b600c54848661099b91906130e4565b60ff1611156109df576040517f08c379a00000000000000000000000000000000000000000000000000000000081526004016109d690613162565b60405180910390fd5b5f600d87815481106109f4576109f3613012565b5b905f5260205f2090600d0201905085815f0160196101000a81548160ff021916908360ff16021790555084815f01601a6101000a81548160ff021916908360ff1602179055508381600801819055508181600901819055508281600a01819055507fc85c29e5d80b81851b46d9e886d17c9499232b50a3cd813403ce5e5a02564f918787878786604051610a8c959493929190613180565b60405180910390a150505050505050565b6060600f5f8373ffffffffffffffffffffffffffffffffffffffff1673ffffffffffffffffffffffffffffffffffffffff1681526020019081526020015f20805480602002602001604051908101604052809291908181526020015f905b82821015610bc5578382905f5260205f2090600502016040518060a00160405290815f82015f9054906101000a900473ffffffffffffffffffffffffffffffffffffffff1673ffffffffffffffffffffffffffffffffffffffff1673ffffffffffffffffffffffffffffffffffffffff168152602001600182015481526020016002820154815260200160038201548152602001600482015f9054906101000a900464ffffffffff1664ffffffffff1664ffffffffff168152505081526020019060010190610afb565b505050509050919050565b5f600360149054906101000a900460ff16905090565b60085481565b600b5f9054906101000a900473ffffffffffffffffffffffffffffffffffffffff1681565b61dead81565b60025f9054906101000a900473ffffffffffffffffffffffffffffffffffffffff1673ffffffffffffffffffffffffffffffffffffffff163373ffffffffffffffffffffffffffffffffffffffff1614610ca6576040517f08c379a0000000000000000000000000000000000000000000000000000000008152600401610c9d9061321b565b60405180910390fd5b5f60015f9054906101000a900473ffffffffffffffffffffffffffffffffffffffff1690503360015f6101000a81548173ffffffffffffffffffffffffffffffffffffffff021916908373ffffffffffffffffffffffffffffffffffffffff1602179055505f60025f6101000a81548173ffffffffffffffffffffffffffffffffffffffff021916908373ffffffffffffffffffffffffffffffffffffffff1602179055503373ffffffffffffffffffffffffffffffffffffffff168173ffffffffffffffffffffffffffffffffffffffff167f8be0079c531659141344cd1fd0a4f28419497f9722a3daafe3b4186f6b6457e060405160405180910390a350565b600960069054906101000a900463ffffffff1681565b60068181548110610dcd575f80fd5b905f5260205f20015f915090505481565b60055481565b5f60015f9054906101000a900473ffffffffffffffffffffffffffffffffffffffff16905090565b610e14610de4565b73ffffffffffffffffffffffffffffffffffffffff163373ffffffffffffffffffffffffffffffffffffffff1614158015610e9c575060035f9054906101000a900473ffffffffffffffffffffffffffffffffffffffff1673ffffffffffffffffffffffffffffffffffffffff163373ffffffffffffffffffffffffffffffffffffffff1614155b15610f0a5733610eaa610de4565b60035f9054906101000a900473ffffffffffffffffffffffffffffffffffffffff166040517f061db9c1000000000000000000000000000000000000000000000000000000008152600401610f0193929190613239565b60405180910390fd5b5f73ffffffffffffffffffffffffffffffffffffffff168173ffffffffffffffffffffffffffffffffffffffff1603610f6f576040517fd92e233d00000000000000000000000000000000000000000000000000000000815260040160405180910390fd5b8060035f6101000a81548173ffffffffffffffffffffffffffffffffffffffff021916908373ffffffffffffffffffffffffffffffffffffffff1602179055507fd1a6a14209a385a964d036e404cb5cfb71f4000cdb03c9366292430787261be681604051610fde9190612ce6565b60405180910390a150565b60035f9054906101000a900473ffffffffffffffffffffffffffffffffffffffff1681565b6004602052805f5260405f205f91509050805f015f9054906101000a900460ff1690805f0160019054906101000a900460ff16905082565b61104e611b12565b8060095f6101000a81548163ffffffff021916908363ffffffff16021790555050565b600960049054906101000a900461ffff1681565b5f606060045f8481526020019081526020015f205f0160019054906101000a900460ff166110e8576040517f08c379a00000000000000000000000000000000000000000000000000000000081526004016110df906132b8565b60405180910390fd5b5f60045f8581526020019081526020015f206040518060600160405290815f82015f9054906101000a900460ff161515151581526020015f820160019054906101000a900460ff161515151581526020016001820180548060200260200160405190810160405280929190818152602001828054801561118557602002820191905f5260205f20905b815481526020019060010190808311611171575b5050505050815250509050805f015181604001519250925050915091565b6010602052805f5260405f205f915090505481565b6111c0611b12565b61dead73ffffffffffffffffffffffffffffffffffffffff168173ffffffffffffffffffffffffffffffffffffffff16036111f9575f5ffd5b80600b5f6101000a81548173ffffffffffffffffffffffffffffffffffffffff021916908373ffffffffffffffffffffffffffffffffffffffff1602179055507f7dae230f18360d76a040c81f050aa14eb9d6dc7901b20fc5d855e2a20fe814d1816040516112689190612ce6565b60405180910390a150565b61127b611b12565b61128481611ba3565b50565b61128f611b12565b600c54848661129e91906130e4565b60ff1611156112e2576040517f08c379a00000000000000000000000000000000000000000000000000000000081526004016112d990613162565b60405180910390fd5b600d60018160018154018082558091505003905f5260205f209050505f600d6001600d8054905061131391906132d6565b8154811061132457611323613012565b5b905f5260205f2090600d0201905086815f015f6101000a81548173ffffffffffffffffffffffffffffffffffffffff021916908373ffffffffffffffffffffffffffffffffffffffff160217905550600e5f9054906101000a900464ffffffffff16815f0160146101000a81548164ffffffffff021916908364ffffffffff16021790555085815f0160196101000a81548160ff021916908360ff16021790555084815f01601a6101000a81548160ff021916908360ff1602179055508381600801819055508281600a01819055508181600901819055504281600b0181905550600181600c015f6101000a81548160ff021916908315150217905550600e5f81819054906101000a900464ffffffffff168092919061144390613309565b91906101000a81548164ffffffffff021916908364ffffffffff160217905550507f154511729012ef776b8a51ae96d7429fa768546e62bec65af546cb3a5ff8f8ac815f0160149054906101000a900464ffffffffff168886856040516114ad9493929190613365565b60405180910390a150505050505050565b60075481565b6114cc611ccf565b600d805490508264ffffffffff161061151a576040517f08c379a000000000000000000000000000000000000000000000000000000000815260040161151190613099565b60405180910390fd5b5f600d8364ffffffffff168154811061153657611535613012565b5b905f5260205f2090600d02019050806009015482101561158b576040517f08c379a000000000000000000000000000000000000000000000000000000000815260040161158290613418565b60405180910390fd5b80600c015f9054906101000a900460ff166115db576040517f08c379a00000000000000000000000000000000000000000000000000000000081526004016115d290613480565b60405180910390fd5b806007016040518060a001604052803373ffffffffffffffffffffffffffffffffffffffff1681526020018481526020014281526020015f81526020018564ffffffffff16815250908060018154018082558091505060019003905f5260205f2090600502015f909190919091505f820151815f015f6101000a81548173ffffffffffffffffffffffffffffffffffffffff021916908373ffffffffffffffffffffffffffffffffffffffff1602179055506020820151816001015560408201518160020155606082015181600301556080820151816004015f6101000a81548164ffffffffff021916908364ffffffffff1602179055505050600f5f3373ffffffffffffffffffffffffffffffffffffffff1673ffffffffffffffffffffffffffffffffffffffff1681526020019081526020015f206040518060a001604052803373ffffffffffffffffffffffffffffffffffffffff1681526020018481526020014281526020015f81526020018564ffffffffff16815250908060018154018082558091505060019003905f5260205f2090600502015f909190919091505f820151815f015f6101000a81548173ffffffffffffffffffffffffffffffffffffffff021916908373ffffffffffffffffffffffffffffffffffffffff1602179055506020820151816001015560408201518160020155606082015181600301556080820151816004015f6101000a81548164ffffffffff021916908364ffffffffff160217905550505081816001015f82825461181b919061349e565b92505081905550805f015f9054906101000a900473ffffffffffffffffffffffffffffffffffffffff1673ffffffffffffffffffffffffffffffffffffffff166323b872dd3330856040518463ffffffff1660e01b8152600401611881939291906134d1565b6020604051808303815f875af115801561189d573d5f5f3e3d5ffd5b505050506040513d601f19601f820116820180604052508101906118c19190613530565b611900576040517f08c379a00000000000000000000000000000000000000000000000000000000081526004016118f7906135a5565b60405180910390fd5b7f33303534f11f536b37a484a89f8695e821fc39bf65e2d9349c5de1ab124f5c6d833384604051611933939291906135c3565b60405180910390a180600801548160010154101580611975575080600a015481600b0154611961919061349e565b421015801561197457505f81600a015414155b5b156119df575f6119856001611d10565b90508364ffffffffff1660105f8381526020019081526020015f20819055507f24f3e31c9991c9df649b2cdf6c88214f02bd1a117886fad980699ac87899cc2481856040516119d59291906135f8565b60405180910390a1505b505050565b60045f8481526020019081526020015f205f0160019054906101000a900460ff16611a44576040517f08c379a0000000000000000000000000000000000000000000000000000000008152600401611a3b906132b8565b60405180910390fd5b600160045f8581526020019081526020015f205f015f6101000a81548160ff021916908315150217905550818160045f8681526020019081526020015f206001019190611a929291906125ca565b5081815f818110611aa657611aa5613012565b5b90506020020135600a819055507ffe2e2d779dba245964d4e3ef9b994be63856fd568bf7d3ca9e224755cb1bd54d838383604051611ae693929190613687565b60405180910390a15f60105f8581526020019081526020015f20549050611b0c81611f8a565b50505050565b60015f9054906101000a900473ffffffffffffffffffffffffffffffffffffffff1673ffffffffffffffffffffffffffffffffffffffff163373ffffffffffffffffffffffffffffffffffffffff1614611ba1576040517f08c379a0000000000000000000000000000000000000000000000000000000008152600401611b9890613701565b60405180910390fd5b565b3373ffffffffffffffffffffffffffffffffffffffff168173ffffffffffffffffffffffffffffffffffffffff1603611c11576040517f08c379a0000000000000000000000000000000000000000000000000000000008152600401611c0890613769565b60405180910390fd5b8060025f6101000a81548173ffffffffffffffffffffffffffffffffffffffff021916908373ffffffffffffffffffffffffffffffffffffffff1602179055508073ffffffffffffffffffffffffffffffffffffffff1660015f9054906101000a900473ffffffffffffffffffffffffffffffffffffffff1673ffffffffffffffffffffffffffffffffffffffff167fed8889f560326eb138920d842192f0eb3dd22b4f139c87a2c57538e05bae127860405160405180910390a350565b611cd7610bd0565b15611d0e576040517fd93c066500000000000000000000000000000000000000000000000000000000815260040160405180910390fd5b565b5f60035f9054906101000a900473ffffffffffffffffffffffffffffffffffffffff1673ffffffffffffffffffffffffffffffffffffffff16639b1c385e6040518060c0016040528060085481526020016005548152602001600960049054906101000a900461ffff1661ffff16815260200160095f9054906101000a900463ffffffff1663ffffffff168152602001600960069054906101000a900463ffffffff1663ffffffff168152602001611dd760405180602001604052808815158152506124eb565b8152506040518263ffffffff1660e01b8152600401611df691906138aa565b6020604051808303815f875af1158015611e12573d5f5f3e3d5ffd5b505050506040513d601f19601f82011682018060405250810190611e3691906138de565b905060405180606001604052805f151581526020016001151581526020015f67ffffffffffffffff811115611e6e57611e6d613909565b5b604051908082528060200260200182016040528015611e9c5781602001602082028036833780820191505090505b5081525060045f8381526020019081526020015f205f820151815f015f6101000a81548160ff0219169083151502179055506020820151815f0160016101000a81548160ff0219169083151502179055506040820151816001019080519060200190611f09929190612615565b50905050600681908060018154018082558091505060019003905f5260205f20015f9091909190915055806007819055507fcc58b13ad3eab50626c6a6300b1d139cd6ebb1688a7cced9461c2f7e762665ee81600960069054906101000a900463ffffffff16604051611f7d929190613936565b60405180910390a1919050565b5f600d8281548110611f9f57611f9e613012565b5b905f5260205f2090600d020190505f8160070180549050600a54611fc3919061398a565b90505f82600c015f6101000a81548160ff0219169083151502179055505f600c54835f0160199054906101000a900460ff1660ff16846001015461200791906139ba565b61201191906139fb565b90505f600c54845f01601a9054906101000a900460ff1660ff16856001015461203a91906139ba565b61204491906139fb565b90505f8183866001015461205891906132d6565b61206291906132d6565b90508085600701858154811061207b5761207a613012565b5b905f5260205f209060050201600301819055508460070184815481106120a4576120a3613012565b5b905f5260205f209060050201856002015f82015f9054906101000a900473ffffffffffffffffffffffffffffffffffffffff16815f015f6101000a81548173ffffffffffffffffffffffffffffffffffffffff021916908373ffffffffffffffffffffffffffffffffffffffff160217905550600182015481600101556002820154816002015560038201548160030155600482015f9054906101000a900464ffffffffff16816004015f6101000a81548164ffffffffff021916908364ffffffffff160217905550905050845f015f9054906101000a900473ffffffffffffffffffffffffffffffffffffffff1673ffffffffffffffffffffffffffffffffffffffff1663a9059cbb866002015f015f9054906101000a900473ffffffffffffffffffffffffffffffffffffffff16836040518363ffffffff1660e01b81526004016121f2929190613a2b565b6020604051808303815f875af115801561220e573d5f5f3e3d5ffd5b505050506040513d601f19601f820116820180604052508101906122329190613530565b612271576040517f08c379a000000000000000000000000000000000000000000000000000000000815260040161226890613a9c565b60405180910390fd5b845f015f9054906101000a900473ffffffffffffffffffffffffffffffffffffffff1673ffffffffffffffffffffffffffffffffffffffff1663a9059cbb61dead856040518363ffffffff1660e01b81526004016122d0929190613a2b565b6020604051808303815f875af11580156122ec573d5f5f3e3d5ffd5b505050506040513d601f19601f820116820180604052508101906123109190613530565b61234f576040517f08c379a000000000000000000000000000000000000000000000000000000000815260040161234690613b04565b60405180910390fd5b845f015f9054906101000a900473ffffffffffffffffffffffffffffffffffffffff1673ffffffffffffffffffffffffffffffffffffffff1663a9059cbb600b5f9054906101000a900473ffffffffffffffffffffffffffffffffffffffff16846040518363ffffffff1660e01b81526004016123cd929190613a2b565b6020604051808303815f875af11580156123e9573d5f5f3e3d5ffd5b505050506040513d601f19601f8201168201806040525081019061240d9190613530565b61244c576040517f08c379a000000000000000000000000000000000000000000000000000000000815260040161244390613b6c565b60405180910390fd5b7f9c1e776cbdf221420917b223eb09503e61c8e990a1c09065cbf15bdff06a555e86866002015f015f9054906101000a900473ffffffffffffffffffffffffffffffffffffffff16836040516124a493929190613b8a565b60405180910390a17f7ec14564eed3e841911f7412fd555aa022b64c2b1ae4b3da14fcacc8c0c4bf71866040516124db9190612693565b60405180910390a1505050505050565b60607f92fd13387c7fe7befbc38d303d6468778fb9731bc4583f17d92989c6fcfdeaaa8260405160240161251f9190613be8565b604051602081830303815290604052907bffffffffffffffffffffffffffffffffffffffffffffffffffffffff19166020820180517bffffffffffffffffffffffffffffffffffffffffffffffffffffffff83818316178352505050509050919050565b6040518060a001604052805f73ffffffffffffffffffffffffffffffffffffffff1681526020015f81526020015f81526020015f81526020015f64ffffffffff1681525090565b828054828255905f5260205f20908101928215612604579160200282015b828111156126035782358255916020019190600101906125e8565b5b5090506126119190612660565b5090565b828054828255905f5260205f2090810192821561264f579160200282015b8281111561264e578251825591602001919060010190612633565b5b50905061265c9190612660565b5090565b5b80821115612677575f815f905550600101612661565b5090565b5f819050919050565b61268d8161267b565b82525050565b5f6020820190506126a65f830184612684565b92915050565b5f5ffd5b5f5ffd5b6126bd8161267b565b81146126c7575f5ffd5b50565b5f813590506126d8816126b4565b92915050565b5f5ffd5b5f5ffd5b5f5ffd5b5f5f83601f8401126126ff576126fe6126de565b5b8235905067ffffffffffffffff81111561271c5761271b6126e2565b5b602083019150836020820283011115612738576127376126e6565b5b9250929050565b5f5f5f60408486031215612756576127556126ac565b5b5f612763868287016126ca565b935050602084013567ffffffffffffffff811115612784576127836126b0565b5b612790868287016126ea565b92509250509250925092565b5f73ffffffffffffffffffffffffffffffffffffffff82169050919050565b5f6127c58261279c565b9050919050565b6127d5816127bb565b81146127df575f5ffd5b50565b5f813590506127f0816127cc565b92915050565b5f5f6040838503121561280c5761280b6126ac565b5b5f612819858286016127e2565b925050602061282a858286016126ca565b9150509250929050565b61283d816127bb565b82525050565b5f64ffffffffff82169050919050565b61285c81612843565b82525050565b5f60a0820190506128755f830188612834565b6128826020830187612684565b61288f6040830186612684565b61289c6060830185612684565b6128a96080830184612853565b9695505050505050565b5f63ffffffff82169050919050565b6128cb816128b3565b82525050565b5f6020820190506128e45f8301846128c2565b92915050565b5f602082840312156128ff576128fe6126ac565b5b5f61290c848285016126ca565b91505092915050565b5f60ff82169050919050565b61292a81612915565b82525050565b612939816127bb565b82525050565b6129488161267b565b82525050565b61295781612843565b82525050565b60a082015f8201516129715f850182612930565b506020820151612984602085018261293f565b506040820151612997604085018261293f565b5060608201516129aa606085018261293f565b5060808201516129bd608085018261294e565b50505050565b5f81519050919050565b5f82825260208201905092915050565b5f819050602082019050919050565b60a082015f820151612a005f850182612930565b506020820151612a13602085018261293f565b506040820151612a26604085018261293f565b506060820151612a39606085018261293f565b506080820151612a4c608085018261294e565b50505050565b5f612a5d83836129ec565b60a08301905092915050565b5f602082019050919050565b5f612a7f826129c3565b612a8981856129cd565b9350612a94836129dd565b805f5b83811015612ac4578151612aab8882612a52565b9750612ab683612a69565b925050600181019050612a97565b5085935050505092915050565b5f8115159050919050565b612ae581612ad1565b82525050565b5f6101e082019050612aff5f83018e612834565b612b0c602083018d612921565b612b19604083018c612921565b612b26606083018b612684565b612b33608083018a61295d565b818103610120830152612b468189612a75565b9050612b56610140830188612684565b612b64610160830187612684565b612b72610180830186612684565b612b806101a0830185612684565b612b8e6101c0830184612adc565b9c9b505050505050505050505050565b612ba781612915565b8114612bb1575f5ffd5b50565b5f81359050612bc281612b9e565b92915050565b5f5f5f5f5f5f60c08789031215612be257612be16126ac565b5b5f612bef89828a016126ca565b9650506020612c0089828a01612bb4565b9550506040612c1189828a01612bb4565b9450506060612c2289828a016126ca565b9350506080612c3389828a016126ca565b92505060a0612c4489828a016126ca565b9150509295509295509295565b5f60208284031215612c6657612c656126ac565b5b5f612c73848285016127e2565b91505092915050565b5f6020820190508181035f830152612c948184612a75565b905092915050565b5f602082019050612caf5f830184612adc565b92915050565b5f819050919050565b612cc781612cb5565b82525050565b5f602082019050612ce05f830184612cbe565b92915050565b5f602082019050612cf95f830184612834565b92915050565b5f819050919050565b5f612d22612d1d612d188461279c565b612cff565b61279c565b9050919050565b5f612d3382612d08565b9050919050565b5f612d4482612d29565b9050919050565b612d5481612d3a565b82525050565b5f602082019050612d6d5f830184612d4b565b92915050565b5f604082019050612d865f830185612adc565b612d936020830184612adc565b9392505050565b612da3816128b3565b8114612dad575f5ffd5b50565b5f81359050612dbe81612d9a565b92915050565b5f60208284031215612dd957612dd86126ac565b5b5f612de684828501612db0565b91505092915050565b5f61ffff82169050919050565b612e0581612def565b82525050565b5f602082019050612e1e5f830184612dfc565b92915050565b5f81519050919050565b5f82825260208201905092915050565b5f819050602082019050919050565b5f612e58838361293f565b60208301905092915050565b5f602082019050919050565b5f612e7a82612e24565b612e848185612e2e565b9350612e8f83612e3e565b805f5b83811015612ebf578151612ea68882612e4d565b9750612eb183612e64565b925050600181019050612e92565b5085935050505092915050565b5f604082019050612edf5f830185612adc565b8181036020830152612ef18184612e70565b90509392505050565b5f5f5f5f5f5f60c08789031215612f1457612f136126ac565b5b5f612f2189828a016127e2565b9650506020612f3289828a01612bb4565b9550506040612f4389828a01612bb4565b9450506060612f5489828a016126ca565b9350506080612f6589828a016126ca565b92505060a0612f7689828a016126ca565b9150509295509295509295565b612f8c81612843565b8114612f96575f5ffd5b50565b5f81359050612fa781612f83565b92915050565b5f5f60408385031215612fc357612fc26126ac565b5b5f612fd085828601612f99565b9250506020612fe1858286016126ca565b9150509250929050565b5f604082019050612ffe5f830185612834565b61300b6020830184612834565b9392505050565b7f4e487b71000000000000000000000000000000000000000000000000000000005f52603260045260245ffd5b5f82825260208201905092915050565b7f4e6f20706f6f6c000000000000000000000000000000000000000000000000005f82015250565b5f61308360078361303f565b915061308e8261304f565b602082019050919050565b5f6020820190508181035f8301526130b081613077565b9050919050565b7f4e487b71000000000000000000000000000000000000000000000000000000005f52601160045260245ffd5b5f6130ee82612915565b91506130f983612915565b9250828201905060ff811115613112576131116130b7565b5b92915050565b7f496e76616c69642066656520636f6e66696775726174696f6e000000000000005f82015250565b5f61314c60198361303f565b915061315782613118565b602082019050919050565b5f6020820190508181035f83015261317981613140565b9050919050565b5f60a0820190506131935f830188612684565b6131a06020830187612921565b6131ad6040830186612921565b6131ba6060830185612684565b6131c76080830184612684565b9695505050505050565b7f4d7573742062652070726f706f736564206f776e6572000000000000000000005f82015250565b5f61320560168361303f565b9150613210826131d1565b602082019050919050565b5f6020820190508181035f830152613232816131f9565b9050919050565b5f60608201905061324c5f830186612834565b6132596020830185612834565b6132666040830184612834565b949350505050565b7f72657175657374206e6f7420666f756e640000000000000000000000000000005f82015250565b5f6132a260118361303f565b91506132ad8261326e565b602082019050919050565b5f6020820190508181035f8301526132cf81613296565b9050919050565b5f6132e08261267b565b91506132eb8361267b565b9250828203905081811115613303576133026130b7565b5b92915050565b5f61331382612843565b915064ffffffffff820361332a576133296130b7565b5b600182019050919050565b5f61334f61334a61334584612843565b612cff565b61267b565b9050919050565b61335f81613335565b82525050565b5f6080820190506133785f830187613356565b6133856020830186612834565b6133926040830185612684565b61339f6060830184612684565b95945050505050565b7f416d6f756e7420697320736d616c6c6572207468616e205469636b65745072695f8201527f6365000000000000000000000000000000000000000000000000000000000000602082015250565b5f61340260228361303f565b915061340d826133a8565b604082019050919050565b5f6020820190508181035f83015261342f816133f6565b9050919050565b7f506f6f6c206973206e6f742061637469766500000000000000000000000000005f82015250565b5f61346a60128361303f565b915061347582613436565b602082019050919050565b5f6020820190508181035f8301526134978161345e565b9050919050565b5f6134a88261267b565b91506134b38361267b565b92508282019050808211156134cb576134ca6130b7565b5b92915050565b5f6060820190506134e45f830186612834565b6134f16020830185612834565b6134fe6040830184612684565b949350505050565b61350f81612ad1565b8114613519575f5ffd5b50565b5f8151905061352a81613506565b92915050565b5f60208284031215613545576135446126ac565b5b5f6135528482850161351c565b91505092915050565b7f456e746572506f6f6c20546f6b656e205472616e73666572204661696c6564005f82015250565b5f61358f601f8361303f565b915061359a8261355b565b602082019050919050565b5f6020820190508181035f8301526135bc81613583565b9050919050565b5f6060820190506135d65f830186613356565b6135e36020830185612834565b6135f06040830184612684565b949350505050565b5f60408201905061360b5f830185612684565b6136186020830184613356565b9392505050565b5f5ffd5b82818337505050565b5f6136378385612e2e565b93507f07ffffffffffffffffffffffffffffffffffffffffffffffffffffffffffffff83111561366a5761366961361f565b5b60208302925061367b838584613623565b82840190509392505050565b5f60408201905061369a5f830186612684565b81810360208301526136ad81848661362c565b9050949350505050565b7f4f6e6c792063616c6c61626c65206279206f776e6572000000000000000000005f82015250565b5f6136eb60168361303f565b91506136f6826136b7565b602082019050919050565b5f6020820190508181035f830152613718816136df565b9050919050565b7f43616e6e6f74207472616e7366657220746f2073656c660000000000000000005f82015250565b5f61375360178361303f565b915061375e8261371f565b602082019050919050565b5f6020820190508181035f83015261378081613747565b9050919050565b61379081612cb5565b82525050565b61379f81612def565b82525050565b6137ae816128b3565b82525050565b5f81519050919050565b5f82825260208201905092915050565b8281835e5f83830152505050565b5f601f19601f8301169050919050565b5f6137f6826137b4565b61380081856137be565b93506138108185602086016137ce565b613819816137dc565b840191505092915050565b5f60c083015f8301516138395f860182613787565b50602083015161384c602086018261293f565b50604083015161385f6040860182613796565b50606083015161387260608601826137a5565b50608083015161388560808601826137a5565b5060a083015184820360a086015261389d82826137ec565b9150508091505092915050565b5f6020820190508181035f8301526138c28184613824565b905092915050565b5f815190506138d8816126b4565b92915050565b5f602082840312156138f3576138f26126ac565b5b5f613900848285016138ca565b91505092915050565b7f4e487b71000000000000000000000000000000000000000000000000000000005f52604160045260245ffd5b5f6040820190506139495f830185612684565b61395660208301846128c2565b9392505050565b7f4e487b71000000000000000000000000000000000000000000000000000000005f52601260045260245ffd5b5f6139948261267b565b915061399f8361267b565b9250826139af576139ae61395d565b5b828206905092915050565b5f6139c48261267b565b91506139cf8361267b565b92508282026139dd8161267b565b915082820484148315176139f4576139f36130b7565b5b5092915050565b5f613a058261267b565b9150613a108361267b565b925082613a2057613a1f61395d565b5b828204905092915050565b5f604082019050613a3e5f830185612834565b613a4b6020830184612684565b9392505050565b7f57696e6e657220526577617264205472616e73666572204661696c65640000005f82015250565b5f613a86601d8361303f565b9150613a9182613a52565b602082019050919050565b5f6020820190508181035f830152613ab381613a7a565b9050919050565b7f4275726e205472616e73666572204661696c65640000000000000000000000005f82015250565b5f613aee60148361303f565b9150613af982613aba565b602082019050919050565b5f6020820190508181035f830152613b1b81613ae2565b9050919050565b7f5472656173757279205472616e73666572204661696c656400000000000000005f82015250565b5f613b5660188361303f565b9150613b6182613b22565b602082019050919050565b5f6020820190508181035f830152613b8381613b4a565b9050919050565b5f606082019050613b9d5f830186612684565b613baa6020830185612834565b613bb76040830184612684565b949350505050565b613bc881612ad1565b82525050565b602082015f820151613be25f850182613bbf565b50505050565b5f602082019050613bfb5f830184613bce565b9291505056fea26469706673582212200ea0bd277b6f7a1918e6272d7345abd16c5ac4907613a99da47ac3530534e14364736f6c634300081e0033","linkReferences":{}},"methodIdentifiers":{"acceptOwnership()":"79ba5097","burnAddress()":"70d5ae05","callbackGasLimit()":"24f74697","createPool(address,uint8,uint8,uint256,uint256,uint256)":"f3486e68","enterPool(uint40,uint256)":"fcff0989","getPoolInfo(uint256)":"2f380b35","getRequestStatus(uint256)":"d8a4676f","getUserHistory(address)":"4fb3d3b1","keyHash()":"61728f39","lastDrawnNumber()":"11f12f83","lastRequestId()":"fc2a88c3","numWords()":"7ccfd7fc","owner()":"8da5cb5b","paused()":"5c975abb","rawFulfillRandomWords(uint256,uint256[])":"1fe543e3","requestConfirmations()":"b0fb162f","requestIdToPoolId(uint256)":"e74617a2","requestIds(uint256)":"8796ba8c","s_requests(uint256)":"a168fa89","s_subscriptionId()":"8ac00021","s_vrfCoordinator()":"9eccacf6","setCallbackGasLimit(uint32)":"a4eb718c","setCoordinator(address)":"8ea98117","setPoolData(uint256,uint8,uint8,uint256,uint256,uint256)":"48c193e5","setTreasury(address)":"f0f44260","transferOwnership(address)":"f2fde38b","treasury()":"61d027b3","userHistory(address,uint256)":"22e8b990"},"id":41}