{"abi":[{"type":"constructor","inputs":[{"name":"_treasury","type":"address","internalType":"address"},{"name":"subscriptionId","type":"uint256","internalType":"uint256"}],"stateMutability":"nonpayable"},{"type":"function","name":"acceptOwnership","inputs":[],"outputs":[],"stateMutability":"nonpayable"},{"type":"function","name":"burnAddress","inputs":[],"outputs":[{"name":"","type":"address","internalType":"address"}],"stateMutability":"view"},{"type":"function","name":"callbackGasLimit","inputs":[],"outputs":[{"name":"","type":"uint32","internalType":"uint32"}],"stateMutability":"view"},{"type":"function","name":"createGame","inputs":[{"name":"_baseToken","type":"address","internalType":"address"},{"name":"_burnFee","type":"uint8","internalType":"uint8"},{"name":"_treasuryFee","type":"uint8","internalType":"uint8"},{"name":"_minTokenAmount","type":"uint256","internalType":"uint256"}],"outputs":[],"stateMutability":"nonpayable"},{"type":"function","name":"enterGame","inputs":[{"name":"_gameId","type":"uint40","internalType":"uint40"},{"name":"_xpAmount","type":"uint256","internalType":"uint256"}],"outputs":[],"stateMutability":"nonpayable"},{"type":"function","name":"getActivePoolIds","inputs":[],"outputs":[{"name":"","type":"uint256[]","internalType":"uint256[]"}],"stateMutability":"view"},{"type":"function","name":"getGameInfo","inputs":[{"name":"_gameId","type":"uint256","internalType":"uint256"}],"outputs":[{"name":"baseToken","type":"address","internalType":"address"},{"name":"burnFee","type":"uint8","internalType":"uint8"},{"name":"treasuryFee","type":"uint8","internalType":"uint8"},{"name":"totalXpAmount","type":"uint256","internalType":"uint256"},{"name":"users","type":"tuple[]","internalType":"struct WaveFlip.User[]","components":[{"name":"user","type":"address","internalType":"address"},{"name":"xpAmount","type":"uint256","internalType":"uint256"},{"name":"betTime","type":"uint256","internalType":"uint256"},{"name":"rewardAmount","type":"uint256","internalType":"uint256"}]},{"name":"minTokenAmount","type":"uint256","internalType":"uint256"},{"name":"isActive","type":"bool","internalType":"bool"}],"stateMutability":"view"},{"type":"function","name":"getRequestStatus","inputs":[{"name":"_requestId","type":"uint256","internalType":"uint256"}],"outputs":[{"name":"fulfilled","type":"bool","internalType":"bool"},{"name":"randomWords","type":"uint256[]","internalType":"uint256[]"}],"stateMutability":"view"},{"type":"function","name":"getUserHistory","inputs":[{"name":"_user","type":"address","internalType":"address"}],"outputs":[{"name":"history","type":"tuple[]","internalType":"struct WaveFlip.User[]","components":[{"name":"user","type":"address","internalType":"address"},{"name":"xpAmount","type":"uint256","internalType":"uint256"},{"name":"betTime","type":"uint256","internalType":"uint256"},{"name":"rewardAmount","type":"uint256","internalType":"uint256"}]}],"stateMutability":"view"},{"type":"function","name":"keyHash","inputs":[],"outputs":[{"name":"","type":"bytes32","internalType":"bytes32"}],"stateMutability":"view"},{"type":"function","name":"lastRequestId","inputs":[],"outputs":[{"name":"","type":"uint256","internalType":"uint256"}],"stateMutability":"view"},{"type":"function","name":"latestRandomWord","inputs":[],"outputs":[{"name":"","type":"uint256","internalType":"uint256"}],"stateMutability":"view"},{"type":"function","name":"numWords","inputs":[],"outputs":[{"name":"","type":"uint32","internalType":"uint32"}],"stateMutability":"view"},{"type":"function","name":"owner","inputs":[],"outputs":[{"name":"","type":"address","internalType":"address"}],"stateMutability":"view"},{"type":"function","name":"paused","inputs":[],"outputs":[{"name":"","type":"bool","internalType":"bool"}],"stateMutability":"view"},{"type":"function","name":"pendingGames","inputs":[{"name":"","type":"uint256","internalType":"uint256"}],"outputs":[{"name":"gameId","type":"uint256","internalType":"uint256"},{"name":"xpAmount","type":"uint256","internalType":"uint256"},{"name":"player","type":"address","internalType":"address"}],"stateMutability":"view"},{"type":"function","name":"rawFulfillRandomWords","inputs":[{"name":"requestId","type":"uint256","internalType":"uint256"},{"name":"randomWords","type":"uint256[]","internalType":"uint256[]"}],"outputs":[],"stateMutability":"nonpayable"},{"type":"function","name":"requestConfirmations","inputs":[],"outputs":[{"name":"","type":"uint16","internalType":"uint16"}],"stateMutability":"view"},{"type":"function","name":"requestIds","inputs":[{"name":"","type":"uint256","internalType":"uint256"}],"outputs":[{"name":"","type":"uint256","internalType":"uint256"}],"stateMutability":"view"},{"type":"function","name":"s_requests","inputs":[{"name":"","type":"uint256","internalType":"uint256"}],"outputs":[{"name":"fulfilled","type":"bool","internalType":"bool"},{"name":"exists","type":"bool","internalType":"bool"}],"stateMutability":"view"},{"type":"function","name":"s_subscriptionId","inputs":[],"outputs":[{"name":"","type":"uint256","internalType":"uint256"}],"stateMutability":"view"},{"type":"function","name":"s_vrfCoordinator","inputs":[],"outputs":[{"name":"","type":"address","internalType":"contract IVRFCoordinatorV2Plus"}],"stateMutability":"view"},{"type":"function","name":"setCoordinator","inputs":[{"name":"_vrfCoordinator","type":"address","internalType":"address"}],"outputs":[],"stateMutability":"nonpayable"},{"type":"function","name":"setGameData","inputs":[{"name":"_gameId","type":"uint256","internalType":"uint256"},{"name":"_burnFee","type":"uint8","internalType":"uint8"},{"name":"_treasuryFee","type":"uint8","internalType":"uint8"},{"name":"_minTokenAmount","type":"uint256","internalType":"uint256"}],"outputs":[],"stateMutability":"nonpayable"},{"type":"function","name":"setTreasury","inputs":[{"name":"_treasury","type":"address","internalType":"address"}],"outputs":[],"stateMutability":"nonpayable"},{"type":"function","name":"transferOwnership","inputs":[{"name":"to","type":"address","internalType":"address"}],"outputs":[],"stateMutability":"nonpayable"},{"type":"function","name":"treasury","inputs":[],"outputs":[{"name":"","type":"address","internalType":"address"}],"stateMutability":"view"},{"type":"function","name":"userHistory","inputs":[{"name":"","type":"address","internalType":"address"},{"name":"","type":"uint256","internalType":"uint256"}],"outputs":[{"name":"user","type":"address","internalType":"address"},{"name":"xpAmount","type":"uint256","internalType":"uint256"},{"name":"betTime","type":"uint256","internalType":"uint256"},{"name":"rewardAmount","type":"uint256","internalType":"uint256"}],"stateMutability":"view"},{"type":"function","name":"withdraw","inputs":[{"name":"_token","type":"address","internalType":"address"},{"name":"amount","type":"uint256","internalType":"uint256"}],"outputs":[],"stateMutability":"nonpayable"},{"type":"event","name":"CoordinatorSet","inputs":[{"name":"vrfCoordinator","type":"address","indexed":false,"internalType":"address"}],"anonymous":false},{"type":"event","name":"DrawnGame","inputs":[{"name":"result","type":"uint256","indexed":false,"internalType":"uint256"}],"anonymous":false},{"type":"event","name":"EnteredPool","inputs":[{"name":"gameId","type":"uint256","indexed":false,"internalType":"uint256"},{"name":"user","type":"address","indexed":false,"internalType":"address"},{"name":"xpAmount","type":"uint256","indexed":false,"internalType":"uint256"}],"anonymous":false},{"type":"event","name":"GameCreated","inputs":[{"name":"gameId","type":"uint256","indexed":false,"internalType":"uint256"},{"name":"baseToken","type":"address","indexed":false,"internalType":"address"},{"name":"minTokenAmount","type":"uint256","indexed":false,"internalType":"uint256"}],"anonymous":false},{"type":"event","name":"OwnershipTransferRequested","inputs":[{"name":"from","type":"address","indexed":true,"internalType":"address"},{"name":"to","type":"address","indexed":true,"internalType":"address"}],"anonymous":false},{"type":"event","name":"OwnershipTransferred","inputs":[{"name":"from","type":"address","indexed":true,"internalType":"address"},{"name":"to","type":"address","indexed":true,"internalType":"address"}],"anonymous":false},{"type":"event","name":"Paused","inputs":[{"name":"account","type":"address","indexed":false,"internalType":"address"}],"anonymous":false},{"type":"event","name":"PoolDataUpdated","inputs":[{"name":"gameId","type":"uint256","indexed":false,"internalType":"uint256"},{"name":"burnFee","type":"uint8","indexed":false,"internalType":"uint8"},{"name":"treasuryFee","type":"uint8","indexed":false,"internalType":"uint8"},{"name":"limitAmount","type":"uint256","indexed":false,"internalType":"uint256"}],"anonymous":false},{"type":"event","name":"PoolDrawRequested","inputs":[{"name":"requestId","type":"uint256","indexed":false,"internalType":"uint256"},{"name":"gameId","type":"uint256","indexed":false,"internalType":"uint256"}],"anonymous":false},{"type":"event","name":"PoolEnded","inputs":[{"name":"gameId","type":"uint256","indexed":false,"internalType":"uint256"}],"anonymous":false},{"type":"event","name":"RandomNumberConsumerUpdated","inputs":[{"name":"newReferee","type":"address","indexed":false,"internalType":"address"}],"anonymous":false},{"type":"event","name":"RequestFulfilled","inputs":[{"name":"requestId","type":"uint256","indexed":false,"internalType":"uint256"},{"name":"randomWords","type":"uint256[]","indexed":false,"internalType":"uint256[]"}],"anonymous":false},{"type":"event","name":"RequestSent","inputs":[{"name":"requestId","type":"uint256","indexed":false,"internalType":"uint256"},{"name":"numWords","type":"uint32","indexed":false,"internalType":"uint32"}],"anonymous":false},{"type":"event","name":"TreasuryUpdated","inputs":[{"name":"newTreasury","type":"address","indexed":false,"internalType":"address"}],"anonymous":false},{"type":"event","name":"Unpaused","inputs":[{"name":"account","type":"address","indexed":false,"internalType":"address"}],"anonymous":false},{"type":"event","name":"WinnerDrawn","inputs":[{"name":"gameId","type":"uint256","indexed":false,"internalType":"uint256"},{"name":"winner","type":"address","indexed":false,"internalType":"address"},{"name":"rewardAmount","type":"uint256","indexed":false,"internalType":"uint256"}],"anonymous":false},{"type":"error","name":"EnforcedPause","inputs":[]},{"type":"error","name":"ExpectedPause","inputs":[]},{"type":"error","name":"OnlyCoordinatorCanFulfill","inputs":[{"name":"have","type":"address","internalType":"address"},{"name":"want","type":"address","internalType":"address"}]},{"type":"error","name":"OnlyOwnerOrCoordinator","inputs":[{"name":"have","type":"address","internalType":"address"},{"name":"owner","type":"address","internalType":"address"},{"name":"coordinator","type":"address","internalType":"address"}]},{"type":"error","name":"ZeroAddress","inputs":[]}],"bytecode":{"object":"0x60806040527f8596b430971ac45bdf6088665b9ad8e8630c9d5049ab54b14dff711bee7c0e265f1b600855620186a060095f6101000a81548163ffffffff021916908363ffffffff1602179055506003600960046101000a81548161ffff021916908361ffff1602179055506001600960066101000a81548163ffffffff021916908363ffffffff1602179055506103e8600c5534801561009e575f5ffd5b5060405161441638038061441683398181016040528101906100c09190610484565b73da3b641d438362c440ac5458c57e00a712b6670033805f60015f819055505f73ffffffffffffffffffffffffffffffffffffffff168273ffffffffffffffffffffffffffffffffffffffff160361014d576040517f08c379a00000000000000000000000000000000000000000000000000000000081526004016101449061051c565b60405180910390fd5b8160015f6101000a81548173ffffffffffffffffffffffffffffffffffffffff021916908373ffffffffffffffffffffffffffffffffffffffff1602179055505f73ffffffffffffffffffffffffffffffffffffffff168173ffffffffffffffffffffffffffffffffffffffff16146101d0576101cf816102c760201b60201c565b5b5050505f73ffffffffffffffffffffffffffffffffffffffff168173ffffffffffffffffffffffffffffffffffffffff1603610238576040517fd92e233d00000000000000000000000000000000000000000000000000000000815260040160405180910390fd5b8060035f6101000a81548173ffffffffffffffffffffffffffffffffffffffff021916908373ffffffffffffffffffffffffffffffffffffffff1602179055505081600b5f6101000a81548173ffffffffffffffffffffffffffffffffffffffff021916908373ffffffffffffffffffffffffffffffffffffffff1602179055508060058190555050506105a2565b3373ffffffffffffffffffffffffffffffffffffffff168173ffffffffffffffffffffffffffffffffffffffff1603610335576040517f08c379a000000000000000000000000000000000000000000000000000000000815260040161032c90610584565b60405180910390fd5b8060025f6101000a81548173ffffffffffffffffffffffffffffffffffffffff021916908373ffffffffffffffffffffffffffffffffffffffff1602179055508073ffffffffffffffffffffffffffffffffffffffff1660015f9054906101000a900473ffffffffffffffffffffffffffffffffffffffff1673ffffffffffffffffffffffffffffffffffffffff167fed8889f560326eb138920d842192f0eb3dd22b4f139c87a2c57538e05bae127860405160405180910390a350565b5f5ffd5b5f73ffffffffffffffffffffffffffffffffffffffff82169050919050565b5f610420826103f7565b9050919050565b61043081610416565b811461043a575f5ffd5b50565b5f8151905061044b81610427565b92915050565b5f819050919050565b61046381610451565b811461046d575f5ffd5b50565b5f8151905061047e8161045a565b92915050565b5f5f6040838503121561049a576104996103f3565b5b5f6104a78582860161043d565b92505060206104b885828601610470565b9150509250929050565b5f82825260208201905092915050565b7f43616e6e6f7420736574206f776e657220746f207a65726f00000000000000005f82015250565b5f6105066018836104c2565b9150610511826104d2565b602082019050919050565b5f6020820190508181035f830152610533816104fa565b9050919050565b7f43616e6e6f74207472616e7366657220746f2073656c660000000000000000005f82015250565b5f61056e6017836104c2565b91506105798261053a565b602082019050919050565b5f6020820190508181035f83015261059b81610562565b9050919050565b613e67806105af5f395ff3fe608060405234801561000f575f5ffd5b50600436106101cd575f3560e01c80637ccfd7fc11610102578063b0fb162f116100a0578063f2fde38b1161006f578063f2fde38b1461052a578063f3fef3a314610546578063fc2a88c314610562578063fe96e4ff14610580576101cd565b8063b0fb162f146104a3578063d8a4676f146104c1578063e785c309146104f2578063f0f442601461050e576101cd565b80638da5cb5b116100dc5780638da5cb5b1461041a5780638ea98117146104385780639eccacf614610454578063a168fa8914610472576101cd565b80637ccfd7fc146103ae5780638796ba8c146103cc5780638ac00021146103fc576101cd565b8063579e94ee1161016f57806361d027b31161014957806361d027b31461034a5780636b86abf21461036857806370d5ae051461038657806379ba5097146103a4576101cd565b8063579e94ee146102dc5780635c975abb1461030e57806361728f391461032c576101cd565b806324f74697116101ab57806324f746971461023c5780633d2fd1771461025a57806347e1d550146102765780634fb3d3b1146102ac576101cd565b80630f23a3c1146101d15780631fe543e3146101ed57806322e8b99014610209575b5f5ffd5b6101eb60048036038101906101e691906129de565b61059e565b005b61020760048036038101906102029190612aa3565b6107b6565b005b610223600480360381019061021e9190612b00565b61087a565b6040516102339493929190612b5c565b60405180910390f35b6102446108df565b6040516102519190612bbd565b60405180910390f35b610274600480360381019061026f9190612bd6565b6108f4565b005b610290600480360381019061028b9190612c3a565b610a3e565b6040516102a39796959493929190612da7565b60405180910390f35b6102c660048036038101906102c19190612e1b565b610baf565b6040516102d39190612e46565b60405180910390f35b6102f660048036038101906102f19190612c3a565b610cba565b60405161030593929190612e66565b60405180910390f35b610316610cff565b6040516103239190612e9b565b60405180910390f35b610334610d15565b6040516103419190612ecc565b60405180910390f35b610352610d1b565b60405161035f9190612ee5565b60405180910390f35b610370610d40565b60405161037d9190612efe565b60405180910390f35b61038e610d46565b60405161039b9190612ee5565b60405180910390f35b6103ac610d4c565b005b6103b6610edd565b6040516103c39190612bbd565b60405180910390f35b6103e660048036038101906103e19190612c3a565b610ef3565b6040516103f39190612efe565b60405180910390f35b610404610f13565b6040516104119190612efe565b60405180910390f35b610422610f19565b60405161042f9190612ee5565b60405180910390f35b610452600480360381019061044d9190612e1b565b610f41565b005b61045c61111e565b6040516104699190612f72565b60405180910390f35b61048c60048036038101906104879190612c3a565b611143565b60405161049a929190612f8b565b60405180910390f35b6104ab61117b565b6040516104b89190612fce565b60405180910390f35b6104db60048036038101906104d69190612c3a565b61118f565b6040516104e992919061308f565b60405180910390f35b61050c600480360381019061050791906130f7565b6112ad565b005b61052860048036038101906105239190612e1b565b61161e565b005b610544600480360381019061053f9190612e1b565b6116d9565b005b610560600480360381019061055b9190612b00565b6116ed565b005b61056a61182e565b6040516105779190612efe565b60405180910390f35b610588611834565b6040516105959190613135565b60405180910390f35b6105a66119b1565b600c5482846105b59190613182565b60ff1611156105f9576040517f08c379a00000000000000000000000000000000000000000000000000000000081526004016105f090613210565b60405180910390fd5b600e60018160018154018082558091505003905f5260205f209050505f600e6001600e8054905061062a919061322e565b8154811061063b5761063a613261565b5b905f5260205f209060050201905084815f015f6101000a81548173ffffffffffffffffffffffffffffffffffffffff021916908373ffffffffffffffffffffffffffffffffffffffff16021790555060105f9054906101000a900464ffffffffff16815f0160146101000a81548164ffffffffff021916908364ffffffffff16021790555083815f0160196101000a81548160ff021916908360ff16021790555082815f01601a6101000a81548160ff021916908360ff1602179055508181600201819055506001816004015f6101000a81548160ff02191690831515021790555060105f81819054906101000a900464ffffffffff168092919061073f9061328e565b91906101000a81548164ffffffffff021916908364ffffffffff160217905550507f7dfb67e9ff596fca4da65c7eedb128cd1aac553af54b3c0cb733625a2480d8bd815f0160149054906101000a900464ffffffffff1686846040516107a7939291906132ea565b60405180910390a15050505050565b60035f9054906101000a900473ffffffffffffffffffffffffffffffffffffffff1673ffffffffffffffffffffffffffffffffffffffff163373ffffffffffffffffffffffffffffffffffffffff161461086a573360035f9054906101000a900473ffffffffffffffffffffffffffffffffffffffff166040517f1cf993f400000000000000000000000000000000000000000000000000000000815260040161086192919061331f565b60405180910390fd5b610875838383611a42565b505050565b600f602052815f5260405f208181548110610893575f80fd5b905f5260205f2090600402015f9150915050805f015f9054906101000a900473ffffffffffffffffffffffffffffffffffffffff16908060010154908060020154908060030154905084565b60095f9054906101000a900463ffffffff1681565b6108fc6119b1565b600e805490508410610943576040517f08c379a000000000000000000000000000000000000000000000000000000000815260040161093a90613390565b60405180910390fd5b600c5482846109529190613182565b60ff161115610996576040517f08c379a000000000000000000000000000000000000000000000000000000000815260040161098d90613210565b60405180910390fd5b5f600e85815481106109ab576109aa613261565b5b905f5260205f209060050201905083815f0160196101000a81548160ff021916908360ff16021790555082815f01601a6101000a81548160ff021916908360ff1602179055508181600201819055507f5e84975700b4b9d77005da1bdcf9f1260ddbd98cc64b427716ba4778079a511e85858585604051610a2f94939291906133ae565b60405180910390a15050505050565b5f5f5f5f60605f5f5f600e8981548110610a5b57610a5a613261565b5b905f5260205f2090600502019050805f015f9054906101000a900473ffffffffffffffffffffffffffffffffffffffff16815f0160199054906101000a900460ff16825f01601a9054906101000a900460ff168360010154846003018560020154866004015f9054906101000a900460ff1682805480602002602001604051908101604052809291908181526020015f905b82821015610b8f578382905f5260205f2090600402016040518060800160405290815f82015f9054906101000a900473ffffffffffffffffffffffffffffffffffffffff1673ffffffffffffffffffffffffffffffffffffffff1673ffffffffffffffffffffffffffffffffffffffff168152602001600182015481526020016002820154815260200160038201548152505081526020019060010190610aed565b505050509250975097509750975097509750975050919395979092949650565b6060600f5f8373ffffffffffffffffffffffffffffffffffffffff1673ffffffffffffffffffffffffffffffffffffffff1681526020019081526020015f20805480602002602001604051908101604052809291908181526020015f905b82821015610caf578382905f5260205f2090600402016040518060800160405290815f82015f9054906101000a900473ffffffffffffffffffffffffffffffffffffffff1673ffffffffffffffffffffffffffffffffffffffff1673ffffffffffffffffffffffffffffffffffffffff168152602001600182015481526020016002820154815260200160038201548152505081526020019060010190610c0d565b505050509050919050565b600d602052805f5260405f205f91509050805f015490806001015490806002015f9054906101000a900473ffffffffffffffffffffffffffffffffffffffff16905083565b5f600360149054906101000a900460ff16905090565b60085481565b600b5f9054906101000a900473ffffffffffffffffffffffffffffffffffffffff1681565b600a5481565b61dead81565b60025f9054906101000a900473ffffffffffffffffffffffffffffffffffffffff1673ffffffffffffffffffffffffffffffffffffffff163373ffffffffffffffffffffffffffffffffffffffff1614610ddb576040517f08c379a0000000000000000000000000000000000000000000000000000000008152600401610dd29061343b565b60405180910390fd5b5f60015f9054906101000a900473ffffffffffffffffffffffffffffffffffffffff1690503360015f6101000a81548173ffffffffffffffffffffffffffffffffffffffff021916908373ffffffffffffffffffffffffffffffffffffffff1602179055505f60025f6101000a81548173ffffffffffffffffffffffffffffffffffffffff021916908373ffffffffffffffffffffffffffffffffffffffff1602179055503373ffffffffffffffffffffffffffffffffffffffff168173ffffffffffffffffffffffffffffffffffffffff167f8be0079c531659141344cd1fd0a4f28419497f9722a3daafe3b4186f6b6457e060405160405180910390a350565b600960069054906101000a900463ffffffff1681565b60068181548110610f02575f80fd5b905f5260205f20015f915090505481565b60055481565b5f60015f9054906101000a900473ffffffffffffffffffffffffffffffffffffffff16905090565b610f49610f19565b73ffffffffffffffffffffffffffffffffffffffff163373ffffffffffffffffffffffffffffffffffffffff1614158015610fd1575060035f9054906101000a900473ffffffffffffffffffffffffffffffffffffffff1673ffffffffffffffffffffffffffffffffffffffff163373ffffffffffffffffffffffffffffffffffffffff1614155b1561103f5733610fdf610f19565b60035f9054906101000a900473ffffffffffffffffffffffffffffffffffffffff166040517f061db9c100000000000000000000000000000000000000000000000000000000815260040161103693929190613459565b60405180910390fd5b5f73ffffffffffffffffffffffffffffffffffffffff168173ffffffffffffffffffffffffffffffffffffffff16036110a4576040517fd92e233d00000000000000000000000000000000000000000000000000000000815260040160405180910390fd5b8060035f6101000a81548173ffffffffffffffffffffffffffffffffffffffff021916908373ffffffffffffffffffffffffffffffffffffffff1602179055507fd1a6a14209a385a964d036e404cb5cfb71f4000cdb03c9366292430787261be6816040516111139190612ee5565b60405180910390a150565b60035f9054906101000a900473ffffffffffffffffffffffffffffffffffffffff1681565b6004602052805f5260405f205f91509050805f015f9054906101000a900460ff1690805f0160019054906101000a900460ff16905082565b600960049054906101000a900461ffff1681565b5f606060045f8481526020019081526020015f205f0160019054906101000a900460ff166111f2576040517f08c379a00000000000000000000000000000000000000000000000000000000081526004016111e9906134d8565b60405180910390fd5b5f60045f8581526020019081526020015f206040518060600160405290815f82015f9054906101000a900460ff161515151581526020015f820160019054906101000a900460ff161515151581526020016001820180548060200260200160405190810160405280929190818152602001828054801561128f57602002820191905f5260205f20905b81548152602001906001019080831161127b575b5050505050815250509050805f015181604001519250925050915091565b60025f54036112f1576040517f08c379a00000000000000000000000000000000000000000000000000000000081526004016112e890613540565b60405180910390fd5b60025f81905550611300611c31565b600e805490508264ffffffffff161061134e576040517f08c379a000000000000000000000000000000000000000000000000000000000815260040161134590613390565b60405180910390fd5b5f600e8364ffffffffff168154811061136a57611369613261565b5b905f5260205f209060050201905080600201548210156113bf576040517f08c379a00000000000000000000000000000000000000000000000000000000081526004016113b6906135ce565b60405180910390fd5b806004015f9054906101000a900460ff1661140f576040517f08c379a000000000000000000000000000000000000000000000000000000000815260040161140690613636565b60405180910390fd5b805f015f9054906101000a900473ffffffffffffffffffffffffffffffffffffffff1673ffffffffffffffffffffffffffffffffffffffff166323b872dd3330856040518463ffffffff1660e01b815260040161146e93929190613654565b6020604051808303815f875af115801561148a573d5f5f3e3d5ffd5b505050506040513d601f19601f820116820180604052508101906114ae91906136b3565b6114ed576040517f08c379a00000000000000000000000000000000000000000000000000000000081526004016114e490613728565b60405180910390fd5b7f33303534f11f536b37a484a89f8695e821fc39bf65e2d9349c5de1ab124f5c6d833384604051611520939291906132ea565b60405180910390a15f6115325f611c72565b905060405180606001604052808564ffffffffff1681526020018481526020013373ffffffffffffffffffffffffffffffffffffffff16815250600d5f8381526020019081526020015f205f820151815f0155602082015181600101556040820151816002015f6101000a81548173ffffffffffffffffffffffffffffffffffffffff021916908373ffffffffffffffffffffffffffffffffffffffff1602179055509050507f24f3e31c9991c9df649b2cdf6c88214f02bd1a117886fad980699ac87899cc248185604051611609929190613746565b60405180910390a1505060015f819055505050565b6116266119b1565b61dead73ffffffffffffffffffffffffffffffffffffffff168173ffffffffffffffffffffffffffffffffffffffff160361165f575f5ffd5b80600b5f6101000a81548173ffffffffffffffffffffffffffffffffffffffff021916908373ffffffffffffffffffffffffffffffffffffffff1602179055507f7dae230f18360d76a040c81f050aa14eb9d6dc7901b20fc5d855e2a20fe814d1816040516116ce9190612ee5565b60405180910390a150565b6116e16119b1565b6116ea81611eec565b50565b6116f56119b1565b808273ffffffffffffffffffffffffffffffffffffffff166370a08231306040518263ffffffff1660e01b815260040161172f9190612ee5565b602060405180830381865afa15801561174a573d5f5f3e3d5ffd5b505050506040513d601f19601f8201168201806040525081019061176e9190613781565b116117ae576040517f08c379a00000000000000000000000000000000000000000000000000000000081526004016117a5906137f6565b60405180910390fd5b8173ffffffffffffffffffffffffffffffffffffffff1663a9059cbb33836040518363ffffffff1660e01b81526004016117e9929190613814565b6020604051808303815f875af1158015611805573d5f5f3e3d5ffd5b505050506040513d601f19601f8201168201806040525081019061182991906136b3565b505050565b60075481565b60605f5f90505f5f90505b600e805490508164ffffffffff1610156118b157600e8164ffffffffff168154811061186e5761186d613261565b5b905f5260205f2090600502016004015f9054906101000a900460ff161561189e57818061189a9061383b565b9250505b80806118a99061328e565b91505061183f565b505f8167ffffffffffffffff8111156118cd576118cc613882565b5b6040519080825280602002602001820160405280156118fb5781602001602082028036833780820191505090505b5090505f5f90505f5f90505b600e805490508164ffffffffff1610156119a757600e8164ffffffffff168154811061193657611935613261565b5b905f5260205f2090600502016004015f9054906101000a900460ff1615611994578064ffffffffff16838364ffffffffff168151811061197957611978613261565b5b60200260200101818152505081806119909061328e565b9250505b808061199f9061328e565b915050611907565b5081935050505090565b60015f9054906101000a900473ffffffffffffffffffffffffffffffffffffffff1673ffffffffffffffffffffffffffffffffffffffff163373ffffffffffffffffffffffffffffffffffffffff1614611a40576040517f08c379a0000000000000000000000000000000000000000000000000000000008152600401611a37906138f9565b60405180910390fd5b565b60045f8481526020019081526020015f205f0160019054906101000a900460ff16611aa2576040517f08c379a0000000000000000000000000000000000000000000000000000000008152600401611a99906134d8565b60405180910390fd5b600160045f8581526020019081526020015f205f015f6101000a81548160ff021916908315150217905550818160045f8681526020019081526020015f206001019190611af0929190612862565b5081815f818110611b0457611b03613261565b5b90506020020135600a819055507ffe2e2d779dba245964d4e3ef9b994be63856fd568bf7d3ca9e224755cb1bd54d838383604051611b449392919061397f565b60405180910390a15f600d5f8581526020019081526020015f206040518060600160405290815f820154815260200160018201548152602001600282015f9054906101000a900473ffffffffffffffffffffffffffffffffffffffff1673ffffffffffffffffffffffffffffffffffffffff1673ffffffffffffffffffffffffffffffffffffffff16815250509050611be4815f01518260200151612018565b600d5f8581526020019081526020015f205f5f82015f9055600182015f9055600282015f6101000a81549073ffffffffffffffffffffffffffffffffffffffff0219169055505050505050565b611c39610cff565b15611c70576040517fd93c066500000000000000000000000000000000000000000000000000000000815260040160405180910390fd5b565b5f60035f9054906101000a900473ffffffffffffffffffffffffffffffffffffffff1673ffffffffffffffffffffffffffffffffffffffff16639b1c385e6040518060c0016040528060085481526020016005548152602001600960049054906101000a900461ffff1661ffff16815260200160095f9054906101000a900463ffffffff1663ffffffff168152602001600960069054906101000a900463ffffffff1663ffffffff168152602001611d3960405180602001604052808815158152506127ca565b8152506040518263ffffffff1660e01b8152600401611d589190613ad2565b6020604051808303815f875af1158015611d74573d5f5f3e3d5ffd5b505050506040513d601f19601f82011682018060405250810190611d989190613781565b905060405180606001604052805f151581526020016001151581526020015f67ffffffffffffffff811115611dd057611dcf613882565b5b604051908082528060200260200182016040528015611dfe5781602001602082028036833780820191505090505b5081525060045f8381526020019081526020015f205f820151815f015f6101000a81548160ff0219169083151502179055506020820151815f0160016101000a81548160ff0219169083151502179055506040820151816001019080519060200190611e6b9291906128ad565b50905050600681908060018154018082558091505060019003905f5260205f20015f9091909190915055806007819055507fcc58b13ad3eab50626c6a6300b1d139cd6ebb1688a7cced9461c2f7e762665ee81600960069054906101000a900463ffffffff16604051611edf929190613af2565b60405180910390a1919050565b3373ffffffffffffffffffffffffffffffffffffffff168173ffffffffffffffffffffffffffffffffffffffff1603611f5a576040517f08c379a0000000000000000000000000000000000000000000000000000000008152600401611f5190613b63565b60405180910390fd5b8060025f6101000a81548173ffffffffffffffffffffffffffffffffffffffff021916908373ffffffffffffffffffffffffffffffffffffffff1602179055508073ffffffffffffffffffffffffffffffffffffffff1660015f9054906101000a900473ffffffffffffffffffffffffffffffffffffffff1673ffffffffffffffffffffffffffffffffffffffff167fed8889f560326eb138920d842192f0eb3dd22b4f139c87a2c57538e05bae127860405160405180910390a350565b5f600a5490505f600e848154811061203357612032613261565b5b905f5260205f20906005020190505f600c54825f0160199054906101000a900460ff1660ff16856120649190613b81565b61206e9190613bef565b90505f600c54835f01601a9054906101000a900460ff1660ff16866120939190613b81565b61209d9190613bef565b90505f81836002886120af9190613b81565b6120b9919061322e565b6120c3919061322e565b9050835f015f9054906101000a900473ffffffffffffffffffffffffffffffffffffffff1673ffffffffffffffffffffffffffffffffffffffff1663a9059cbb61dead856040518363ffffffff1660e01b8152600401612124929190613814565b6020604051808303815f875af1158015612140573d5f5f3e3d5ffd5b505050506040513d601f19601f8201168201806040525081019061216491906136b3565b6121a3576040517f08c379a000000000000000000000000000000000000000000000000000000000815260040161219a90613c69565b60405180910390fd5b835f015f9054906101000a900473ffffffffffffffffffffffffffffffffffffffff1673ffffffffffffffffffffffffffffffffffffffff1663a9059cbb600b5f9054906101000a900473ffffffffffffffffffffffffffffffffffffffff16846040518363ffffffff1660e01b8152600401612221929190613814565b6020604051808303815f875af115801561223d573d5f5f3e3d5ffd5b505050506040513d601f19601f8201168201806040525081019061226191906136b3565b6122a0576040517f08c379a000000000000000000000000000000000000000000000000000000000815260040161229790613cd1565b60405180910390fd5b5f6002866122ae9190613cef565b0361257157835f015f9054906101000a900473ffffffffffffffffffffffffffffffffffffffff1673ffffffffffffffffffffffffffffffffffffffff1663a9059cbb33836040518363ffffffff1660e01b8152600401612310929190613814565b6020604051808303815f875af115801561232c573d5f5f3e3d5ffd5b505050506040513d601f19601f8201168201806040525081019061235091906136b3565b61238f576040517f08c379a000000000000000000000000000000000000000000000000000000000815260040161238690613d69565b60405180910390fd5b8360030160405180608001604052803373ffffffffffffffffffffffffffffffffffffffff16815260200188815260200142815260200183815250908060018154018082558091505060019003905f5260205f2090600402015f909190919091505f820151815f015f6101000a81548173ffffffffffffffffffffffffffffffffffffffff021916908373ffffffffffffffffffffffffffffffffffffffff1602179055506020820151816001015560408201518160020155606082015181600301555050600f5f3373ffffffffffffffffffffffffffffffffffffffff1673ffffffffffffffffffffffffffffffffffffffff1681526020019081526020015f2060405180608001604052803373ffffffffffffffffffffffffffffffffffffffff16815260200188815260200142815260200183815250908060018154018082558091505060019003905f5260205f2090600402015f909190919091505f820151815f015f6101000a81548173ffffffffffffffffffffffffffffffffffffffff021916908373ffffffffffffffffffffffffffffffffffffffff160217905550602082015181600101556040820151816002015560608201518160030155505085846001015f8282546125659190613d87565b9250508190555061274f565b8360030160405180608001604052803373ffffffffffffffffffffffffffffffffffffffff1681526020018881526020014281526020015f815250908060018154018082558091505060019003905f5260205f2090600402015f909190919091505f820151815f015f6101000a81548173ffffffffffffffffffffffffffffffffffffffff021916908373ffffffffffffffffffffffffffffffffffffffff1602179055506020820151816001015560408201518160020155606082015181600301555050600f5f3373ffffffffffffffffffffffffffffffffffffffff1673ffffffffffffffffffffffffffffffffffffffff1681526020019081526020015f2060405180608001604052803373ffffffffffffffffffffffffffffffffffffffff1681526020018881526020014281526020015f815250908060018154018082558091505060019003905f5260205f2090600402015f909190919091505f820151815f015f6101000a81548173ffffffffffffffffffffffffffffffffffffffff021916908373ffffffffffffffffffffffffffffffffffffffff160217905550602082015181600101556040820151816002015560608201518160030155505085846001015f8282546127479190613d87565b925050819055505b7fe3604b277b3c665bd13a770678b441d505b8b6261aad0397dd2bb9581461e8a98560405161277e9190612efe565b60405180910390a17f9c1e776cbdf221420917b223eb09503e61c8e990a1c09065cbf15bdff06a555e8733836040516127b993929190613dba565b60405180910390a150505050505050565b60607f92fd13387c7fe7befbc38d303d6468778fb9731bc4583f17d92989c6fcfdeaaa826040516024016127fe9190613e18565b604051602081830303815290604052907bffffffffffffffffffffffffffffffffffffffffffffffffffffffff19166020820180517bffffffffffffffffffffffffffffffffffffffffffffffffffffffff83818316178352505050509050919050565b828054828255905f5260205f2090810192821561289c579160200282015b8281111561289b578235825591602001919060010190612880565b5b5090506128a991906128f8565b5090565b828054828255905f5260205f209081019282156128e7579160200282015b828111156128e65782518255916020019190600101906128cb565b5b5090506128f491906128f8565b5090565b5b8082111561290f575f815f9055506001016128f9565b5090565b5f5ffd5b5f5ffd5b5f73ffffffffffffffffffffffffffffffffffffffff82169050919050565b5f6129448261291b565b9050919050565b6129548161293a565b811461295e575f5ffd5b50565b5f8135905061296f8161294b565b92915050565b5f60ff82169050919050565b61298a81612975565b8114612994575f5ffd5b50565b5f813590506129a581612981565b92915050565b5f819050919050565b6129bd816129ab565b81146129c7575f5ffd5b50565b5f813590506129d8816129b4565b92915050565b5f5f5f5f608085870312156129f6576129f5612913565b5b5f612a0387828801612961565b9450506020612a1487828801612997565b9350506040612a2587828801612997565b9250506060612a36878288016129ca565b91505092959194509250565b5f5ffd5b5f5ffd5b5f5ffd5b5f5f83601f840112612a6357612a62612a42565b5b8235905067ffffffffffffffff811115612a8057612a7f612a46565b5b602083019150836020820283011115612a9c57612a9b612a4a565b5b9250929050565b5f5f5f60408486031215612aba57612ab9612913565b5b5f612ac7868287016129ca565b935050602084013567ffffffffffffffff811115612ae857612ae7612917565b5b612af486828701612a4e565b92509250509250925092565b5f5f60408385031215612b1657612b15612913565b5b5f612b2385828601612961565b9250506020612b34858286016129ca565b9150509250929050565b612b478161293a565b82525050565b612b56816129ab565b82525050565b5f608082019050612b6f5f830187612b3e565b612b7c6020830186612b4d565b612b896040830185612b4d565b612b966060830184612b4d565b95945050505050565b5f63ffffffff82169050919050565b612bb781612b9f565b82525050565b5f602082019050612bd05f830184612bae565b92915050565b5f5f5f5f60808587031215612bee57612bed612913565b5b5f612bfb878288016129ca565b9450506020612c0c87828801612997565b9350506040612c1d87828801612997565b9250506060612c2e878288016129ca565b91505092959194509250565b5f60208284031215612c4f57612c4e612913565b5b5f612c5c848285016129ca565b91505092915050565b612c6e81612975565b82525050565b5f81519050919050565b5f82825260208201905092915050565b5f819050602082019050919050565b612ca68161293a565b82525050565b612cb5816129ab565b82525050565b608082015f820151612ccf5f850182612c9d565b506020820151612ce26020850182612cac565b506040820151612cf56040850182612cac565b506060820151612d086060850182612cac565b50505050565b5f612d198383612cbb565b60808301905092915050565b5f602082019050919050565b5f612d3b82612c74565b612d458185612c7e565b9350612d5083612c8e565b805f5b83811015612d80578151612d678882612d0e565b9750612d7283612d25565b925050600181019050612d53565b5085935050505092915050565b5f8115159050919050565b612da181612d8d565b82525050565b5f60e082019050612dba5f83018a612b3e565b612dc76020830189612c65565b612dd46040830188612c65565b612de16060830187612b4d565b8181036080830152612df38186612d31565b9050612e0260a0830185612b4d565b612e0f60c0830184612d98565b98975050505050505050565b5f60208284031215612e3057612e2f612913565b5b5f612e3d84828501612961565b91505092915050565b5f6020820190508181035f830152612e5e8184612d31565b905092915050565b5f606082019050612e795f830186612b4d565b612e866020830185612b4d565b612e936040830184612b3e565b949350505050565b5f602082019050612eae5f830184612d98565b92915050565b5f819050919050565b612ec681612eb4565b82525050565b5f602082019050612edf5f830184612ebd565b92915050565b5f602082019050612ef85f830184612b3e565b92915050565b5f602082019050612f115f830184612b4d565b92915050565b5f819050919050565b5f612f3a612f35612f308461291b565b612f17565b61291b565b9050919050565b5f612f4b82612f20565b9050919050565b5f612f5c82612f41565b9050919050565b612f6c81612f52565b82525050565b5f602082019050612f855f830184612f63565b92915050565b5f604082019050612f9e5f830185612d98565b612fab6020830184612d98565b9392505050565b5f61ffff82169050919050565b612fc881612fb2565b82525050565b5f602082019050612fe15f830184612fbf565b92915050565b5f81519050919050565b5f82825260208201905092915050565b5f819050602082019050919050565b5f61301b8383612cac565b60208301905092915050565b5f602082019050919050565b5f61303d82612fe7565b6130478185612ff1565b935061305283613001565b805f5b838110156130825781516130698882613010565b975061307483613027565b925050600181019050613055565b5085935050505092915050565b5f6040820190506130a25f830185612d98565b81810360208301526130b48184613033565b90509392505050565b5f64ffffffffff82169050919050565b6130d6816130bd565b81146130e0575f5ffd5b50565b5f813590506130f1816130cd565b92915050565b5f5f6040838503121561310d5761310c612913565b5b5f61311a858286016130e3565b925050602061312b858286016129ca565b9150509250929050565b5f6020820190508181035f83015261314d8184613033565b905092915050565b7f4e487b71000000000000000000000000000000000000000000000000000000005f52601160045260245ffd5b5f61318c82612975565b915061319783612975565b9250828201905060ff8111156131b0576131af613155565b5b92915050565b5f82825260208201905092915050565b7f496e76616c69642066656520636f6e66696775726174696f6e000000000000005f82015250565b5f6131fa6019836131b6565b9150613205826131c6565b602082019050919050565b5f6020820190508181035f830152613227816131ee565b9050919050565b5f613238826129ab565b9150613243836129ab565b925082820390508181111561325b5761325a613155565b5b92915050565b7f4e487b71000000000000000000000000000000000000000000000000000000005f52603260045260245ffd5b5f613298826130bd565b915064ffffffffff82036132af576132ae613155565b5b600182019050919050565b5f6132d46132cf6132ca846130bd565b612f17565b6129ab565b9050919050565b6132e4816132ba565b82525050565b5f6060820190506132fd5f8301866132db565b61330a6020830185612b3e565b6133176040830184612b4d565b949350505050565b5f6040820190506133325f830185612b3e565b61333f6020830184612b3e565b9392505050565b7f4e6f20706f6f6c000000000000000000000000000000000000000000000000005f82015250565b5f61337a6007836131b6565b915061338582613346565b602082019050919050565b5f6020820190508181035f8301526133a78161336e565b9050919050565b5f6080820190506133c15f830187612b4d565b6133ce6020830186612c65565b6133db6040830185612c65565b6133e86060830184612b4d565b95945050505050565b7f4d7573742062652070726f706f736564206f776e6572000000000000000000005f82015250565b5f6134256016836131b6565b9150613430826133f1565b602082019050919050565b5f6020820190508181035f83015261345281613419565b9050919050565b5f60608201905061346c5f830186612b3e565b6134796020830185612b3e565b6134866040830184612b3e565b949350505050565b7f72657175657374206e6f7420666f756e640000000000000000000000000000005f82015250565b5f6134c26011836131b6565b91506134cd8261348e565b602082019050919050565b5f6020820190508181035f8301526134ef816134b6565b9050919050565b7f5265656e7472616e637947756172643a207265656e7472616e742063616c6c005f82015250565b5f61352a601f836131b6565b9150613535826134f6565b602082019050919050565b5f6020820190508181035f8301526135578161351e565b9050919050565b7f416d6f756e7420697320736d616c6c6572207468616e205469636b65745072695f8201527f6365000000000000000000000000000000000000000000000000000000000000602082015250565b5f6135b86022836131b6565b91506135c38261355e565b604082019050919050565b5f6020820190508181035f8301526135e5816135ac565b9050919050565b7f506f6f6c206973206e6f742061637469766500000000000000000000000000005f82015250565b5f6136206012836131b6565b915061362b826135ec565b602082019050919050565b5f6020820190508181035f83015261364d81613614565b9050919050565b5f6060820190506136675f830186612b3e565b6136746020830185612b3e565b6136816040830184612b4d565b949350505050565b61369281612d8d565b811461369c575f5ffd5b50565b5f815190506136ad81613689565b92915050565b5f602082840312156136c8576136c7612913565b5b5f6136d58482850161369f565b91505092915050565b7f456e7465722047616d6520546f6b656e205472616e73666572204661696c65645f82015250565b5f6137126020836131b6565b915061371d826136de565b602082019050919050565b5f6020820190508181035f83015261373f81613706565b9050919050565b5f6040820190506137595f830185612b4d565b61376660208301846132db565b9392505050565b5f8151905061377b816129b4565b92915050565b5f6020828403121561379657613795612913565b5b5f6137a38482850161376d565b91505092915050565b7f42616c616e6365206973206e6f7420656e6f75676800000000000000000000005f82015250565b5f6137e06015836131b6565b91506137eb826137ac565b602082019050919050565b5f6020820190508181035f83015261380d816137d4565b9050919050565b5f6040820190506138275f830185612b3e565b6138346020830184612b4d565b9392505050565b5f613845826129ab565b91507fffffffffffffffffffffffffffffffffffffffffffffffffffffffffffffffff820361387757613876613155565b5b600182019050919050565b7f4e487b71000000000000000000000000000000000000000000000000000000005f52604160045260245ffd5b7f4f6e6c792063616c6c61626c65206279206f776e6572000000000000000000005f82015250565b5f6138e36016836131b6565b91506138ee826138af565b602082019050919050565b5f6020820190508181035f830152613910816138d7565b9050919050565b5f5ffd5b82818337505050565b5f61392f8385612ff1565b93507f07ffffffffffffffffffffffffffffffffffffffffffffffffffffffffffffff83111561396257613961613917565b5b60208302925061397383858461391b565b82840190509392505050565b5f6040820190506139925f830186612b4d565b81810360208301526139a5818486613924565b9050949350505050565b6139b881612eb4565b82525050565b6139c781612fb2565b82525050565b6139d681612b9f565b82525050565b5f81519050919050565b5f82825260208201905092915050565b8281835e5f83830152505050565b5f601f19601f8301169050919050565b5f613a1e826139dc565b613a2881856139e6565b9350613a388185602086016139f6565b613a4181613a04565b840191505092915050565b5f60c083015f830151613a615f8601826139af565b506020830151613a746020860182612cac565b506040830151613a8760408601826139be565b506060830151613a9a60608601826139cd565b506080830151613aad60808601826139cd565b5060a083015184820360a0860152613ac58282613a14565b9150508091505092915050565b5f6020820190508181035f830152613aea8184613a4c565b905092915050565b5f604082019050613b055f830185612b4d565b613b126020830184612bae565b9392505050565b7f43616e6e6f74207472616e7366657220746f2073656c660000000000000000005f82015250565b5f613b4d6017836131b6565b9150613b5882613b19565b602082019050919050565b5f6020820190508181035f830152613b7a81613b41565b9050919050565b5f613b8b826129ab565b9150613b96836129ab565b9250828202613ba4816129ab565b91508282048414831517613bbb57613bba613155565b5b5092915050565b7f4e487b71000000000000000000000000000000000000000000000000000000005f52601260045260245ffd5b5f613bf9826129ab565b9150613c04836129ab565b925082613c1457613c13613bc2565b5b828204905092915050565b7f4275726e205472616e73666572204661696c65640000000000000000000000005f82015250565b5f613c536014836131b6565b9150613c5e82613c1f565b602082019050919050565b5f6020820190508181035f830152613c8081613c47565b9050919050565b7f5472656173757279205472616e73666572204661696c656400000000000000005f82015250565b5f613cbb6018836131b6565b9150613cc682613c87565b602082019050919050565b5f6020820190508181035f830152613ce881613caf565b9050919050565b5f613cf9826129ab565b9150613d04836129ab565b925082613d1457613d13613bc2565b5b828206905092915050565b7f57696e6e657220526577617264205472616e73666572204661696c65640000005f82015250565b5f613d53601d836131b6565b9150613d5e82613d1f565b602082019050919050565b5f6020820190508181035f830152613d8081613d47565b9050919050565b5f613d91826129ab565b9150613d9c836129ab565b9250828201905080821115613db457613db3613155565b5b92915050565b5f606082019050613dcd5f830186612b4d565b613dda6020830185612b3e565b613de76040830184612b4d565b949350505050565b613df881612d8d565b82525050565b602082015f820151613e125f850182613def565b50505050565b5f602082019050613e2b5f830184613dfe565b9291505056fea26469706673582212207528ccf9ac22d4bc7b3a8623290ae17ebb604c81bab408679c81bfa229f3e71464736f6c634300081e0033","linkReferences":{}},"methodIdentifiers":{"acceptOwnership()":"79ba5097","burnAddress()":"70d5ae05","callbackGasLimit()":"24f74697","createGame(address,uint8,uint8,uint256)":"0f23a3c1","enterGame(uint40,uint256)":"e785c309","getActivePoolIds()":"fe96e4ff","getGameInfo(uint256)":"47e1d550","getRequestStatus(uint256)":"d8a4676f","getUserHistory(address)":"4fb3d3b1","keyHash()":"61728f39","lastRequestId()":"fc2a88c3","latestRandomWord()":"6b86abf2","numWords()":"7ccfd7fc","owner()":"8da5cb5b","paused()":"5c975abb","pendingGames(uint256)":"579e94ee","rawFulfillRandomWords(uint256,uint256[])":"1fe543e3","requestConfirmations()":"b0fb162f","requestIds(uint256)":"8796ba8c","s_requests(uint256)":"a168fa89","s_subscriptionId()":"8ac00021","s_vrfCoordinator()":"9eccacf6","setCoordinator(address)":"8ea98117","setGameData(uint256,uint8,uint8,uint256)":"3d2fd177","setTreasury(address)":"f0f44260","transferOwnership(address)":"f2fde38b","treasury()":"61d027b3","userHistory(address,uint256)":"22e8b990","withdraw(address,uint256)":"f3fef3a3"},"id":40}