{"abi":[{"type":"constructor","inputs":[{"name":"_treasury","type":"address","internalType":"address"},{"name":"_subscriptionId","type":"uint256","internalType":"uint256"}],"stateMutability":"nonpayable"},{"type":"function","name":"BASE_DIVIDER","inputs":[],"outputs":[{"name":"","type":"uint256","internalType":"uint256"}],"stateMutability":"view"},{"type":"function","name":"BURN_ADDRESS","inputs":[],"outputs":[{"name":"","type":"address","internalType":"address"}],"stateMutability":"view"},{"type":"function","name":"acceptOwnership","inputs":[],"outputs":[],"stateMutability":"nonpayable"},{"type":"function","name":"callbackGasLimit","inputs":[],"outputs":[{"name":"","type":"uint32","internalType":"uint32"}],"stateMutability":"view"},{"type":"function","name":"claimPayout","inputs":[{"name":"_poolId","type":"bytes32","internalType":"bytes32"}],"outputs":[],"stateMutability":"nonpayable"},{"type":"function","name":"cleanExpiredEmptyPools","inputs":[{"name":"max","type":"uint256","internalType":"uint256"}],"outputs":[],"stateMutability":"nonpayable"},{"type":"function","name":"createPool","inputs":[{"name":"_baseToken","type":"address","internalType":"address"},{"name":"_burnFee","type":"uint8","internalType":"uint8"},{"name":"_treasuryFee","type":"uint8","internalType":"uint8"},{"name":"_limitAmount","type":"uint256","internalType":"uint256"},{"name":"_ticketPrice","type":"uint256","internalType":"uint256"},{"name":"_poolType","type":"bool","internalType":"bool"}],"outputs":[{"name":"poolId","type":"bytes32","internalType":"bytes32"}],"stateMutability":"nonpayable"},{"type":"function","name":"enterPool","inputs":[{"name":"_poolId","type":"bytes32","internalType":"bytes32"},{"name":"_xpAmount","type":"uint256","internalType":"uint256"}],"outputs":[],"stateMutability":"nonpayable"},{"type":"function","name":"getAllPoolIds","inputs":[],"outputs":[{"name":"","type":"bytes32[]","internalType":"bytes32[]"}],"stateMutability":"view"},{"type":"function","name":"getPoolConfig","inputs":[{"name":"_poolId","type":"bytes32","internalType":"bytes32"}],"outputs":[{"name":"baseToken","type":"address","internalType":"address"},{"name":"burnFee","type":"uint8","internalType":"uint8"},{"name":"treasuryFee","type":"uint8","internalType":"uint8"},{"name":"limitAmount","type":"uint256","internalType":"uint256"},{"name":"ticketPrice","type":"uint256","internalType":"uint256"},{"name":"startTime","type":"uint256","internalType":"uint256"},{"name":"limitDuration","type":"uint256","internalType":"uint256"},{"name":"isActive","type":"bool","internalType":"bool"},{"name":"drawn","type":"bool","internalType":"bool"},{"name":"poolType","type":"bool","internalType":"bool"},{"name":"payoutClaimed","type":"bool","internalType":"bool"},{"name":"winnerAddress","type":"address","internalType":"address"}],"stateMutability":"view"},{"type":"function","name":"getPoolState","inputs":[{"name":"_poolId","type":"bytes32","internalType":"bytes32"}],"outputs":[{"name":"totalXpAmount","type":"uint256","internalType":"uint256"},{"name":"users","type":"tuple[]","internalType":"struct WavePrizePool.User[]","components":[{"name":"user","type":"address","internalType":"address"},{"name":"xpAmount","type":"uint256","internalType":"uint256"},{"name":"betTime","type":"uint256","internalType":"uint256"},{"name":"rewardAmount","type":"uint256","internalType":"uint256"}]},{"name":"winner","type":"tuple","internalType":"struct WavePrizePool.User","components":[{"name":"user","type":"address","internalType":"address"},{"name":"xpAmount","type":"uint256","internalType":"uint256"},{"name":"betTime","type":"uint256","internalType":"uint256"},{"name":"rewardAmount","type":"uint256","internalType":"uint256"}]}],"stateMutability":"view"},{"type":"function","name":"getRequestStatus","inputs":[{"name":"_requestId","type":"uint256","internalType":"uint256"}],"outputs":[{"name":"fulfilled","type":"bool","internalType":"bool"},{"name":"randomWords","type":"uint256[]","internalType":"uint256[]"}],"stateMutability":"view"},{"type":"function","name":"isVRF","inputs":[],"outputs":[{"name":"","type":"bool","internalType":"bool"}],"stateMutability":"view"},{"type":"function","name":"keyHash","inputs":[],"outputs":[{"name":"","type":"bytes32","internalType":"bytes32"}],"stateMutability":"view"},{"type":"function","name":"numWords","inputs":[],"outputs":[{"name":"","type":"uint32","internalType":"uint32"}],"stateMutability":"view"},{"type":"function","name":"owner","inputs":[],"outputs":[{"name":"","type":"address","internalType":"address"}],"stateMutability":"view"},{"type":"function","name":"pause","inputs":[],"outputs":[],"stateMutability":"nonpayable"},{"type":"function","name":"paused","inputs":[],"outputs":[{"name":"","type":"bool","internalType":"bool"}],"stateMutability":"view"},{"type":"function","name":"poolIdToRequestId","inputs":[{"name":"","type":"bytes32","internalType":"bytes32"}],"outputs":[{"name":"","type":"uint256","internalType":"uint256"}],"stateMutability":"view"},{"type":"function","name":"poolIds","inputs":[{"name":"","type":"uint256","internalType":"uint256"}],"outputs":[{"name":"","type":"bytes32","internalType":"bytes32"}],"stateMutability":"view"},{"type":"function","name":"poolIndex","inputs":[{"name":"","type":"bytes32","internalType":"bytes32"}],"outputs":[{"name":"","type":"uint256","internalType":"uint256"}],"stateMutability":"view"},{"type":"function","name":"rawFulfillRandomWords","inputs":[{"name":"requestId","type":"uint256","internalType":"uint256"},{"name":"randomWords","type":"uint256[]","internalType":"uint256[]"}],"outputs":[],"stateMutability":"nonpayable"},{"type":"function","name":"refreshStartTime","inputs":[{"name":"_poolId","type":"bytes32","internalType":"bytes32"}],"outputs":[],"stateMutability":"nonpayable"},{"type":"function","name":"refreshStartTimes","inputs":[{"name":"max","type":"uint256","internalType":"uint256"}],"outputs":[],"stateMutability":"nonpayable"},{"type":"function","name":"requestConfirmations","inputs":[],"outputs":[{"name":"","type":"uint16","internalType":"uint16"}],"stateMutability":"view"},{"type":"function","name":"requestIdToPoolId","inputs":[{"name":"","type":"uint256","internalType":"uint256"}],"outputs":[{"name":"","type":"bytes32","internalType":"bytes32"}],"stateMutability":"view"},{"type":"function","name":"requestIds","inputs":[{"name":"","type":"uint256","internalType":"uint256"}],"outputs":[{"name":"","type":"uint256","internalType":"uint256"}],"stateMutability":"view"},{"type":"function","name":"s_requests","inputs":[{"name":"","type":"uint256","internalType":"uint256"}],"outputs":[{"name":"fulfilled","type":"bool","internalType":"bool"},{"name":"exists","type":"bool","internalType":"bool"}],"stateMutability":"view"},{"type":"function","name":"s_subscriptionId","inputs":[],"outputs":[{"name":"","type":"uint256","internalType":"uint256"}],"stateMutability":"view"},{"type":"function","name":"s_vrfCoordinator","inputs":[],"outputs":[{"name":"","type":"address","internalType":"contract IVRFCoordinatorV2Plus"}],"stateMutability":"view"},{"type":"function","name":"setCallbackGasLimit","inputs":[{"name":"_limit","type":"uint32","internalType":"uint32"}],"outputs":[],"stateMutability":"nonpayable"},{"type":"function","name":"setCoordinator","inputs":[{"name":"_vrfCoordinator","type":"address","internalType":"address"}],"outputs":[],"stateMutability":"nonpayable"},{"type":"function","name":"setPoolData","inputs":[{"name":"_poolId","type":"bytes32","internalType":"bytes32"},{"name":"_baseToken","type":"address","internalType":"address"},{"name":"_burnFee","type":"uint8","internalType":"uint8"},{"name":"_treasuryFee","type":"uint8","internalType":"uint8"},{"name":"_limitAmount","type":"uint256","internalType":"uint256"},{"name":"_ticketPrice","type":"uint256","internalType":"uint256"},{"name":"_poolType","type":"bool","internalType":"bool"}],"outputs":[],"stateMutability":"nonpayable"},{"type":"function","name":"setTreasury","inputs":[{"name":"_treasury","type":"address","internalType":"address"}],"outputs":[],"stateMutability":"nonpayable"},{"type":"function","name":"setVRF","inputs":[],"outputs":[],"stateMutability":"nonpayable"},{"type":"function","name":"setVrfParams","inputs":[{"name":"_keyHash","type":"bytes32","internalType":"bytes32"},{"name":"_confirmations","type":"uint16","internalType":"uint16"},{"name":"_numWords","type":"uint32","internalType":"uint32"}],"outputs":[],"stateMutability":"nonpayable"},{"type":"function","name":"startPlay","inputs":[{"name":"_poolId","type":"bytes32","internalType":"bytes32"}],"outputs":[],"stateMutability":"nonpayable"},{"type":"function","name":"transferOwnership","inputs":[{"name":"to","type":"address","internalType":"address"}],"outputs":[],"stateMutability":"nonpayable"},{"type":"function","name":"treasury","inputs":[],"outputs":[{"name":"","type":"address","internalType":"address"}],"stateMutability":"view"},{"type":"function","name":"unpause","inputs":[],"outputs":[],"stateMutability":"nonpayable"},{"type":"function","name":"unsetVRF","inputs":[],"outputs":[],"stateMutability":"nonpayable"},{"type":"function","name":"userHistory","inputs":[{"name":"","type":"address","internalType":"address"},{"name":"","type":"uint256","internalType":"uint256"}],"outputs":[{"name":"user","type":"address","internalType":"address"},{"name":"xpAmount","type":"uint256","internalType":"uint256"},{"name":"betTime","type":"uint256","internalType":"uint256"},{"name":"rewardAmount","type":"uint256","internalType":"uint256"}],"stateMutability":"view"},{"type":"event","name":"CoordinatorSet","inputs":[{"name":"vrfCoordinator","type":"address","indexed":false,"internalType":"address"}],"anonymous":false},{"type":"event","name":"EnteredPool","inputs":[{"name":"poolId","type":"bytes32","indexed":true,"internalType":"bytes32"},{"name":"user","type":"address","indexed":true,"internalType":"address"},{"name":"xpAmount","type":"uint256","indexed":false,"internalType":"uint256"}],"anonymous":false},{"type":"event","name":"FallbackRandomUsed","inputs":[{"name":"_poolId","type":"bytes32","indexed":true,"internalType":"bytes32"}],"anonymous":false},{"type":"event","name":"OwnershipTransferRequested","inputs":[{"name":"from","type":"address","indexed":true,"internalType":"address"},{"name":"to","type":"address","indexed":true,"internalType":"address"}],"anonymous":false},{"type":"event","name":"OwnershipTransferred","inputs":[{"name":"from","type":"address","indexed":true,"internalType":"address"},{"name":"to","type":"address","indexed":true,"internalType":"address"}],"anonymous":false},{"type":"event","name":"Paused","inputs":[{"name":"account","type":"address","indexed":false,"internalType":"address"}],"anonymous":false},{"type":"event","name":"PayoutClaimed","inputs":[{"name":"poolId","type":"bytes32","indexed":true,"internalType":"bytes32"},{"name":"winner","type":"address","indexed":true,"internalType":"address"},{"name":"amount","type":"uint256","indexed":false,"internalType":"uint256"}],"anonymous":false},{"type":"event","name":"PlayStarted","inputs":[{"name":"_poolId","type":"bytes32","indexed":true,"internalType":"bytes32"}],"anonymous":false},{"type":"event","name":"PoolCreated","inputs":[{"name":"poolId","type":"bytes32","indexed":true,"internalType":"bytes32"},{"name":"baseToken","type":"address","indexed":false,"internalType":"address"},{"name":"limitAmount","type":"uint256","indexed":false,"internalType":"uint256"},{"name":"ticketPrice","type":"uint256","indexed":false,"internalType":"uint256"},{"name":"_poolType","type":"bool","indexed":false,"internalType":"bool"}],"anonymous":false},{"type":"event","name":"PoolDataUpdated","inputs":[{"name":"poolId","type":"bytes32","indexed":true,"internalType":"bytes32"},{"name":"burnFee","type":"uint8","indexed":false,"internalType":"uint8"},{"name":"treasuryFee","type":"uint8","indexed":false,"internalType":"uint8"},{"name":"limitAmount","type":"uint256","indexed":false,"internalType":"uint256"},{"name":"ticketPrice","type":"uint256","indexed":false,"internalType":"uint256"},{"name":"_poolType","type":"bool","indexed":false,"internalType":"bool"}],"anonymous":false},{"type":"event","name":"PoolDrawRequested","inputs":[{"name":"requestId","type":"uint256","indexed":true,"internalType":"uint256"},{"name":"poolId","type":"bytes32","indexed":true,"internalType":"bytes32"}],"anonymous":false},{"type":"event","name":"PoolEnded","inputs":[{"name":"poolId","type":"bytes32","indexed":true,"internalType":"bytes32"}],"anonymous":false},{"type":"event","name":"RequestFulfilled","inputs":[{"name":"requestId","type":"uint256","indexed":false,"internalType":"uint256"},{"name":"randomWords","type":"uint256[]","indexed":false,"internalType":"uint256[]"}],"anonymous":false},{"type":"event","name":"RequestSent","inputs":[{"name":"requestId","type":"uint256","indexed":false,"internalType":"uint256"},{"name":"numWords","type":"uint32","indexed":false,"internalType":"uint32"}],"anonymous":false},{"type":"event","name":"StartTimeUpdated","inputs":[{"name":"poolId","type":"bytes32","indexed":true,"internalType":"bytes32"},{"name":"oldStartTime","type":"uint256","indexed":false,"internalType":"uint256"},{"name":"newStartTime","type":"uint256","indexed":false,"internalType":"uint256"}],"anonymous":false},{"type":"event","name":"TreasuryUpdated","inputs":[{"name":"newTreasury","type":"address","indexed":false,"internalType":"address"}],"anonymous":false},{"type":"event","name":"Unpaused","inputs":[{"name":"account","type":"address","indexed":false,"internalType":"address"}],"anonymous":false},{"type":"event","name":"WinnerDrawn","inputs":[{"name":"poolId","type":"bytes32","indexed":true,"internalType":"bytes32"},{"name":"winner","type":"address","indexed":true,"internalType":"address"},{"name":"rewardAmount","type":"uint256","indexed":false,"internalType":"uint256"}],"anonymous":false},{"type":"error","name":"AlreadyDrawn","inputs":[]},{"type":"error","name":"AlreadyPayoutClaimed","inputs":[]},{"type":"error","name":"AmountTooSmall","inputs":[]},{"type":"error","name":"BadTreasury","inputs":[]},{"type":"error","name":"CapExceeded","inputs":[]},{"type":"error","name":"CleanupNotAllowed","inputs":[]},{"type":"error","name":"DrawAlreadyRequested","inputs":[]},{"type":"error","name":"DrawNotRequested","inputs":[]},{"type":"error","name":"EnforcedPause","inputs":[]},{"type":"error","name":"ExpectedPause","inputs":[]},{"type":"error","name":"IndexOutOfBounds","inputs":[]},{"type":"error","name":"NoParticipants","inputs":[]},{"type":"error","name":"NotEmptyPool","inputs":[]},{"type":"error","name":"NotTimeOut","inputs":[]},{"type":"error","name":"OnlyCoordinatorCanFulfill","inputs":[{"name":"have","type":"address","internalType":"address"},{"name":"want","type":"address","internalType":"address"}]},{"type":"error","name":"OnlyOwnerOrCoordinator","inputs":[{"name":"have","type":"address","internalType":"address"},{"name":"owner","type":"address","internalType":"address"},{"name":"coordinator","type":"address","internalType":"address"}]},{"type":"error","name":"PayoutNotClaimed","inputs":[]},{"type":"error","name":"PoolInactive","inputs":[]},{"type":"error","name":"PoolNotFound","inputs":[]},{"type":"error","name":"PoolTimeClosed","inputs":[]},{"type":"error","name":"ReentrancyGuardReentrantCall","inputs":[]},{"type":"error","name":"SafeERC20FailedOperation","inputs":[{"name":"token","type":"address","internalType":"address"}]},{"type":"error","name":"ZeroAddress","inputs":[]}],"bytecode":{"object":"0x60806040527f787d74caea10b2b357790d5b5247c2f63d1d91572a9846f780606e4d953677ae5f1b600955620493e0600a5f6101000a81548163ffffffff021916908363ffffffff1602179055506003600a60046101000a81548161ffff021916908361ffff1602179055506001600a60066101000a81548163ffffffff021916908363ffffffff1602179055506001600c5f6101000a81548160ff0219169083151502179055503480156100b2575f5ffd5b50604051615a8c380380615a8c83398181016040528101906100d49190610536565b739ddfaca8183c41ad55329bdeed9f6a8d53168b1b33805f60015f819055505f73ffffffffffffffffffffffffffffffffffffffff168273ffffffffffffffffffffffffffffffffffffffff1603610161576040517f08c379a0000000000000000000000000000000000000000000000000000000008152600401610158906105ce565b60405180910390fd5b8160015f6101000a81548173ffffffffffffffffffffffffffffffffffffffff021916908373ffffffffffffffffffffffffffffffffffffffff1602179055505f73ffffffffffffffffffffffffffffffffffffffff168173ffffffffffffffffffffffffffffffffffffffff16146101e4576101e38161037960201b60201c565b5b5050505f73ffffffffffffffffffffffffffffffffffffffff168173ffffffffffffffffffffffffffffffffffffffff160361024c576040517fd92e233d00000000000000000000000000000000000000000000000000000000815260040160405180910390fd5b8060035f6101000a81548173ffffffffffffffffffffffffffffffffffffffff021916908373ffffffffffffffffffffffffffffffffffffffff160217905550505f73ffffffffffffffffffffffffffffffffffffffff168273ffffffffffffffffffffffffffffffffffffffff1614806102f4575061dead73ffffffffffffffffffffffffffffffffffffffff168273ffffffffffffffffffffffffffffffffffffffff16145b1561032b576040517f9718e70200000000000000000000000000000000000000000000000000000000815260040160405180910390fd5b8160045f6101000a81548173ffffffffffffffffffffffffffffffffffffffff021916908373ffffffffffffffffffffffffffffffffffffffff16021790555080600b819055505050610654565b3373ffffffffffffffffffffffffffffffffffffffff168173ffffffffffffffffffffffffffffffffffffffff16036103e7576040517f08c379a00000000000000000000000000000000000000000000000000000000081526004016103de90610636565b60405180910390fd5b8060025f6101000a81548173ffffffffffffffffffffffffffffffffffffffff021916908373ffffffffffffffffffffffffffffffffffffffff1602179055508073ffffffffffffffffffffffffffffffffffffffff1660015f9054906101000a900473ffffffffffffffffffffffffffffffffffffffff1673ffffffffffffffffffffffffffffffffffffffff167fed8889f560326eb138920d842192f0eb3dd22b4f139c87a2c57538e05bae127860405160405180910390a350565b5f5ffd5b5f73ffffffffffffffffffffffffffffffffffffffff82169050919050565b5f6104d2826104a9565b9050919050565b6104e2816104c8565b81146104ec575f5ffd5b50565b5f815190506104fd816104d9565b92915050565b5f819050919050565b61051581610503565b811461051f575f5ffd5b50565b5f815190506105308161050c565b92915050565b5f5f6040838503121561054c5761054b6104a5565b5b5f610559858286016104ef565b925050602061056a85828601610522565b9150509250929050565b5f82825260208201905092915050565b7f43616e6e6f7420736574206f776e657220746f207a65726f00000000000000005f82015250565b5f6105b8601883610574565b91506105c382610584565b602082019050919050565b5f6020820190508181035f8301526105e5816105ac565b9050919050565b7f43616e6e6f74207472616e7366657220746f2073656c660000000000000000005f82015250565b5f610620601783610574565b915061062b826105ec565b602082019050919050565b5f6020820190508181035f83015261064d81610614565b9050919050565b61542b806106615f395ff3fe608060405234801561000f575f5ffd5b506004361061025c575f3560e01c80638ac0002111610144578063d1734441116100c1578063e8164bf011610085578063e8164bf0146106f8578063f0f4426014610714578063f19c3d5b14610730578063f2fde38b1461074e578063fba2f4421461076a578063fccc2813146107885761025c565b8063d17344411461062d578063d595408a14610649578063d8a4676f1461067b578063e74617a2146106ac578063e75ff1c9146106dc5761025c565b8063a4eb718c11610108578063a4eb718c146105b1578063a680db40146105cd578063ad6829cf146105e9578063b0fb162f146105f3578063b4c63471146106115761025c565b80638ac000211461050a5780638da5cb5b146105285780638ea98117146105465780639eccacf614610562578063a168fa89146105805761025c565b80635c975abb116101dd57806379ba5097116101a157806379ba50971461045c5780637b41612c146104665780637ccfd7fc146104825780638456cb59146104a057806384a08400146104aa5780638796ba8c146104da5761025c565b80635c975abb146103b657806361728f39146103d457806361d027b3146103f257806369883b4e146104105780636ca6ad17146104405761025c565b80631fe543e3116102245780631fe543e31461030f57806322e8b9901461032b57806324f746971461035e5780633f426a061461037c5780633f4ba83a146103ac5761025c565b8063037aadbe1461026057806306559cf71461029b578063139656cb146102a55780631543b38c146102c35780631913feae146102f3575b5f5ffd5b61027a6004803603810190610275919061400d565b6107a6565b6040516102929c9b9a999897969594939291906140c4565b60405180910390f35b6102a36108b0565b005b6102ad6108d3565b6040516102ba919061417c565b60405180910390f35b6102dd60048036038101906102d8919061423d565b6108d8565b6040516102ea91906142d5565b60405180910390f35b61030d600480360381019061030891906142ee565b6108fb565b005b6103296004803603810190610324919061437a565b6109e6565b005b610345600480360381019061034091906143d7565b610aaa565b6040516103559493929190614415565b60405180910390f35b610366610b0f565b6040516103739190614476565b60405180910390f35b6103966004803603810190610391919061400d565b610b24565b6040516103a3919061417c565b60405180910390f35b6103b4610b39565b005b6103be610b4b565b6040516103cb919061448f565b60405180910390f35b6103dc610b61565b6040516103e991906142d5565b60405180910390f35b6103fa610b67565b60405161040791906144a8565b60405180910390f35b61042a600480360381019061042591906142ee565b610b8c565b60405161043791906142d5565b60405180910390f35b61045a600480360381019061045591906144c1565b610bac565b005b6104646110fc565b005b610480600480360381019061047b9190614560565b61128d565b005b61048a6112df565b6040516104979190614476565b60405180910390f35b6104a86112f5565b005b6104c460048036038101906104bf919061400d565b611307565b6040516104d1919061417c565b60405180910390f35b6104f460048036038101906104ef91906142ee565b61131c565b604051610501919061417c565b60405180910390f35b61051261133c565b60405161051f919061417c565b60405180910390f35b610530611342565b60405161053d91906144a8565b60405180910390f35b610560600480360381019061055b91906145b0565b61136a565b005b61056a611547565b6040516105779190614636565b60405180910390f35b61059a600480360381019061059591906142ee565b61156c565b6040516105a892919061464f565b60405180910390f35b6105cb60048036038101906105c69190614676565b6115a4565b005b6105e760048036038101906105e291906142ee565b6115cf565b005b6105f16116eb565b005b6105fb61170f565b60405161060891906146b0565b60405180910390f35b61062b6004803603810190610626919061400d565b611723565b005b6106476004803603810190610642919061400d565b611b3e565b005b610663600480360381019061065e919061400d565b611da7565b60405161067293929190614835565b60405180910390f35b610695600480360381019061069091906142ee565b611f22565b6040516106a3929190614919565b60405180910390f35b6106c660048036038101906106c191906142ee565b612037565b6040516106d391906142d5565b60405180910390f35b6106f660048036038101906106f1919061400d565b61204c565b005b610712600480360381019061070d9190614947565b61213d565b005b61072e600480360381019061072991906145b0565b612359565b005b610738612479565b6040516107459190614a9b565b60405180910390f35b610768600480360381019061076391906145b0565b6124cf565b005b6107726124e3565b60405161077f919061448f565b60405180910390f35b6107906124f5565b60405161079d91906144a8565b60405180910390f35b5f5f5f5f5f5f5f5f5f5f5f5f5f6107bc8e6124fb565b509050806001015f9054906101000a900473ffffffffffffffffffffffffffffffffffffffff168160010160149054906101000a900460ff168260010160159054906101000a900460ff1683600301548460040154856005015486600601548760010160169054906101000a900460ff168860010160189054906101000a900460ff1689600c015f9054906101000a900460ff168a60010160199054906101000a900460ff168b6007015f015f9054906101000a900473ffffffffffffffffffffffffffffffffffffffff169c509c509c509c509c509c509c509c509c509c509c509c505091939597999b5091939597999b565b6108b8612577565b5f600c5f6101000a81548160ff021916908315150217905550565b606481565b5f6108e1612577565b6108ef878787878787612608565b90509695505050505050565b610903612577565b5f5f90505f60078054905090505b5f8111801561091f57508282105b156109e1578080600190039150505f6007828154811061094257610941614abb565b5b905f5260205f2090600d020190508060010160169054906101000a900460ff16801561097457506109728161290e565b155b156109db575f81600501549050428260050181905550815f01547f91dbf322e72bed8365018c0883043117ea1cb32551bd5011f930e53bfed306408284600501546040516109c3929190614ae8565b60405180910390a283806109d690614b3c565b945050505b50610911565b505050565b60035f9054906101000a900473ffffffffffffffffffffffffffffffffffffffff1673ffffffffffffffffffffffffffffffffffffffff163373ffffffffffffffffffffffffffffffffffffffff1614610a9a573360035f9054906101000a900473ffffffffffffffffffffffffffffffffffffffff166040517f1cf993f4000000000000000000000000000000000000000000000000000000008152600401610a91929190614b83565b60405180910390fd5b610aa583838361293d565b505050565b6008602052815f5260405f208181548110610ac3575f80fd5b905f5260205f2090600402015f9150915050805f015f9054906101000a900473ffffffffffffffffffffffffffffffffffffffff16908060010154908060020154908060030154905084565b600a5f9054906101000a900463ffffffff1681565b600f602052805f5260405f205f915090505481565b610b41612577565b610b49612c8f565b565b5f600360149054906101000a900460ff16905090565b60095481565b60045f9054906101000a900473ffffffffffffffffffffffffffffffffffffffff1681565b60058181548110610b9b575f80fd5b905f5260205f20015f915090505481565b610bb4612cf1565b610bbc612d32565b5f610bc6836124fb565b5090508060010160169054906101000a900460ff16610c11576040517f0f509b1100000000000000000000000000000000000000000000000000000000815260040160405180910390fd5b8060040154821015610c4f576040517fc2f5625a00000000000000000000000000000000000000000000000000000000815260040160405180910390fd5b5f816006015414158015610c76575080600601548160050154610c729190614baa565b4210155b15610cad576040517f0606673e00000000000000000000000000000000000000000000000000000000815260040160405180910390fd5b80600b0160405180608001604052803373ffffffffffffffffffffffffffffffffffffffff1681526020018481526020014281526020015f815250908060018154018082558091505060019003905f5260205f2090600402015f909190919091505f820151815f015f6101000a81548173ffffffffffffffffffffffffffffffffffffffff021916908373ffffffffffffffffffffffffffffffffffffffff160217905550602082015181600101556040820151816002015560608201518160030155505060085f3373ffffffffffffffffffffffffffffffffffffffff1673ffffffffffffffffffffffffffffffffffffffff1681526020019081526020015f2081600b01600183600b0180549050610dc79190614bdd565b81548110610dd857610dd7614abb565b5b905f5260205f209060040201908060018154018082558091505060019003905f5260205f2090600402015f909190919091505f82015f9054906101000a900473ffffffffffffffffffffffffffffffffffffffff16815f015f6101000a81548173ffffffffffffffffffffffffffffffffffffffff021916908373ffffffffffffffffffffffffffffffffffffffff160217905550600182015481600101556002820154816002015560038201548160030155505081816002015f828254610ea09190614baa565b92505081905550610ef7333084846001015f9054906101000a900473ffffffffffffffffffffffffffffffffffffffff1673ffffffffffffffffffffffffffffffffffffffff16612d76909392919063ffffffff16565b3373ffffffffffffffffffffffffffffffffffffffff16837f2757cd0837826b91ef4363c56b439771a3671446ebb59b0846b7d2e1ae990f6a84604051610f3e919061417c565b60405180910390a38060010160179054906101000a900460ff166110ef575f5f826003015414158015610f7957508160030154826002015410155b90505f5f836006015414158015610fa3575082600601548360050154610f9f9190614baa565b4210155b90508180610fae5750805b156110ec5760018360010160176101000a81548160ff0219169083151502179055505f8360010160166101000a81548160ff0219169083151502179055505f1515600c5f9054906101000a900460ff16151503611083575f6001436110139190614bdd565b404442303360405160200161102c959493929190614c95565b604051602081830303815290604052805190602001205f1c9050857f98323e33bc986e61ec701a67f46e1071fcf7f175d531d954b28f705869cf69f660405160405180910390a261107d8682612df8565b506110eb565b5f61108d5f6130c0565b905085600e5f8381526020019081526020015f208190555080600f5f8881526020019081526020015f208190555085817f4fc4824e57d6533fcaf75f0fb22d5302deba8fe2e9c2ee9aae37ac10be6486fa60405160405180910390a3505b5b50505b506110f8613333565b5050565b60025f9054906101000a900473ffffffffffffffffffffffffffffffffffffffff1673ffffffffffffffffffffffffffffffffffffffff163373ffffffffffffffffffffffffffffffffffffffff161461118b576040517f08c379a000000000000000000000000000000000000000000000000000000000815260040161118290614d4d565b60405180910390fd5b5f60015f9054906101000a900473ffffffffffffffffffffffffffffffffffffffff1690503360015f6101000a81548173ffffffffffffffffffffffffffffffffffffffff021916908373ffffffffffffffffffffffffffffffffffffffff1602179055505f60025f6101000a81548173ffffffffffffffffffffffffffffffffffffffff021916908373ffffffffffffffffffffffffffffffffffffffff1602179055503373ffffffffffffffffffffffffffffffffffffffff168173ffffffffffffffffffffffffffffffffffffffff167f8be0079c531659141344cd1fd0a4f28419497f9722a3daafe3b4186f6b6457e060405160405180910390a350565b611295612577565b8260098190555081600a60046101000a81548161ffff021916908361ffff16021790555080600a60066101000a81548163ffffffff021916908363ffffffff160217905550505050565b600a60069054906101000a900463ffffffff1681565b6112fd612577565b61130561333c565b565b6006602052805f5260405f205f915090505481565b6010818154811061132b575f80fd5b905f5260205f20015f915090505481565b600b5481565b5f60015f9054906101000a900473ffffffffffffffffffffffffffffffffffffffff16905090565b611372611342565b73ffffffffffffffffffffffffffffffffffffffff163373ffffffffffffffffffffffffffffffffffffffff16141580156113fa575060035f9054906101000a900473ffffffffffffffffffffffffffffffffffffffff1673ffffffffffffffffffffffffffffffffffffffff163373ffffffffffffffffffffffffffffffffffffffff1614155b156114685733611408611342565b60035f9054906101000a900473ffffffffffffffffffffffffffffffffffffffff166040517f061db9c100000000000000000000000000000000000000000000000000000000815260040161145f93929190614d6b565b60405180910390fd5b5f73ffffffffffffffffffffffffffffffffffffffff168173ffffffffffffffffffffffffffffffffffffffff16036114cd576040517fd92e233d00000000000000000000000000000000000000000000000000000000815260040160405180910390fd5b8060035f6101000a81548173ffffffffffffffffffffffffffffffffffffffff021916908373ffffffffffffffffffffffffffffffffffffffff1602179055507fd1a6a14209a385a964d036e404cb5cfb71f4000cdb03c9366292430787261be68160405161153c91906144a8565b60405180910390a150565b60035f9054906101000a900473ffffffffffffffffffffffffffffffffffffffff1681565b600d602052805f5260405f205f91509050805f015f9054906101000a900460ff1690805f0160019054906101000a900460ff16905082565b6115ac612577565b80600a5f6101000a81548163ffffffff021916908363ffffffff16021790555050565b6115d7612577565b5f5f90505f60078054905090505b5f811180156115f357508282105b156116e6578080600190039150505f6007828154811061161657611615614abb565b5b905f5260205f2090600d020190505f5f82600601541415801561164c5750816006015482600501546116489190614baa565b4210155b905080801561166157505f82600b0180549050145b156116df575f825f015490506116768161339f565b82600b015f6116859190613d82565b826007015f5f82015f6101000a81549073ffffffffffffffffffffffffffffffffffffffff0219169055600182015f9055600282015f9055600382015f905550506116cf84613439565b84806116da90614b3c565b955050505b50506115e5565b505050565b6116f3612577565b6001600c5f6101000a81548160ff021916908315150217905550565b600a60049054906101000a900461ffff1681565b61172b612d32565b5f5f611736836124fb565b915091508160010160189054906101000a900460ff16611782576040517fefc9b43c00000000000000000000000000000000000000000000000000000000815260040160405180910390fd5b8160010160199054906101000a900460ff16156117cb576040517f19cc7f7000000000000000000000000000000000000000000000000000000000815260040160405180910390fd5b5f826001015f9054906101000a900473ffffffffffffffffffffffffffffffffffffffff1690505f8360010160149054906101000a900460ff1690505f8460010160159054906101000a900460ff1690505f856003015490505f866004015490505f87600c015f9054906101000a900460ff1690505f60648960010160149054906101000a900460ff1660ff168a600201546118679190614da0565b6118719190614e0e565b90505f60648a60010160159054906101000a900460ff1660ff168b6002015461189a9190614da0565b6118a49190614e0e565b90505f81838c600201546118b89190614bdd565b6118c29190614bdd565b905060018b60010160196101000a81548160ff0219169083151502179055506119548b6007015f015f9054906101000a900473ffffffffffffffffffffffffffffffffffffffff16828d6001015f9054906101000a900473ffffffffffffffffffffffffffffffffffffffff1673ffffffffffffffffffffffffffffffffffffffff166139249092919063ffffffff16565b5f8311156119ad576119ac61dead848d6001015f9054906101000a900473ffffffffffffffffffffffffffffffffffffffff1673ffffffffffffffffffffffffffffffffffffffff166139249092919063ffffffff16565b5b5f821115611a2557611a2460045f9054906101000a900473ffffffffffffffffffffffffffffffffffffffff16838d6001015f9054906101000a900473ffffffffffffffffffffffffffffffffffffffff1673ffffffffffffffffffffffffffffffffffffffff166139249092919063ffffffff16565b5b8a6007015f015f9054906101000a900473ffffffffffffffffffffffffffffffffffffffff1673ffffffffffffffffffffffffffffffffffffffff168c7f038b0cdf6318f158304d2b2f11b821333b4e69a21d83e945b6a741e1bbfc234b83604051611a91919061417c565b60405180910390a3611aa28c61339f565b8a600b015f611ab19190613d82565b8a6007015f5f82015f6101000a81549073ffffffffffffffffffffffffffffffffffffffff0219169055600182015f9055600282015f9055600382015f90555050611afb8a613439565b8b7f22be93b6727a05bee16813a6dcacf70cb1589ad1ad185376d386ad466fb6406e60405160405180910390a25050505050505050505050611b3b613333565b50565b611b46612577565b5f611b50826124fb565b5090505f81600b018054905003611b93576040517f8b6a473000000000000000000000000000000000000000000000000000000000815260040160405180910390fd5b8060010160179054906101000a900460ff1615611bdc576040517fbf08457d00000000000000000000000000000000000000000000000000000000815260040160405180910390fd5b5f5f826006015414158015611c04575081600601548260050154611c009190614baa565b4210155b905080611c3d576040517f60b8371a00000000000000000000000000000000000000000000000000000000815260040160405180910390fd5b60018260010160176101000a81548160ff0219169083151502179055505f8260010160166101000a81548160ff0219169083151502179055505f1515600c5f9054906101000a900460ff16151503611d0d575f600143611c9d9190614bdd565b4044423033604051602001611cb6959493929190614c95565b604051602081830303815290604052805190602001205f1c9050837f98323e33bc986e61ec701a67f46e1071fcf7f175d531d954b28f705869cf69f660405160405180910390a2611d078482612df8565b50611d75565b5f611d175f6130c0565b905083600e5f8381526020019081526020015f208190555080600f5f8681526020019081526020015f208190555083817f4fc4824e57d6533fcaf75f0fb22d5302deba8fe2e9c2ee9aae37ac10be6486fa60405160405180910390a3505b827fed6b05017645dfa72e1be4aecd8bd2c6b38e31bc86051a5f1c40ed94981c4d2160405160405180910390a2505050565b5f6060611db2613da3565b5f611dbc856124fb565b509050806002015481600b018260070181805480602002602001604051908101604052809291908181526020015f905b82821015611e8e578382905f5260205f2090600402016040518060800160405290815f82015f9054906101000a900473ffffffffffffffffffffffffffffffffffffffff1673ffffffffffffffffffffffffffffffffffffffff1673ffffffffffffffffffffffffffffffffffffffff168152602001600182015481526020016002820154815260200160038201548152505081526020019060010190611dec565b505050509150806040518060800160405290815f82015f9054906101000a900473ffffffffffffffffffffffffffffffffffffffff1673ffffffffffffffffffffffffffffffffffffffff1673ffffffffffffffffffffffffffffffffffffffff16815260200160018201548152602001600282015481526020016003820154815250509050935093509350509193909250565b5f6060600d5f8481526020019081526020015f205f0160019054906101000a900460ff16611f7c576040517fefc9b43c00000000000000000000000000000000000000000000000000000000815260040160405180910390fd5b5f600d5f8581526020019081526020015f206040518060600160405290815f82015f9054906101000a900460ff161515151581526020015f820160019054906101000a900460ff161515151581526020016001820180548060200260200160405190810160405280929190818152602001828054801561201957602002820191905f5260205f20905b815481526020019060010190808311612005575b5050505050815250509050805f015181604001519250925050915091565b600e602052805f5260405f205f915090505481565b612054612577565b5f61205e826124fb565b5090508060010160169054906101000a900460ff166120a9576040517f0f509b1100000000000000000000000000000000000000000000000000000000815260040160405180910390fd5b6120b28161290e565b156120e9576040517f0606673e00000000000000000000000000000000000000000000000000000000815260040160405180910390fd5b5f81600501549050428260050181905550827f91dbf322e72bed8365018c0883043117ea1cb32551bd5011f930e53bfed30640828460050154604051612130929190614ae8565b60405180910390a2505050565b612145612577565b5f61214f886124fb565b5090505f81600b018054905014612192576040517f3b7464b600000000000000000000000000000000000000000000000000000000815260040160405180910390fd5b606485876121a09190614e3e565b60ff1611156121db576040517f9718e70200000000000000000000000000000000000000000000000000000000815260040160405180910390fd5b5f73ffffffffffffffffffffffffffffffffffffffff168773ffffffffffffffffffffffffffffffffffffffff1603612240576040517f9718e70200000000000000000000000000000000000000000000000000000000815260040160405180910390fd5b86816001015f6101000a81548173ffffffffffffffffffffffffffffffffffffffff021916908373ffffffffffffffffffffffffffffffffffffffff160217905550858160010160146101000a81548160ff021916908360ff160217905550848160010160156101000a81548160ff021916908360ff1602179055508381600301819055508181600c015f6101000a81548160ff02191690831515021790555082816004018190555042816005018190555060018160010160166101000a81548160ff021916908315150217905550877faeeaf78aef223fd0470f9f7b28f19b9263e1e11f34e770396df1b52bc7e286258787878787604051612347959493929190614e72565b60405180910390a25050505050505050565b612361612577565b5f73ffffffffffffffffffffffffffffffffffffffff168173ffffffffffffffffffffffffffffffffffffffff1614806123c8575061dead73ffffffffffffffffffffffffffffffffffffffff168173ffffffffffffffffffffffffffffffffffffffff16145b156123ff576040517f9718e70200000000000000000000000000000000000000000000000000000000815260040160405180910390fd5b8060045f6101000a81548173ffffffffffffffffffffffffffffffffffffffff021916908373ffffffffffffffffffffffffffffffffffffffff1602179055507f7dae230f18360d76a040c81f050aa14eb9d6dc7901b20fc5d855e2a20fe814d18160405161246e91906144a8565b60405180910390a150565b606060058054806020026020016040519081016040528092919081815260200182805480156124c557602002820191905f5260205f20905b8154815260200190600101908083116124b1575b5050505050905090565b6124d7612577565b6124e0816139a3565b50565b600c5f9054906101000a900460ff1681565b61dead81565b5f5f61250683613acf565b61253c576040517f76ecffc000000000000000000000000000000000000000000000000000000000815260040160405180910390fd5b60065f8481526020019081526020015f205490506007818154811061256457612563614abb565b5b905f5260205f2090600d02019150915091565b60015f9054906101000a900473ffffffffffffffffffffffffffffffffffffffff1673ffffffffffffffffffffffffffffffffffffffff163373ffffffffffffffffffffffffffffffffffffffff1614612606576040517f08c379a00000000000000000000000000000000000000000000000000000000081526004016125fd90614f0d565b60405180910390fd5b565b5f606485876126179190614e3e565b60ff161115612652576040517f9718e70200000000000000000000000000000000000000000000000000000000815260040160405180910390fd5b5f73ffffffffffffffffffffffffffffffffffffffff168773ffffffffffffffffffffffffffffffffffffffff16036126b7576040517f9718e70200000000000000000000000000000000000000000000000000000000815260040160405180910390fd5b8683853042600580549050876040516020016126d99796959493929190614f70565b6040516020818303038152906040528051906020012090506126fa81613acf565b15612731576040517fbf08457d00000000000000000000000000000000000000000000000000000000815260040160405180910390fd5b600760018160018154018082558091505003905f5260205f209050505f600760016007805490506127629190614bdd565b8154811061277357612772614abb565b5b905f5260205f2090600d0201905081815f018190555087816001015f6101000a81548173ffffffffffffffffffffffffffffffffffffffff021916908373ffffffffffffffffffffffffffffffffffffffff160217905550868160010160146101000a81548160ff021916908360ff160217905550858160010160156101000a81548160ff021916908360ff16021790555060018160010160166101000a81548160ff0219169083151502179055508481600301819055508281600c015f6101000a81548160ff021916908315150217905550838160040181905550428160050181905550826128665762278d0061286b565b620151805b62ffffff168160060181905550600160078054905061288a9190614bdd565b60065f8481526020019081526020015f2081905550600582908060018154018082558091505060019003905f5260205f20015f9091909190915055817fdc7ce6588c25bb539fac743c5f1a1cbb85b40ca79efad364077b701924f1cfbb898787876040516128fb9493929190614ff0565b60405180910390a2509695505050505050565b5f5f8260060154141580156129365750816006015482600501546129329190614baa565b4210155b9050919050565b600d5f8481526020019081526020015f205f0160019054906101000a900460ff16612994576040517fefc9b43c00000000000000000000000000000000000000000000000000000000815260040160405180910390fd5b6001600d5f8581526020019081526020015f205f015f6101000a81548160ff0219169083151502179055508181600d5f8681526020019081526020015f2060010191906129e2929190613ddd565b507ffe2e2d779dba245964d4e3ef9b994be63856fd568bf7d3ca9e224755cb1bd54d838383604051612a169392919061509b565b60405180910390a15f600e5f8581526020019081526020015f205490505f612a3d826124fb565b5090508060010160179054906101000a900460ff161580612a6c57508060010160189054906101000a900460ff165b80612a7d57505f81600b0180549050145b15612a89575050612c8a565b5f81600b018054905085855f818110612aa557612aa4614abb565b5b90506020020135612ab691906150cb565b90505f60648360010160149054906101000a900460ff1660ff168460020154612adf9190614da0565b612ae99190614e0e565b90505f60648460010160159054906101000a900460ff1660ff168560020154612b129190614da0565b612b1c9190614e0e565b90505f81838660020154612b309190614bdd565b612b3a9190614bdd565b905084600b018481548110612b5257612b51614abb565b5b905f5260205f209060040201856007015f82015f9054906101000a900473ffffffffffffffffffffffffffffffffffffffff16815f015f6101000a81548173ffffffffffffffffffffffffffffffffffffffff021916908373ffffffffffffffffffffffffffffffffffffffff16021790555060018201548160010155600282015481600201556003820154816003015590505080856007016003018190555060018560010160186101000a81548160ff021916908315150217905550846007015f015f9054906101000a900473ffffffffffffffffffffffffffffffffffffffff1673ffffffffffffffffffffffffffffffffffffffff16867fad8076f81b459026ce918ece5c1d20126547645e82491dff7640e80478e4695a83604051612c7b919061417c565b60405180910390a35050505050505b505050565b612c97613b36565b5f600360146101000a81548160ff0219169083151502179055507f5db9ee0a495bf2e6ff9c91a7834c1ba4fdd244a5e8aa4e537bd38aeae4b073aa612cda613b76565b604051612ce791906144a8565b60405180910390a1565b612cf9610b4b565b15612d30576040517fd93c066500000000000000000000000000000000000000000000000000000000815260040160405180910390fd5b565b60025f5403612d6d576040517f3ee5aeb500000000000000000000000000000000000000000000000000000000815260040160405180910390fd5b60025f81905550565b612df2848573ffffffffffffffffffffffffffffffffffffffff166323b872dd868686604051602401612dab939291906150fb565b604051602081830303815290604052915060e01b6020820180517bffffffffffffffffffffffffffffffffffffffffffffffffffffffff8381831617835250505050613b7d565b50505050565b5f612e02836124fb565b5090508060010160179054906101000a900460ff16612e4d576040517fefc9b43c00000000000000000000000000000000000000000000000000000000815260040160405180910390fd5b8060010160189054906101000a900460ff1615612e96576040517f097e1d9b00000000000000000000000000000000000000000000000000000000815260040160405180910390fd5b5f81600b018054905003612ed6576040517f8b6a473000000000000000000000000000000000000000000000000000000000815260040160405180910390fd5b5f81600b018054905083612eea91906150cb565b90505f60648360010160149054906101000a900460ff1660ff168460020154612f139190614da0565b612f1d9190614e0e565b90505f60648460010160159054906101000a900460ff1660ff168560020154612f469190614da0565b612f509190614e0e565b90505f81838660020154612f649190614bdd565b612f6e9190614bdd565b905084600b018481548110612f8657612f85614abb565b5b905f5260205f209060040201856007015f82015f9054906101000a900473ffffffffffffffffffffffffffffffffffffffff16815f015f6101000a81548173ffffffffffffffffffffffffffffffffffffffff021916908373ffffffffffffffffffffffffffffffffffffffff16021790555060018201548160010155600282015481600201556003820154816003015590505080856007016003018190555060018560010160186101000a81548160ff021916908315150217905550846007015f015f9054906101000a900473ffffffffffffffffffffffffffffffffffffffff1673ffffffffffffffffffffffffffffffffffffffff16877fad8076f81b459026ce918ece5c1d20126547645e82491dff7640e80478e4695a836040516130af919061417c565b60405180910390a350505050505050565b5f60035f9054906101000a900473ffffffffffffffffffffffffffffffffffffffff1673ffffffffffffffffffffffffffffffffffffffff16639b1c385e6040518060c001604052806009548152602001600b548152602001600a60049054906101000a900461ffff1661ffff168152602001600a5f9054906101000a900463ffffffff1663ffffffff168152602001600a60069054906101000a900463ffffffff1663ffffffff1681526020016131876040518060200160405280881515815250613c18565b8152506040518263ffffffff1660e01b81526004016131a69190615244565b6020604051808303815f875af11580156131c2573d5f5f3e3d5ffd5b505050506040513d601f19601f820116820180604052508101906131e69190615278565b905060405180606001604052805f151581526020016001151581526020015f67ffffffffffffffff81111561321e5761321d6152a3565b5b60405190808252806020026020018201604052801561324c5781602001602082028036833780820191505090505b50815250600d5f8381526020019081526020015f205f820151815f015f6101000a81548160ff0219169083151502179055506020820151815f0160016101000a81548160ff02191690831515021790555060408201518160010190805190602001906132b9929190613e28565b50905050601081908060018154018082558091505060019003905f5260205f20015f90919091909150557fcc58b13ad3eab50626c6a6300b1d139cd6ebb1688a7cced9461c2f7e762665ee81600a60069054906101000a900463ffffffff166040516133269291906152d0565b60405180910390a1919050565b60015f81905550565b613344612cf1565b6001600360146101000a81548160ff0219169083151502179055507f62e78cea01bee320cd4e420270b5ea74000d11b0c9f74754ebdbfc544b05a258613388613b76565b60405161339591906144a8565b60405180910390a1565b5f600f5f8381526020019081526020015f205490505f811461343557600d5f8281526020019081526020015f205f5f82015f6101000a81549060ff02191690555f820160016101000a81549060ff0219169055600182015f6134019190613e73565b5050600e5f8281526020019081526020015f205f905561342081613cb0565b600f5f8381526020019081526020015f205f90555b5050565b5f6005828154811061344e5761344d614abb565b5b905f5260205f20015490505f600160078054905061346c9190614bdd565b9050808314613793576007818154811061348957613488614abb565b5b905f5260205f2090600d0201600784815481106134a9576134a8614abb565b5b905f5260205f2090600d02015f820154815f0155600182015f9054906101000a900473ffffffffffffffffffffffffffffffffffffffff16816001015f6101000a81548173ffffffffffffffffffffffffffffffffffffffff021916908373ffffffffffffffffffffffffffffffffffffffff1602179055506001820160149054906101000a900460ff168160010160146101000a81548160ff021916908360ff1602179055506001820160159054906101000a900460ff168160010160156101000a81548160ff021916908360ff1602179055506001820160169054906101000a900460ff168160010160166101000a81548160ff0219169083151502179055506001820160179054906101000a900460ff168160010160176101000a81548160ff0219169083151502179055506001820160189054906101000a900460ff168160010160186101000a81548160ff0219169083151502179055506001820160199054906101000a900460ff168160010160196101000a81548160ff021916908315150217905550600282015481600201556003820154816003015560048201548160040155600582015481600501556006820154816006015560078201816007015f82015f9054906101000a900473ffffffffffffffffffffffffffffffffffffffff16815f015f6101000a81548173ffffffffffffffffffffffffffffffffffffffff021916908373ffffffffffffffffffffffffffffffffffffffff1602179055506001820154816001015560028201548160020155600382015481600301555050600b820181600b01908054613705929190613e91565b50600c82015f9054906101000a900460ff1681600c015f6101000a81548160ff0219169083151502179055509050505f6007848154811061374957613748614abb565b5b905f5260205f2090600d02015f01549050806005858154811061376f5761376e614abb565b5b905f5260205f2001819055508360065f8381526020019081526020015f2081905550505b60078054806137a5576137a46152f7565b5b600190038181905f5260205f2090600d02015f5f82015f9055600182015f6101000a81549073ffffffffffffffffffffffffffffffffffffffff02191690556001820160146101000a81549060ff02191690556001820160156101000a81549060ff02191690556001820160166101000a81549060ff02191690556001820160176101000a81549060ff02191690556001820160186101000a81549060ff02191690556001820160196101000a81549060ff0219169055600282015f9055600382015f9055600482015f9055600582015f9055600682015f9055600782015f5f82015f6101000a81549073ffffffffffffffffffffffffffffffffffffffff0219169055600182015f9055600282015f9055600382015f90555050600b82015f6138cf9190613d82565b600c82015f6101000a81549060ff02191690555050905560058054806138f8576138f76152f7565b5b600190038181905f5260205f20015f9055905560065f8381526020019081526020015f205f9055505050565b61399e838473ffffffffffffffffffffffffffffffffffffffff1663a9059cbb8585604051602401613957929190615324565b604051602081830303815290604052915060e01b6020820180517bffffffffffffffffffffffffffffffffffffffffffffffffffffffff8381831617835250505050613b7d565b505050565b3373ffffffffffffffffffffffffffffffffffffffff168173ffffffffffffffffffffffffffffffffffffffff1603613a11576040517f08c379a0000000000000000000000000000000000000000000000000000000008152600401613a0890615395565b60405180910390fd5b8060025f6101000a81548173ffffffffffffffffffffffffffffffffffffffff021916908373ffffffffffffffffffffffffffffffffffffffff1602179055508073ffffffffffffffffffffffffffffffffffffffff1660015f9054906101000a900473ffffffffffffffffffffffffffffffffffffffff1673ffffffffffffffffffffffffffffffffffffffff167fed8889f560326eb138920d842192f0eb3dd22b4f139c87a2c57538e05bae127860405160405180910390a350565b5f5f60058054905003613ae4575f9050613b31565b5f60065f8481526020019081526020015f205490506005805490508110613b0e575f915050613b31565b8260058281548110613b2357613b22614abb565b5b905f5260205f200154149150505b919050565b613b3e610b4b565b613b74576040517f8dfc202b00000000000000000000000000000000000000000000000000000000815260040160405180910390fd5b565b5f33905090565b5f5f60205f8451602086015f885af180613b9c576040513d5f823e3d81fd5b3d92505f519150505f8214613bb5576001811415613bd0565b5f8473ffffffffffffffffffffffffffffffffffffffff163b145b15613c1257836040517f5274afe7000000000000000000000000000000000000000000000000000000008152600401613c0991906144a8565b60405180910390fd5b50505050565b60607f92fd13387c7fe7befbc38d303d6468778fb9731bc4583f17d92989c6fcfdeaaa82604051602401613c4c91906153dc565b604051602081830303815290604052907bffffffffffffffffffffffffffffffffffffffffffffffffffffffff19166020820180517bffffffffffffffffffffffffffffffffffffffffffffffffffffffff83818316178352505050509050919050565b5f60108054905090505f5f90505b81811015613d7d578260108281548110613cdb57613cda614abb565b5b905f5260205f20015403613d7057600182613cf69190614bdd565b8114613d46576010600183613d0b9190614bdd565b81548110613d1c57613d1b614abb565b5b905f5260205f20015460108281548110613d3957613d38614abb565b5b905f5260205f2001819055505b6010805480613d5857613d576152f7565b5b600190038181905f5260205f20015f90559055613d7d565b8080600101915050613cbe565b505050565b5080545f8255600402905f5260205f2090810190613da09190613f66565b50565b60405180608001604052805f73ffffffffffffffffffffffffffffffffffffffff1681526020015f81526020015f81526020015f81525090565b828054828255905f5260205f20908101928215613e17579160200282015b82811115613e16578235825591602001919060010190613dfb565b5b509050613e249190613fb7565b5090565b828054828255905f5260205f20908101928215613e62579160200282015b82811115613e61578251825591602001919060010190613e46565b5b509050613e6f9190613fb7565b5090565b5080545f8255905f5260205f2090810190613e8e9190613fb7565b50565b828054828255905f5260205f20906004028101928215613f55575f5260205f209160040282015b82811115613f545782825f82015f9054906101000a900473ffffffffffffffffffffffffffffffffffffffff16815f015f6101000a81548173ffffffffffffffffffffffffffffffffffffffff021916908373ffffffffffffffffffffffffffffffffffffffff160217905550600182015481600101556002820154816002015560038201548160030155505091600401919060040190613eb8565b5b509050613f629190613f66565b5090565b5b80821115613fb3575f5f82015f6101000a81549073ffffffffffffffffffffffffffffffffffffffff0219169055600182015f9055600282015f9055600382015f905550600401613f67565b5090565b5b80821115613fce575f815f905550600101613fb8565b5090565b5f5ffd5b5f5ffd5b5f819050919050565b613fec81613fda565b8114613ff6575f5ffd5b50565b5f8135905061400781613fe3565b92915050565b5f6020828403121561402257614021613fd2565b5b5f61402f84828501613ff9565b91505092915050565b5f73ffffffffffffffffffffffffffffffffffffffff82169050919050565b5f61406182614038565b9050919050565b61407181614057565b82525050565b5f60ff82169050919050565b61408c81614077565b82525050565b5f819050919050565b6140a481614092565b82525050565b5f8115159050919050565b6140be816140aa565b82525050565b5f610180820190506140d85f83018f614068565b6140e5602083018e614083565b6140f2604083018d614083565b6140ff606083018c61409b565b61410c608083018b61409b565b61411960a083018a61409b565b61412660c083018961409b565b61413360e08301886140b5565b6141416101008301876140b5565b61414f6101208301866140b5565b61415d6101408301856140b5565b61416b610160830184614068565b9d9c50505050505050505050505050565b5f60208201905061418f5f83018461409b565b92915050565b61419e81614057565b81146141a8575f5ffd5b50565b5f813590506141b981614195565b92915050565b6141c881614077565b81146141d2575f5ffd5b50565b5f813590506141e3816141bf565b92915050565b6141f281614092565b81146141fc575f5ffd5b50565b5f8135905061420d816141e9565b92915050565b61421c816140aa565b8114614226575f5ffd5b50565b5f8135905061423781614213565b92915050565b5f5f5f5f5f5f60c0878903121561425757614256613fd2565b5b5f61426489828a016141ab565b965050602061427589828a016141d5565b955050604061428689828a016141d5565b945050606061429789828a016141ff565b93505060806142a889828a016141ff565b92505060a06142b989828a01614229565b9150509295509295509295565b6142cf81613fda565b82525050565b5f6020820190506142e85f8301846142c6565b92915050565b5f6020828403121561430357614302613fd2565b5b5f614310848285016141ff565b91505092915050565b5f5ffd5b5f5ffd5b5f5ffd5b5f5f83601f84011261433a57614339614319565b5b8235905067ffffffffffffffff8111156143575761435661431d565b5b60208301915083602082028301111561437357614372614321565b5b9250929050565b5f5f5f6040848603121561439157614390613fd2565b5b5f61439e868287016141ff565b935050602084013567ffffffffffffffff8111156143bf576143be613fd6565b5b6143cb86828701614325565b92509250509250925092565b5f5f604083850312156143ed576143ec613fd2565b5b5f6143fa858286016141ab565b925050602061440b858286016141ff565b9150509250929050565b5f6080820190506144285f830187614068565b614435602083018661409b565b614442604083018561409b565b61444f606083018461409b565b95945050505050565b5f63ffffffff82169050919050565b61447081614458565b82525050565b5f6020820190506144895f830184614467565b92915050565b5f6020820190506144a25f8301846140b5565b92915050565b5f6020820190506144bb5f830184614068565b92915050565b5f5f604083850312156144d7576144d6613fd2565b5b5f6144e485828601613ff9565b92505060206144f5858286016141ff565b9150509250929050565b5f61ffff82169050919050565b614515816144ff565b811461451f575f5ffd5b50565b5f813590506145308161450c565b92915050565b61453f81614458565b8114614549575f5ffd5b50565b5f8135905061455a81614536565b92915050565b5f5f5f6060848603121561457757614576613fd2565b5b5f61458486828701613ff9565b935050602061459586828701614522565b92505060406145a68682870161454c565b9150509250925092565b5f602082840312156145c5576145c4613fd2565b5b5f6145d2848285016141ab565b91505092915050565b5f819050919050565b5f6145fe6145f96145f484614038565b6145db565b614038565b9050919050565b5f61460f826145e4565b9050919050565b5f61462082614605565b9050919050565b61463081614616565b82525050565b5f6020820190506146495f830184614627565b92915050565b5f6040820190506146625f8301856140b5565b61466f60208301846140b5565b9392505050565b5f6020828403121561468b5761468a613fd2565b5b5f6146988482850161454c565b91505092915050565b6146aa816144ff565b82525050565b5f6020820190506146c35f8301846146a1565b92915050565b5f81519050919050565b5f82825260208201905092915050565b5f819050602082019050919050565b6146fb81614057565b82525050565b61470a81614092565b82525050565b608082015f8201516147245f8501826146f2565b5060208201516147376020850182614701565b50604082015161474a6040850182614701565b50606082015161475d6060850182614701565b50505050565b5f61476e8383614710565b60808301905092915050565b5f602082019050919050565b5f614790826146c9565b61479a81856146d3565b93506147a5836146e3565b805f5b838110156147d55781516147bc8882614763565b97506147c78361477a565b9250506001810190506147a8565b5085935050505092915050565b608082015f8201516147f65f8501826146f2565b5060208201516148096020850182614701565b50604082015161481c6040850182614701565b50606082015161482f6060850182614701565b50505050565b5f60c0820190506148485f83018661409b565b818103602083015261485a8185614786565b905061486960408301846147e2565b949350505050565b5f81519050919050565b5f82825260208201905092915050565b5f819050602082019050919050565b5f6148a58383614701565b60208301905092915050565b5f602082019050919050565b5f6148c782614871565b6148d1818561487b565b93506148dc8361488b565b805f5b8381101561490c5781516148f3888261489a565b97506148fe836148b1565b9250506001810190506148df565b5085935050505092915050565b5f60408201905061492c5f8301856140b5565b818103602083015261493e81846148bd565b90509392505050565b5f5f5f5f5f5f5f60e0888a03121561496257614961613fd2565b5b5f61496f8a828b01613ff9565b97505060206149808a828b016141ab565b96505060406149918a828b016141d5565b95505060606149a28a828b016141d5565b94505060806149b38a828b016141ff565b93505060a06149c48a828b016141ff565b92505060c06149d58a828b01614229565b91505092959891949750929550565b5f81519050919050565b5f82825260208201905092915050565b5f819050602082019050919050565b614a1681613fda565b82525050565b5f614a278383614a0d565b60208301905092915050565b5f602082019050919050565b5f614a49826149e4565b614a5381856149ee565b9350614a5e836149fe565b805f5b83811015614a8e578151614a758882614a1c565b9750614a8083614a33565b925050600181019050614a61565b5085935050505092915050565b5f6020820190508181035f830152614ab38184614a3f565b905092915050565b7f4e487b71000000000000000000000000000000000000000000000000000000005f52603260045260245ffd5b5f604082019050614afb5f83018561409b565b614b08602083018461409b565b9392505050565b7f4e487b71000000000000000000000000000000000000000000000000000000005f52601160045260245ffd5b5f614b4682614092565b91507fffffffffffffffffffffffffffffffffffffffffffffffffffffffffffffffff8203614b7857614b77614b0f565b5b600182019050919050565b5f604082019050614b965f830185614068565b614ba36020830184614068565b9392505050565b5f614bb482614092565b9150614bbf83614092565b9250828201905080821115614bd757614bd6614b0f565b5b92915050565b5f614be782614092565b9150614bf283614092565b9250828203905081811115614c0a57614c09614b0f565b5b92915050565b5f819050919050565b614c2a614c2582613fda565b614c10565b82525050565b5f819050919050565b614c4a614c4582614092565b614c30565b82525050565b5f8160601b9050919050565b5f614c6682614c50565b9050919050565b5f614c7782614c5c565b9050919050565b614c8f614c8a82614057565b614c6d565b82525050565b5f614ca08288614c19565b602082019150614cb08287614c39565b602082019150614cc08286614c39565b602082019150614cd08285614c7e565b601482019150614ce08284614c7e565b6014820191508190509695505050505050565b5f82825260208201905092915050565b7f4d7573742062652070726f706f736564206f776e6572000000000000000000005f82015250565b5f614d37601683614cf3565b9150614d4282614d03565b602082019050919050565b5f6020820190508181035f830152614d6481614d2b565b9050919050565b5f606082019050614d7e5f830186614068565b614d8b6020830185614068565b614d986040830184614068565b949350505050565b5f614daa82614092565b9150614db583614092565b9250828202614dc381614092565b91508282048414831517614dda57614dd9614b0f565b5b5092915050565b7f4e487b71000000000000000000000000000000000000000000000000000000005f52601260045260245ffd5b5f614e1882614092565b9150614e2383614092565b925082614e3357614e32614de1565b5b828204905092915050565b5f614e4882614077565b9150614e5383614077565b9250828201905060ff811115614e6c57614e6b614b0f565b5b92915050565b5f60a082019050614e855f830188614083565b614e926020830187614083565b614e9f604083018661409b565b614eac606083018561409b565b614eb960808301846140b5565b9695505050505050565b7f4f6e6c792063616c6c61626c65206279206f776e6572000000000000000000005f82015250565b5f614ef7601683614cf3565b9150614f0282614ec3565b602082019050919050565b5f6020820190508181035f830152614f2481614eeb565b9050919050565b5f8160f81b9050919050565b5f614f4182614f2b565b9050919050565b5f614f5282614f37565b9050919050565b614f6a614f65826140aa565b614f48565b82525050565b5f614f7b828a614c7e565b601482019150614f8b8289614c39565b602082019150614f9b8288614c39565b602082019150614fab8287614c7e565b601482019150614fbb8286614c39565b602082019150614fcb8285614c39565b602082019150614fdb8284614f59565b60018201915081905098975050505050505050565b5f6080820190506150035f830187614068565b615010602083018661409b565b61501d604083018561409b565b61502a60608301846140b5565b95945050505050565b5f5ffd5b82818337505050565b5f61504b838561487b565b93507f07ffffffffffffffffffffffffffffffffffffffffffffffffffffffffffffff83111561507e5761507d615033565b5b60208302925061508f838584615037565b82840190509392505050565b5f6040820190506150ae5f83018661409b565b81810360208301526150c1818486615040565b9050949350505050565b5f6150d582614092565b91506150e083614092565b9250826150f0576150ef614de1565b5b828206905092915050565b5f60608201905061510e5f830186614068565b61511b6020830185614068565b615128604083018461409b565b949350505050565b615139816144ff565b82525050565b61514881614458565b82525050565b5f81519050919050565b5f82825260208201905092915050565b8281835e5f83830152505050565b5f601f19601f8301169050919050565b5f6151908261514e565b61519a8185615158565b93506151aa818560208601615168565b6151b381615176565b840191505092915050565b5f60c083015f8301516151d35f860182614a0d565b5060208301516151e66020860182614701565b5060408301516151f96040860182615130565b50606083015161520c606086018261513f565b50608083015161521f608086018261513f565b5060a083015184820360a08601526152378282615186565b9150508091505092915050565b5f6020820190508181035f83015261525c81846151be565b905092915050565b5f81519050615272816141e9565b92915050565b5f6020828403121561528d5761528c613fd2565b5b5f61529a84828501615264565b91505092915050565b7f4e487b71000000000000000000000000000000000000000000000000000000005f52604160045260245ffd5b5f6040820190506152e35f83018561409b565b6152f06020830184614467565b9392505050565b7f4e487b71000000000000000000000000000000000000000000000000000000005f52603160045260245ffd5b5f6040820190506153375f830185614068565b615344602083018461409b565b9392505050565b7f43616e6e6f74207472616e7366657220746f2073656c660000000000000000005f82015250565b5f61537f601783614cf3565b915061538a8261534b565b602082019050919050565b5f6020820190508181035f8301526153ac81615373565b9050919050565b6153bc816140aa565b82525050565b602082015f8201516153d65f8501826153b3565b50505050565b5f6020820190506153ef5f8301846153c2565b9291505056fea26469706673582212200bdbc8f08c9678fb3f6659f83569d2d9c8c511436778dc213390e42538734f3964736f6c634300081e0033","linkReferences":{}},"methodIdentifiers":{"BASE_DIVIDER()":"139656cb","BURN_ADDRESS()":"fccc2813","acceptOwnership()":"79ba5097","callbackGasLimit()":"24f74697","claimPayout(bytes32)":"b4c63471","cleanExpiredEmptyPools(uint256)":"a680db40","createPool(address,uint8,uint8,uint256,uint256,bool)":"1543b38c","enterPool(bytes32,uint256)":"6ca6ad17","getAllPoolIds()":"f19c3d5b","getPoolConfig(bytes32)":"037aadbe","getPoolState(bytes32)":"d595408a","getRequestStatus(uint256)":"d8a4676f","isVRF()":"fba2f442","keyHash()":"61728f39","numWords()":"7ccfd7fc","owner()":"8da5cb5b","pause()":"8456cb59","paused()":"5c975abb","poolIdToRequestId(bytes32)":"3f426a06","poolIds(uint256)":"69883b4e","poolIndex(bytes32)":"84a08400","rawFulfillRandomWords(uint256,uint256[])":"1fe543e3","refreshStartTime(bytes32)":"e75ff1c9","refreshStartTimes(uint256)":"1913feae","requestConfirmations()":"b0fb162f","requestIdToPoolId(uint256)":"e74617a2","requestIds(uint256)":"8796ba8c","s_requests(uint256)":"a168fa89","s_subscriptionId()":"8ac00021","s_vrfCoordinator()":"9eccacf6","setCallbackGasLimit(uint32)":"a4eb718c","setCoordinator(address)":"8ea98117","setPoolData(bytes32,address,uint8,uint8,uint256,uint256,bool)":"e8164bf0","setTreasury(address)":"f0f44260","setVRF()":"ad6829cf","setVrfParams(bytes32,uint16,uint32)":"7b41612c","startPlay(bytes32)":"d1734441","transferOwnership(address)":"f2fde38b","treasury()":"61d027b3","unpause()":"3f4ba83a","unsetVRF()":"06559cf7","userHistory(address,uint256)":"22e8b990"},"id":40}